:020000040800F2
:100000000050002021020008270200082B020008EF
:1000100043020008470200085F02000800000000D9
:10002000000000000000000000000000770200084F
:100030007B020008000000007F020008490700085A
:100040009102000891020008910200089102000844
:100050009102000891020008910200089102000834
:100060009102000891020008910200089102000824
:100070009102000891020008910200089102000814
:100080009102000891020008910200089102000804
:1000900091020008910200089102000891020008F4
:1000A00091020008910200089102000891020008E4
:1000B00091020008910200089102000891020008D4
:1000C00091020008910200089102000891020008C4
:1000D00091020008910200089102000891020008B4
:1000E000910200089102000891020008000000003F
:1000F0000000000000000000000000000000000000
:1001000000000000000000005FF808F100B583B0B7
:1001100000F0DEF8304B314A1360314A1360314B46
:10012000314A32498B4204D21168196004330432D7
:10013000F7E72A4B1A682E4B9A4200D0FEE7284B6D
:100140001A682C4B9A42F9D1234B2B4A13602B4A45
:1001500013602B4B02E000221A600433294A9342B9
:10016000F9D3254B1B6813B9244B1B6803B1FEE779
:1001700000F0BAF8694601A800F0A2F8224C234B1F
:10018000E41AA4100025AC4214DC214C214BE41AE3
:10019000A4100025AC4213DC0099019801F036F957
:1001A00005461D4C1D4BE41AA410002C0EDC2846FD
:1001B00000F084F8154B53F8253098470135E2E7F5
:1001C000144B53F8253098470135E3E7013C134BB6
:1001D00053F824309847E8E7BABADECA0000002096
:1001E0003800002000000020E01900083C0000203A
:1001F00078563412325476983C000020700000206B
:100200003C00002074000020BC020008BC02000872
:10021000BC020008BC020008BC020008BC020008C6
:1002200008B5FFF773FF00BEFEE71EF0040F0CBF1A
:10023000EFF30880EFF309807146124A104700BEC1
:10024000FEE700BEFEE71EF0040F0CBFEFF30880D0
:10025000EFF3098071460C4A104700BEFEE71EF01E
:10026000040F0CBFEFF30880EFF309807146074AD3
:10027000104700BEFEE700BEFEE700BEFEE700BE80
:10028000FEE770473F0200085B02000873020008A7
:0402900000BEFEE7C7
:10029400E0190008000000203C000020E0190008DC
:1002A40000000000000000003C000020740000205A
:0802B400000000000000000042
:1002BC00FEE7000001230360014B0B60704700BF99
:1002CC000400002008B500F073F8024A024B9A6053
:1002DC0008BD00BF0000000800ED00E008B500F00C
:1002EC008FF808BD82B00023019300932C4A136849
:1002FC0043F4803313602A4B1B6803F400330093E0
:10030C00019B01330193009B1BB9019BB3F5A06FBB
:10031C00F1D1234B1B6813F4003F06D0012300934B
:10032C00009B012B04D002B0704700230093F7E729
:10033C001C4B1A6842F010021A601A6822F0030271
:10034C001A601A6842F002021A60A3F580535A68C8
:10035C005A605A685A605A6842F480625A605A6805
:10036C0022F47C125A605A6842F4E8125A601A68F5
:10037C0042F080721A600A4B1B6813F0007FFAD0AF
:10038C00074B5A6822F003025A605A6842F0020284
:10039C005A60034B5B6803F00C03082BF9D1C2E7DE
:1003AC00001002400020024008B5FFF79BFF08BD7B
:1003BC0008B5104B1A6842F001021A6059680E4ACF
:1003CC000A405A601A6822F0847222F480321A6051
:1003DC001A6822F480221A605A6822F4FE025A60CB
:1003EC004FF41F029A60FFF7DFFF044B4FF00062DF
:1003FC009A6008BD001002400000FFF800ED00E01C
:10040C001F4B5B6803F00C03042B15D0082B17D083
:10041C001BB11C4B1C4A1A6002E01A4B1A4A1A6098
:10042C00174B5B68C3F30313184AD35CDAB2154954
:10043C000B68D3400B607047124B134A1A60EFE7FE
:10044C000F4A53685268C3F38343023312F4803F5C
:10045C000AD00B4A526812F4003F0BD00C4A02FB34
:10046C0003F3084A1360DBE7094A02FB03F3054A6E
:10047C001360D5E7044A02FB03F3024A1360CFE78B
:10048C00001002401C00002000127A000C0000201A
:10049C0000093D0010B4012823D018B102283FD028
:1004AC0010BC704707290FD90F29F9D8A1F10804FE
:1004BC00A4000F23A3402A48016821EA030302FA8F
:1004CC0004F119430160EBE789000F2303FA01F0F3
:1004DC00244C236823EA000302FA01F1194321603A
:1004EC00DEE707290FD90F29DAD8A1F1080080001F
:1004FC000F2383401C4C216821EA030302FA00F10C
:10050C0019432160CCE789000F2303FA01F0174C43
:10051C00236823EA000302FA01F119432160BFE7C3
:10052C0007290FD90F29BBD8A1F108039B000F2075
:10053C0098400F4C216821EA000002FA03F10143B4
:10054C002160ADE789000F2303FA01F0094C236801
:10055C0023EA000302FA01F119432160A0E700BF6E
:10056C000408014000080140040C0140000C01404B
:10057C000410014000100140012818D010B10228CD
:10058C0029D07047012A0AD0002A2FD1012303FA5F
:10059C0001F11B4A136823EA01031360704701231E
:1005AC0003FA01F1164A13680B4313607047012AD2
:1005BC0009D0DAB9012303FA01F1124A136823EACC
:1005CC00010313607047012303FA01F10D4A13680C
:1005DC000B4313607047012A09D03AB9012303FA7F
:1005EC0001F1094A136823EA0103136070470123E0
:1005FC0003FA01F1044A13680B431360704700BF00
:10060C000C0801400C0C01400C10014001280AD0D0
:10061C0018B102280DD000207047094B1868C8404B
:10062C0000F001007047074B1868C84000F001004B
:10063C007047054B1868C84000F00100704700BFB8
:10064C0008080140080C014008100140034B4FF40E
:10065C0080321A60043301221A6070470010024085
:10066C001F291CD801280BD010B1022810D07047BC
:10067C00012303FA01F10A4A13680B431360704714
:10068C00012303FA01F1074A13680B431360704707
:10069C00012303FA01F1044A13680B4313607047FA
:1006AC00141002401C10024018100240024B40F281
:1006BC0047321A60704700BF0030014038B505461C
:1006CC000C46002211461046FFF756FF074BDD6023
:1006DC00064B9B6813F0800FFAD1044BDB68237038
:1006EC00012200210846FFF747FF38BD00300140CA
:1006FC00014B00221A60704710E000E00D4B1860AF
:10070C000D4A136843F0010313600B4B1B6813F481
:10071C00803FFAD0084B1A6822F001021A601A685E
:10072C0022F002021A600023024A136004321360A2
:10073C00704700BF14E000E010E000E008B50B4B80
:10074C001B786BB90A4B1A6822F002021A601A68FD
:10075C0042F001021A600023064A1360043213604F
:10076C00054B1B689847024B1B6808BD41000020D5
:10077C0010E000E014E000E048000020013949B22C
:10078C0004E04B1C425CC254013949B20029F8DA2E
:10079C0070470000084A13780849C85C08498870FB
:1007AC000848C05CC8700133DBB213700B2B02D944
:1007BC00134600221A7070474400002020000020CD
:1007CC006C0000202C00002008B50C4B7C221A7009
:1007DC0088225A70FFF7DEFF094B0422DA701A7078
:1007EC00102159735970012199701A7106229A734C
:1007FC00044B00221A705A7008BD00BF6C00002018
:10080C005400002050000020F0B58BB005460E4679
:10081C00254C05AFA446BCE80F000FC7DCF8003030
:10082C003B606F4614340FCC0FC723683B60002726
:10083C0016E00134E4B2092C10D80AAB03EB4703E1
:10084C0033F8143C234113F0010FF2D0B91960199D
:10085C001F22C9B2C0B200F087FCEAE70137FFB231
:10086C00092F01D80024E6E7002717E00134E4B291
:10087C00092C11D80AAB03EB470333F8283C23416E
:10088C0013F0010FF2D0B91960194FF6FF72C9B20B
:10089C00C0B200F069FCE9E70137FFB2092F01D8BB
:1008AC000024E5E70BB0F0BDAC140008F0B58BB03C
:1008BC0005460E46264C05AF04F1280CBCE80F008B
:1008CC000FC7DCF800303B606F463C340FCC0FC7D1
:1008DC0023683B60002716E00134E4B2092C10D8E1
:1008EC000AAB03EB470333F8143C234113F0010F1D
:1008FC00F2D0B91960191F22C9B2C0B200F034FC91
:10090C00EAE70137FFB2092F01D80024E6E70027F8
:10091C0017E00134E4B2092C11D80AAB03EB4703FE
:10092C0033F8283C234113F0010FF2D0B9196019A8
:10093C004FF6FF72C9B2C0B200F016FCE9E70137FE
:10094C00FFB2092F01D80024E5E70BB0F0BD00BFC2
:10095C00AC140008F0B58BB005460E46264C05AF1E
:10096C0004F1500CBCE80F000FC7DCF800303B6002
:10097C006F4664340FCC0FC723683B60002716E02A
:10098C000134E4B2092C10D80AAB03EB470333F85B
:10099C00143C234113F0010FF2D0B91960191F2236
:1009AC00C9B2C0B200F0E0FBEAE70137FFB2092F91
:1009BC0001D80024E6E7002717E00134E4B2092C43
:1009CC0011D80AAB03EB470333F8283C234113F04F
:1009DC00010FF2D0B91960194FF6FF72C9B2C0B24B
:1009EC0000F0C2FBE9E70137FFB2092F01D8002460
:1009FC00E5E70BB0F0BD00BFAC140008F0B58BB050
:100A0C0005460E46264C05AF04F1780CBCE80F00E9
:100A1C000FC7DCF800303B606F468C340FCC0FC72F
:100A2C0023683B60002716E00134E4B2092C10D88F
:100A3C000AAB03EB470333F8143C234113F0010FCB
:100A4C00F2D0B91960191F22C9B2C0B200F08CFBE8
:100A5C00EAE70137FFB2092F01D80024E6E70027A7
:100A6C0017E00134E4B2092C11D80AAB03EB4703AD
:100A7C0033F8283C234113F0010FF2D0B919601957
:100A8C004FF6FF72C9B2C0B200F06EFBE9E7013756
:100A9C00FFB2092F01D80024E5E70BB0F0BD00BF71
:100AAC00AC14000808B50A3A1E2A13D8DFE802F085
:100ABC00101212121212121212121312121212120B
:100ACC001212121216121212121212121212190001
:100ADC00FFF79AFE08BDFFF7E9FEFBE7FFF73AFFC9
:100AEC00F8E7FFF78BFFF5E7F8B507460E4600254C
:100AFC000DE0A919E0194FF4FC62C9B2C0B200F0C4
:100B0C0033FB0134E4B2092CF3D90135EDB2092DD4
:100B1C0001D80024F7E7F8BD10B582B00A4601F100
:100B2C000A0300F10A011F240094DBB2C9B200F0E1
:100B3C00DEFA02B010BD0000F0B587B007460E46D5
:100B4C0001AC124D0FCD0FC42B682360002517E0AC
:100B5C000134E4B2092C11D806AB03EB450333F88E
:100B6C00143C234113F0010FF2D0A919E0194FF4F2
:100B7C007842C9B2C0B200F0F7FAE9E70135EDB23C
:100B8C00092D01D80024E5E707B0F0BD4C1500088D
:100B9C0030B583B005464FF4FC6000F077FAE024E2
:100BAC0000949F2388227F21002000F0A0FA00945B
:100BBC009F2300220321104600F099FA00949F23F2
:100BCC0000227F217C2000F092FA00940523002261
:100BDC007F21104600F08BFA4FF6E0728E216E20CA
:100BEC0000F0FAFA124B18784FF6FF738E225A2146
:100BFC0000F07AFB00238E223A210E4800F0AEFB67
:100C0C004FF478438E220521284600F043FB0A4C12
:100C1C00207861780A22FFF745FF2079A17BFFF746
:100C2C007BFF064B9878D978FFF786FF03B030BD71
:100C3C005000002060150008540000206C000020BB
:100C4C0008B508210020FFF7E1FC30B9154B0A224A
:100C5C001A70154B01221A7008BD0A210020FFF7EB
:100C6C00D5FC30B90F4B14221A700F4B01221A709D
:100C7C00F2E70B210020FFF7C9FC30B9094B1E220B
:100C8C001A70094B01221A70E6E709210020FFF7C0
:100C9C00BDFC0028E0D1034B28221A70024B012224
:100CAC001A70D9E7420000204300002008B500204C
:100CBC0000F0ECF94FF4784350226421014800F025
:100CCC004DFB08BD7415000808B5FFF77DFD02202B
:100CDC00FFF75EFF0CE0FFF7B3FF094B1B78002B0F
:100CEC00F9D0FFF7ADFF00F011F80648FFF706FD4D
:100CFC00054B5B78002BF0D0FFF7D8FF08BD00BF89
:100D0C0043000020A08601005000002038B57F4B26
:100D1C001B780A3B1E2B22D8DFE803F0102121217F
:100D2C002121212121216721212121212121212161
:100D3C00792121212121212121218B00744CA3789F
:100D4C002344D878A3782344597BFFF7CDFEE07871
:100D5C00617BFFF7E1FE63780A33DBB263706C4BA7
:100D6C005A78D2B26B4B5B78083B9A4211DA684BDB
:100D7C005B78DBB2052B0CD9654B1A78D2B2654B7C
:100D8C001B78DBB29A4204D2614B1B78DBB2032B8B
:100D9C0002D8614B01225A705D4B1A78D2B25D4B6E
:100DAC009B78DBB29A4207D1594B5A78D2B2594B45
:100DBC00DB78DBB29A424ED0554C20786178534B9D
:100DCC001A78FFF76FFEA17849B2E01CFFF7D6FC4A
:100DDC00A17849B204F10D00FFF7D0FC2378DBB207
:100DEC00E3706378DBB2637338BD494CA37823445A
:100DFC00D878A3782344597BFFF776FEE078617BA3
:100E0C00FFF78AFE63780A3BDBB26370A7E7404CBE
:100E1C00A3782344D878A3782344597BFFF764FE46
:100E2C00E078617BFFF778FE23780A33DBB223701E
:100E3C0095E7374CA3782344D878A3782344597B7F
:100E4C00FFF752FEE078617BFFF766FE23780A3BE2
:100E5C00DBB2237083E72F4DA878E978FFF744FEC7
:100E6C002B4C20786178294B1A78FFF71BFEFFF783
:100E7C0091FCA878E978FFF75FFEE0228E215020E4
:100E8C0000F050FA244D2B780133DBB22B7028780C
:100E9C004FF6FF738E22502100F026FAA3782344DC
:100EAC00D878A3782344597BFFF736FEA378013317
:100EBC00DBB2A370A17849B2E01CFFF75FFCA1780C
:100ECC0049B204F10D00FFF759FC2378DBB2E37053
:100EDC006378DBB263732B78DBB2052B84D94FF6C6
:100EEC00E07000F0D3F8002364226E210B4800F070
:100EFC0035FA4FF4784350224021022000F0CAF911
:100F0C000748FFF7FBFBFFF7DFFE6DE74200002011
:100F1C00540000206C0000205000002068150008D0
:100F2C0040420F0008B5FFF74FFC0120FFF730FEE1
:100F3C000CE0FFF785FE094B1B78002BF9D0FFF76F
:100F4C007FFEFFF7E3FE0648FFF7D8FB054B5B7807
:100F5C00002BF0D0FFF7AAFE08BD00BF4300002015
:100F6C00400D03005000002008B5FFF72DFC0320B6
:100F7C00FFF70EFE0DE0FFF763FE094B1B78002B0D
:100F8C00F9D0FFF75DFEFFF7C1FE4CF25030FFF7D2
:100F9C00B5FB044B5B78002BEFD0FFF787FE08BD49
:100FAC00430000205000002008B5094B1B78DBB231
:100FBC000A2B07D8064B1B78DBB2052B05D8FFF79D
:100FCC00B1FF08BDFFF7D0FFFBE7FFF77DFEF8E7A9
:100FDC005000002010B582B00446012202210020EE
:100FEC00FFF7CAFA0DF107012046FFF767FB02B0C5
:100FFC0010BD10B582B00446002202211046FFF746
:10100C00BBFA0DF107012046FFF758FB02B010BDEB
:10101C0008B5012211460020FFF7AEFA6420FFF755
:10102C006DFB002201211046FFF7A6FA0120FFF705
:10103C0065FB012211460020FFF79EFA6420FFF7A2
:10104C005DFB002201211046FFF796FA6420FFF7A2
:10105C0055FB012211460020FFF78EFA0948FFF7D5
:10106C004DFB1120FFF7C5FF0748FFF747FB3A2060
:10107C00FFF7BFFF0520FFF7ADFF2920FFF7B9FFF2
:10108C0008BD00BFC0D40100F049020038B50546C8
:10109C002A20FFF7AEFF0020FFF79CFF0020FFF790
:1010AC0099FF0020FFF796FF7F20FFF793FF2B207F
:1010BC00FFF79FFF0020FFF78DFF0020FFF78AFF4F
:1010CC000020FFF787FF9F20FFF784FF2C20FFF7FE
:1010DC0090FF002407E0280AFFF77CFFE8B2FFF737
:1010EC0079FF0134A4B2B4F5A04FF4D338BD2DE987
:1010FC00F8438146884617461C46BDF820600B1AFB
:10110C00A51A013503FB0555ADB22A20FFF771FF77
:10111C000020FFF75FFF4846FFF75CFF0020FFF75A
:10112C0059FF4046FFF756FF2B20FFF762FF0020C8
:10113C00FFF750FF3846FFF74DFF0020FFF74AFF3F
:10114C002046FFF747FF2C20FFF753FF002407E052
:10115C00300AFFF73FFFF0B2FFF73CFF0134A4B2B7
:10116C00AC42F5D3BDE8F88310B582B04B1C441CDF
:10117C000092DBB20A46E1B2FFF7B9FF02B010BD34
:10118C002DE9F843894690461F464138C0EB0010C4
:10119C004300104E1E44002515E00134E4B2092C26
:1011AC000FD836F81530234113F0010FF5D005EBAD
:1011BC00080104EB09003A46C9B2C0B2FFF7D4FFEC
:1011CC00EBE70135EDB20E2D01D80024E7E7BDE8C1
:1011DC00F88300BFA81500082DE9F04186B08046C1
:1011EC000F4616466C46144D0FCD0FC495E8030000
:1011FC0044F8040B2180002517E00134E4B20A2CDA
:10120C0011D806AB03EB450333F8183C234113F01C
:10121C00010FF2D0E91904EB08003246C9B2C0B292
:10122C00FFF7A2FFE9E70135EDB20A2D01D8002442
:10123C00E5E706B0BDE8F081801500082DE9F8431C
:10124C00894690461F463038C0EB00104300104EC4
:10125C001E44002515E00134E4B2092C0FD836F8F1
:10126C001530234113F0010FF5D005EB080104EB09
:10127C0009003A46C9B2C0B2FFF776FFEBE7013579
:10128C00EDB20E2D01D80024E7E7BDE8F88300BFCE
:10129C00B41800082DE9F843894690461F46C0EB68
:1012AC00001043000F4E1E44002515E00134E4B23B
:1012BC00092C0FD836F81530234113F0010FF5D057
:1012CC0005EB080104EB09003A46C9B2C0B2FFF7BE
:1012DC004BFFEBE70135EDB20E2D01D80024E7E70B
:1012EC00BDE8F883B41800082DE9F0410E46174606
:1012FC0098460B4CA4FB0054E40804EB840C4FEA16
:10130C004C05401BC5B22046FFF7C4FFA6F10B01EC
:10131C0043463A46C9B22846FFF7BCFFBDE8F08108
:10132C00CDCCCCCCF0B583B004460E46174601F1BB
:10133C000F05EDB200F10A0100922B463246C9B2FC
:10134C00FFF7D5FE611EA4F10B0000972B46324629
:10135C00C9B2C0B2FFF7CBFE03B0F0BD2DE9F04728
:10136C0084B082460E4690461F464FF000092FE08F
:10137C006C46224B0FCB07C424F8023B1B0C23708A
:10138C00002516E00134E4B2092C10D804AB2B4430
:10139C0013F8103C234113F0010FF3D005EB0801B7
:1013AC0030193A46C9B2C0B2FFF7DEFEEAE70135A2
:1013BC00EDB20E2D06D80024E6E73B4642463146F8
:1013CC00FFF7DEFE0B3EF6B209F101095FFA89F96F
:1013DC001AF8090070B12028F4D03A28C8D0A0F12E
:1013EC003003DBB2092BE8D83B4642463146FFF7C7
:1013FC0025FFE7E704B0BDE8F08700BF98150008AB
:10140C0008B5FFF723F902210846FFF729F90C214B
:10141C000220FFF725F9082211460020FFF73AF8C1
:10142C00012208210020FFF7A7F808220A2100203A
:10143C00FFF730F801220A210020FFF79DF808225F
:10144C000B210020FFF726F801220B210020FFF7CB
:10145C0093F8082209210020FFF71CF8012209212A
:10146C000020FFF789F8022201210020FFF712F873
:10147C00022211460020FFF70DF809220521002059
:10148C00FFF708F8092207210020FFF703F8FFF700
:10149C002FF9FFF70BF9FFF7BBFDFFF785FDFEE713
:1014AC00FF03FF03FF0333033303FF03FE01FC00C1
:1014BC007800300000000000000084008400000070
:1014CC00000000000000000030007800FC00FE016D
:1014DC00FF0333033303FF03FF03FF03000000008C
:1014EC0000000000000084008400000000000000E8
:1014FC003F007F00E700E701FF03FF03E701E70080
:10150C007F003F00000000001800000000000000F9
:10151C000000180000000000F003F8039C039E0379
:10152C00FF03FF039E039C03F803F003000000007D
:10153C0060000000000000000000600000000000DF
:10154C00FC00FE01FF03FF03FF03FF03FE01780015
:10155C00300010004C4556454C00000055502054AE
:10156C004F204C4556454C0047414D45204F564564
:10157C0052000000F8002000200020002000FC0198
:10158C00FA02F904F904FA020401000000003030F8
:10159C0000000000000000303000000000000202DB
:1015AC000202020202020202FE03FE030202020215
:1015BC00060304018C01F80000000000FC03060285
:1015CC000202020202020602FC03060202020202EC
:1015DC0002020602FC0300000000FC00860102036C
:1015EC0000020002000200020002000200020203DC
:1015FC008601FC0000000000F00318020C02060239
:10160C000202020202020202020206020C0218028A
:10161C00F00300000000FE030002000200020002C2
:10162C000002FE0300020002000200020002FE03A0
:10163C000000000000020002000200020002000292
:10164C00FE0300020002000200020002FE03000082
:10165C000000FC0086010203020202027E027E02EE
:10166C0000020002000202038601FC0000000000E0
:10167C00020202020202020202020202FE03FE0344
:10168C000202020202020202020200000000FE0339
:10169C00FE0320002000200020002000200020005D
:1016AC0020002000FE03FE0300000000F8010C03E4
:1016BC0004020402040004000400040004000400FA
:1016CC000400FE03FE0300000000020202020202FC
:1016DC0006020C023802E003300218020C02060269
:1016EC000202020200000000FE03FE0300030003DE
:1016FC0000030003000300030003000300030003C6
:10170C0000030000000002020202020202020202B6
:10171C0022027202520252025202520252028C01F4
:10172C00000000000E020A020A021A023202220211
:10173C00220262024202C202820282028203000080
:10174C000000700088000401020202020202020280
:10175C000202020202020401880070000000000074
:10176C00000200020002000200020002FC0306025A
:10177C000202020202020602FC03000001007200D7
:10178C008C000C011202220202020202020202026C
:10179C000202040188007000000000000202040232
:1017AC00080210022002C003FC030602020202021D
:1017BC0002020602FC030000000078008400020113
:1017CC00020004000400F800800100010001020185
:1017DC008400780000000000200020002000200081
:1017EC002000200020002000200020002000FE030C
:1017FC00FE0300000000FC010601020302020202CB
:10180C0002020202020202020202020202020202AC
:10181C00000000002000D8008C0104010603020225
:10182C000202020202020202020202020202000090
:10183C0000008C0152025202520252025202220247
:10184C000202020202020202020202020000000074
:10185C0002020401040188008800500020002000CE
:10186C0050008800880004010202000000002000E3
:10187C002000200020002000200020007000D80054
:10188C0088008C010603020200000000FE03000227
:10189C0000018000400040002000200010000800E3
:1018AC0004000200FE030000000070008800040128
:1018BC0004010401040104010401040104010401F4
:1018CC008800700000000000F800200020002000BC
:1018DC002000200020002000200020002000A0007C
:1018EC00600000000000FC008000800080004000D0
:1018FC00200010000800040004000401880070009F
:10190C0000000000700088000401040004000800BE
:10191C00F0000800040004000401880070000000BE
:10192C00000004000400040004000400FE01040193
:10193C0084004400240014000C000400000000008B
:10194C007000880004010400040004000800F00189
:10195C000001000100010001FC010000000070000A
:10196C0088000401040104018801700100010001D8
:10197C0000010401880070000000000000018000DC
:10198C0080004000400020002000100010000800E3
:10199C0008000400FC010000000070008800040135
:1019AC000401040188007000880004010401040192
:1019BC008800700000000000700088000401040022
:1019CC000400040074008C0004010401040188006C
:0419DC007000000097
:1019E0007856341240000020000000000000000083
:1019F00000000000010203040607080900A24A04CF
:101A00002C40540E22684A185E362CFF1A6A56245F
:0C1A100042742E4C103860FF325476985F
:040000050800010DE1
:00000001FF
