:020000040800F2
:100000000050002021020008270200082B020008EF
:1000100043020008470200085F02000800000000D9
:10002000000000000000000000000000770200084F
:100030007B020008000000007F0200083109000870
:100040009102000891020008910200089102000844
:100050009102000891020008910200089102000834
:100060009102000891020008910200089102000824
:100070009102000891020008910200089102000814
:100080009102000891020008910200089102000804
:1000900091020008910200089102000891020008F4
:1000A00091020008910200089102000891020008E4
:1000B00091020008910200089102000891020008D4
:1000C00091020008910200089102000891020008C4
:1000D00091020008910200089102000891020008B4
:1000E000910200089102000891020008000000003F
:1000F0000000000000000000000000000000000000
:1001000000000000000000005FF808F100B583B0B7
:1001100000F0DEF8304B314A1360314A1360314B46
:10012000314A32498B4204D21168196004330432D7
:10013000F7E72A4B1A682E4B9A4200D0FEE7284B6D
:100140001A682C4B9A42F9D1234B2B4A13602B4A45
:1001500013602B4B02E000221A600433294A9342B9
:10016000F9D3254B1B6813B9244B1B6803B1FEE779
:1001700000F0BAF8694601A800F0A2F8224C234B1F
:10018000E41AA4100025AC4214DC214C214BE41AE3
:10019000A4100025AC4213DC0099019800F0E8FBA4
:1001A00005461D4C1D4BE41AA410002C0EDC2846FD
:1001B00000F084F8154B53F8253098470135E2E7F5
:1001C000144B53F8253098470135E3E7013C134BB6
:1001D00053F824309847E8E7BABADECA0000002096
:1001E0005000002000000020EC090008540000200E
:1001F0007856341232547698540000206000002063
:100200005400002064000020BC020008BC0200086A
:10021000BC020008BC020008BC020008BC020008C6
:1002200008B5FFF773FF00BEFEE71EF0040F0CBF1A
:10023000EFF30880EFF309807146124A104700BEC1
:10024000FEE700BEFEE71EF0040F0CBFEFF30880D0
:10025000EFF3098071460C4A104700BEFEE71EF01E
:10026000040F0CBFEFF30880EFF309807146074AD3
:10027000104700BEFEE700BEFEE700BEFEE700BE80
:10028000FEE770473F0200085B02000873020008A7
:0402900000BEFEE7C7
:10029400EC0900080000002054000020EC090008CC
:1002A4000000000000000000540000206400002052
:0802B400000000000000000042
:1002BC00FEE7000001230360014B0B60704700BF99
:1002CC000400002008B500F073F8024A024B9A6053
:1002DC0008BD00BF0000000800ED00E008B500F00C
:1002EC008FF808BD82B00023019300932C4A136849
:1002FC0043F4803313602A4B1B6803F400330093E0
:10030C00019B01330193009B1BB9019BB3F5A06FBB
:10031C00F1D1234B1B6813F4003F06D0012300934B
:10032C00009B012B04D002B0704700230093F7E729
:10033C001C4B1A6842F010021A601A6822F0030271
:10034C001A601A6842F002021A60A3F580535A68C8
:10035C005A605A685A605A6842F480625A605A6805
:10036C0022F47C125A605A6842F4E8125A601A68F5
:10037C0042F080721A600A4B1B6813F0007FFAD0AF
:10038C00074B5A6822F003025A605A6842F0020284
:10039C005A60034B5B6803F00C03082BF9D1C2E7DE
:1003AC00001002400020024008B5FFF79BFF08BD7B
:1003BC0008B5104B1A6842F001021A6059680E4ACF
:1003CC000A405A601A6822F0847222F480321A6051
:1003DC001A6822F480221A605A6822F4FE025A60CB
:1003EC004FF41F029A60FFF7DFFF044B4FF00062DF
:1003FC009A6008BD001002400000FFF800ED00E01C
:10040C001F4B5B6803F00C03042B15D0082B17D083
:10041C001BB11C4B1C4A1A6002E01A4B1A4A1A6098
:10042C00174B5B68C3F30313184AD35CDAB2154954
:10043C000B68D3400B607047124B134A1A60EFE7FE
:10044C000F4A53685268C3F38343023312F4803F5C
:10045C000AD00B4A526812F4003F0BD00C4A02FB34
:10046C0003F3084A1360DBE7094A02FB03F3054A6E
:10047C001360D5E7044A02FB03F3024A1360CFE78B
:10048C00001002401C00002000127A000C0000201A
:10049C0000093D0010B4012823D018B102283FD028
:1004AC0010BC704707290FD90F29F9D8A1F10804FE
:1004BC00A4000F23A3402A48016821EA030302FA8F
:1004CC0004F119430160EBE789000F2303FA01F0F3
:1004DC00244C236823EA000302FA01F1194321603A
:1004EC00DEE707290FD90F29DAD8A1F1080080001F
:1004FC000F2383401C4C216821EA030302FA00F10C
:10050C0019432160CCE789000F2303FA01F0174C43
:10051C00236823EA000302FA01F119432160BFE7C3
:10052C0007290FD90F29BBD8A1F108039B000F2075
:10053C0098400F4C216821EA000002FA03F10143B4
:10054C002160ADE789000F2303FA01F0094C236801
:10055C0023EA000302FA01F119432160A0E700BF6E
:10056C000408014000080140040C0140000C01404B
:10057C000410014000100140012818D010B10228CD
:10058C0029D07047012A0AD0002A2FD1012303FA5F
:10059C0001F11B4A136823EA01031360704701231E
:1005AC0003FA01F1164A13680B4313607047012AD2
:1005BC0009D0DAB9012303FA01F1124A136823EACC
:1005CC00010313607047012303FA01F10D4A13680C
:1005DC000B4313607047012A09D03AB9012303FA7F
:1005EC0001F1094A136823EA0103136070470123E0
:1005FC0003FA01F1044A13680B431360704700BF00
:10060C000C0801400C0C01400C10014008B50122F3
:10061C0000211046FFF7B0FF012211461046FFF7EC
:10062C00ABFF012205211046FFF7A6FF0122062190
:10063C001046FFF7A1FF012207211046FFF79CFF90
:10064C00012208211046FFF797FF012209211046CD
:10065C00FFF792FF01220A211046FFF78DFF08BD1C
:10066C0010B5044600F0010200210846FFF784FF94
:10067C00C4F3400201210020FFF77EFFC4F3800287
:10068C0002210020FFF778FFC4F3C00203210020F1
:10069C00FFF772FFC4F3001204210020FFF76CFF78
:1006AC00C4F3401205210020FFF766FFC4F380124B
:1006BC0006210020FFF760FFE20907210020FFF769
:1006CC005BFF10BD08B5022200210846FFF7E2FED1
:1006DC00022201210020FFF7DDFE0222114600203C
:1006EC00FFF7D8FE022203210020FFF7D3FE0222DF
:1006FC0004210020FFF7CEFE022205210020FFF787
:10070C00C9FE022206210020FFF7C4FE02220721A7
:10071C000020FFF7BFFE022200210120FFF7BAFEE6
:10072C00022201210846FFF7B5FE02220521012015
:10073C00FFF7B0FE022206210120FFF7ABFE0222DA
:10074C0007210120FFF7A6FE022208210120FFF756
:10075C00A1FE022209210120FFF79CFE02220A21A0
:10076C000120FFF797FE08BD10B50446FFF74EFFBA
:10077C002078FFF775FF002211460120FFF7FCFEE1
:10078C0040F6C41000F09AF8FFF740FF6078FFF7CE
:10079C0067FF002201210846FFF7EEFE40F6C41069
:1007AC0000F08CF8FFF732FFA078FFF759FF00221A
:1007BC0005210120FFF7E0FE40F6C41000F07EF8A2
:1007CC00FFF724FFE078FFF74BFF00220621012002
:1007DC00FFF7D2FE40F6C41000F070F8FFF716FFDA
:1007EC002079FFF73DFF002207210120FFF7C4FE0F
:1007FC0040F6C41000F062F8FFF708FF6079FFF7CD
:10080C002FFF002208210120FFF7B6FE40F6C4108E
:10081C0000F054F8FFF7FAFEA079FFF721FF002251
:10082C0009210120FFF7A8FE40F6C41000F046F89D
:10083C00FFF7ECFEE079FFF713FF00220A210120FD
:10084C00FFF79AFE40F6C41000F038F810BD000017
:10085C00034B4FF480321A60043301221A60704744
:10086C00001002401F291CD801280BD010B10228FF
:10087C0010D07047012303FA01F10A4A13680B43A5
:10088C0013607047012303FA01F1074A13680B4305
:10089C0013607047012303FA01F1044A13680B43F8
:1008AC0013607047141002401C10024018100240D4
:1008BC00014B00221A60704710E000E00D4B1860ED
:1008CC000D4A136843F0010313600B4B1B6813F4C0
:1008DC00803FFAD0084B1A6822F001021A601A689D
:1008EC0022F002021A600023024A136004321360E1
:1008FC00704700BF14E000E010E000E0064B186009
:10090C00064B1960064B1A6842F001021A601A680D
:10091C0042F002021A60704714E000E05C00002014
:10092C0010E000E008B5024B1B68984708BD00BFFB
:10093C005C00002008B50A4B1B7843B1012208214A
:10094C000020FFF719FE064B00221A7008BD00228A
:10095C0008211046FFF710FE014B01221A70F5E733
:10096C004C00002010B5FFF773FF02210846FFF77B
:10097C0079FF03210220FFF775FFFFF799FFFFF7BF
:10098C00A1FE022208210020FFF784FD0F49104828
:10099C00FFF7B4FF13E00F4B1868FFF7E5FE0134C7
:1009AC00132CF8D90C4B1B781C2B0AD801330A4A90
:1009BC001370094B1A78094B1344064A1360002430
:1009CC00EEE7054B00221A70F3E700BF410900085F
:1009DC00A0860100480000204C00002020000020D0
:1009EC00785634125800002000000000000000006F
:1009FC0000000000010203040607080900A24A04D3
:100A0C00010204F80402010000FC12111112FC0096
:100A1C0000FF1131519F0000FC12111112FC00005B
:100A2C00000000000000FFFF2000002001FFFFFF7E
:040A3C003254769822
:040000050800010DE1
:00000001FF
