:020000040800F2
:100000000050002021020008270200082B020008EF
:1000100043020008470200085F02000800000000D9
:10002000000000000000000000000000770200084F
:100030007B020008000000007F0200088302000825
:100040009102000891020008910200089102000844
:100050009102000891020008910200089102000834
:100060009102000891020008910200089102000824
:100070009102000891020008910200089102000814
:100080009102000891020008910200089102000804
:1000900091020008910200089102000891020008F4
:1000A00091020008910200089102000891020008E4
:1000B00091020008910200089102000891020008D4
:1000C00091020008910200089102000891020008C4
:1000D00091020008910200089102000891020008B4
:1000E000910200089102000891020008000000003F
:1000F0000000000000000000000000000000000000
:1001000000000000000000005FF808F100B583B0B7
:1001100000F0DEF8304B314A1360314A1360314B46
:10012000314A32498B4204D21168196004330432D7
:10013000F7E72A4B1A682E4B9A4200D0FEE7284B6D
:100140001A682C4B9A42F9D1234B2B4A13602B4A45
:1001500013602B4B02E000221A600433294A9342B9
:10016000F9D3254B1B6813B9244B1B6803B1FEE779
:1001700000F0BAF8694601A800F0A2F8224C234B1F
:10018000E41AA4100025AC4214DC214C214BE41AE3
:10019000A4100025AC4213DC0099019800F048FB44
:1001A00005461D4C1D4BE41AA410002C0EDC2846FD
:1001B00000F084F8154B53F8253098470135E2E7F5
:1001C000144B53F8253098470135E3E7013C134BB6
:1001D00053F824309847E8E7BABADECA0000002096
:1001E00020000020000000209409000824000020C6
:1001F0007856341232547698240000202C000020C7
:100200002400002030000020BC020008BC020008CE
:10021000BC020008BC020008BC020008BC020008C6
:1002200008B5FFF773FF00BEFEE71EF0040F0CBF1A
:10023000EFF30880EFF309807146124A104700BEC1
:10024000FEE700BEFEE71EF0040F0CBFEFF30880D0
:10025000EFF3098071460C4A104700BEFEE71EF01E
:10026000040F0CBFEFF30880EFF309807146074AD3
:10027000104700BEFEE700BEFEE700BEFEE700BE80
:10028000FEE770473F0200085B02000873020008A7
:0402900000BEFEE7C7
:1002940094090008000000202400002094090008AC
:1002A40000000000000000002400002030000020B6
:0802B400000000000000000042
:1002BC00FEE7000001230360014B0B60704700BF99
:1002CC000400002008B500F073F8024A024B9A6053
:1002DC0008BD00BF0000000800ED00E008B500F00C
:1002EC008FF808BD82B00023019300932C4A136849
:1002FC0043F4803313602A4B1B6803F400330093E0
:10030C00019B01330193009B1BB9019BB3F5A06FBB
:10031C00F1D1234B1B6813F4003F06D0012300934B
:10032C00009B012B04D002B0704700230093F7E729
:10033C001C4B1A6842F010021A601A6822F0030271
:10034C001A601A6842F002021A60A3F580535A68C8
:10035C005A605A685A605A6842F480625A605A6805
:10036C0022F47C125A605A6842F4E8125A601A68F5
:10037C0042F080721A600A4B1B6813F0007FFAD0AF
:10038C00074B5A6822F003025A605A6842F0020284
:10039C005A60034B5B6803F00C03082BF9D1C2E7DE
:1003AC00001002400020024008B5FFF79BFF08BD7B
:1003BC0008B5104B1A6842F001021A6059680E4ACF
:1003CC000A405A601A6822F0847222F480321A6051
:1003DC001A6822F480221A605A6822F4FE025A60CB
:1003EC004FF41F029A60FFF7DFFF044B4FF00062DF
:1003FC009A6008BD001002400000FFF800ED00E01C
:10040C001F4B5B6803F00C03042B15D0082B17D083
:10041C001BB11C4B1C4A1A6002E01A4B1A4A1A6098
:10042C00174B5B68C3F30313184AD35CDAB2154954
:10043C000B68D3400B607047124B134A1A60EFE7FE
:10044C000F4A53685268C3F38343023312F4803F5C
:10045C000AD00B4A526812F4003F0BD00C4A02FB34
:10046C0003F3084A1360DBE7094A02FB03F3054A6E
:10047C001360D5E7044A02FB03F3024A1360CFE78B
:10048C00001002401C00002000127A000C0000201A
:10049C0000093D0010B59AB06422002101A800F0BB
:1004AC00FFF9002407E000F0A9F91AAB234403F884
:1004BC00640C0134E4B2642CF5D9002301E001335F
:1004CC00DBB2622B0FD81AAA1A4412F8642C4F2AEA
:1004DC00F5D15A1C1AA90A4412F8642C4B2AEED1F5
:1004EC0001201AB010BD0020FBE7000008B5002069
:1004FC0004E0084800F070F9FFF7CCFF0028F8D0B2
:10050C00002004E0044800F067F9FFF7C3FF00285F
:10051C00F8D008BD500900085809000810B59AB069
:10052C006422002101A800F0BBF9002407E000F0D0
:10053C0065F91AAB234403F8640C0134E4B21AAB2A
:10054C00234413F8643CFF2BF1D10023622B10D809
:10055C0019461AAA1A4412F8642C3A2A02D001330A
:10056C00DBB2F3E701311AAB194411F8640C1AB081
:10057C0010BD0020FBE70000002040B908B504487E
:10058C0000F02AF9FFF786FF0028F8D008BD704765
:10059C0028090008002040B908B5044800F01CF9EF
:1005AC00FFF778FF0028F8D008BD7047FC0800085A
:1005BC0008B5002004E0064800F00EF9FFF76AFFCA
:1005CC000028F8D0034800F007F9FFF7A7FF08BD93
:1005DC00BC080008CC08000810B4012823D018B1BE
:1005EC0002283FD010BC704707290FD90F29F9D822
:1005FC00A1F10804A4000F23A3402A48016821EAB2
:10060C00030302FA04F119430160EBE789000F239D
:10061C0003FA01F0244C236823EA000302FA01F1E7
:10062C0019432160DEE707290FD90F29DAD8A1F188
:10063C00080080000F2383401C4C216821EA03032F
:10064C0002FA00F119432160CCE789000F2303FA69
:10065C0001F0174C236823EA000302FA01F1194355
:10066C002160BFE707290FD90F29BBD8A1F10803D7
:10067C009B000F2098400F4C216821EA000002FAE1
:10068C0003F101432160ADE789000F2303FA01F068
:10069C00094C236823EA000302FA01F11943216093
:1006AC00A0E700BF0408014000080140040C014011
:1006BC00000C01400410014000100140012818D02A
:1006CC0010B1022829D07047012A0AD0002A2FD154
:1006DC00012303FA01F11B4A136823EA0103136097
:1006EC007047012303FA01F1164A13680B43136098
:1006FC007047012A09D0DAB9012303FA01F1124A31
:10070C00136823EA010313607047012303FA01F114
:10071C000D4A13680B4313607047012A09D03AB98C
:10072C00012303FA01F1094A136823EA0103136058
:10073C007047012303FA01F1044A13680B43136059
:10074C00704700BF0C0801400C0C01400C1001401C
:10075C00034B4FF480321A60043301221A60704745
:10076C00001002401F291CD801280BD010B1022800
:10077C0010D07047012303FA01F10A4A13680B43A6
:10078C0013607047012303FA01F1074A13680B4306
:10079C0013607047012303FA01F1044A13680B43F9
:1007AC0013607047141002401C10024018100240D5
:1007BC00084B45229A60DA6842F00402DA60DA6883
:1007CC0042F00802DA60DA6842F40052DA60002281
:1007DC001A60704700380140002208E006494B605F
:1007EC00054B1B6813F0400FFAD00132D2B2835C78
:1007FC00002BF3D1704700BF003801400023084A9A
:10080C00126812F0200F07D101339BB242F2107222
:10081C009342F4D1FF207047014B5868C0B2704727
:10082C000038014008B5FFF793FF02210846FFF797
:10083C0099FF0E210220FFF795FF0B2209210020C2
:10084C00FFF7CAFE04220A210020FFF7C5FE022290
:10085C0000210846FFF7C0FEFFF7AAFFFFF746FE90
:10086C000B490C48FFF788FE0B490C48FFF792FE2A
:10087C0004E0012200210846FFF720FFFFF798FE55
:10088C003128F6D0002211461046FFF717FFF5E786
:10089C006809000878090008800900088409000824
:1008AC0003460244934200D1704703F8011BF9E759
:1008BC0041542B43495053454E443D34360D0A00A8
:1008CC0047455420687474703A2F2F696D746172A7
:1008DC006D796172612E667265657661722E636FD9
:1008EC006D2F7374617475732E7478740D0A000017
:1008FC0041542B43495053544152543D225443507C
:10090C00222C223136322E3235332E3135352E32E1
:10091C003236222C38300D0A0000000041542B4393
:10092C00574A41505F4355523D22626F6479222CE5
:10093C0022796172613031313136323033313730B6
:10094C00220D0A00415445300D0A000041542B433E
:10095C00574D4F44453D310D0A00000079617261DD
:10096C00303131313632303331373000626F6479A7
:10097C0000000000383000003136322E3235332E74
:08098C003135352E3232360000
:1009940078563412280000200000000000000000F7
:1009A40000000000010203040607080900A24A042B
:0409B40032547698AB
:040000050800010DE1
:00000001FF
