:020000040800F2
:100000000050002021020008270200082B020008EF
:1000100043020008470200085F02000800000000D9
:10002000000000000000000000000000770200084F
:100030007B020008000000007F020008190600088B
:100040009102000891020008910200089102000844
:100050009102000891020008AD040008C9040008DC
:100060009102000891020008910200089102000824
:100070009102000891020008910200089102000814
:100080009102000891020008910200089102000804
:1000900091020008910200089102000891020008F4
:1000A00091020008910200089102000891020008E4
:1000B00091020008910200089102000891020008D4
:1000C00091020008910200089102000891020008C4
:1000D00091020008910200089102000891020008B4
:1000E000910200089102000891020008000000003F
:1000F0000000000000000000000000000000000000
:1001000000000000000000005FF808F100B583B0B7
:1001100000F0DEF8304B314A1360314A1360314B46
:10012000314A32498B4204D21168196004330432D7
:10013000F7E72A4B1A682E4B9A4200D0FEE7284B6D
:100140001A682C4B9A42F9D1234B2B4A13602B4A45
:1001500013602B4B02E000221A600433294A9342B9
:10016000F9D3254B1B6813B9244B1B6803B1FEE779
:1001700000F0BAF8694601A800F0A2F8224C234B1F
:10018000E41AA4100025AC4214DC214C214BE41AE3
:10019000A4100025AC4213DC0099019800F05AFA33
:1001A00005461D4C1D4BE41AA410002C0EDC2846FD
:1001B00000F084F8154B53F8253098470135E2E7F5
:1001C000144B53F8253098470135E3E7013C134BB6
:1001D00053F824309847E8E7BABADECA0000002096
:1001E00020000020000000207806000824000020E5
:1001F0007856341232547698240000207000002083
:100200002400002074000020BC020008BC0200088A
:10021000BC020008BC020008BC020008BC020008C6
:1002200008B5FFF773FF00BEFEE71EF0040F0CBF1A
:10023000EFF30880EFF309807146124A104700BEC1
:10024000FEE700BEFEE71EF0040F0CBFEFF30880D0
:10025000EFF3098071460C4A104700BEFEE71EF01E
:10026000040F0CBFEFF30880EFF309807146074AD3
:10027000104700BEFEE700BEFEE700BEFEE700BE80
:10028000FEE770473F0200085B02000873020008A7
:0402900000BEFEE7C7
:1002940078060008000000202400002078060008EA
:1002A4000000000000000000240000207400002072
:0802B400000000000000000042
:1002BC00FEE7000001230360014B0B60704700BF99
:1002CC000400002008B500F073F8024A024B9A6053
:1002DC0008BD00BF0000000800ED00E008B500F00C
:1002EC008FF808BD82B00023019300932C4A136849
:1002FC0043F4803313602A4B1B6803F400330093E0
:10030C00019B01330193009B1BB9019BB3F5A06FBB
:10031C00F1D1234B1B6813F4003F06D0012300934B
:10032C00009B012B04D002B0704700230093F7E729
:10033C001C4B1A6842F010021A601A6822F0030271
:10034C001A601A6842F002021A60A3F580535A68C8
:10035C005A605A685A605A6842F480625A605A6805
:10036C0022F47C125A605A6842F4E8125A601A68F5
:10037C0042F080721A600A4B1B6813F0007FFAD0AF
:10038C00074B5A6822F003025A605A6842F0020284
:10039C005A60034B5B6803F00C03082BF9D1C2E7DE
:1003AC00001002400020024008B5FFF79BFF08BD7B
:1003BC0008B5104B1A6842F001021A6059680E4ACF
:1003CC000A405A601A6822F0847222F480321A6051
:1003DC001A6822F480221A605A6822F4FE025A60CB
:1003EC004FF41F029A60FFF7DFFF044B4FF00062DF
:1003FC009A6008BD001002400000FFF800ED00E01C
:10040C001F4B5B6803F00C03042B15D0082B17D083
:10041C001BB11C4B1C4A1A6002E01A4B1A4A1A6098
:10042C00174B5B68C3F30313184AD35CDAB2154954
:10043C000B68D3400B607047124B134A1A60EFE7FE
:10044C000F4A53685268C3F38343023312F4803F5C
:10045C000AD00B4A526812F4003F0BD00C4A02FB34
:10046C0003F3084A1360DBE7094A02FB03F3054A6E
:10047C001360D5E7044A02FB03F3024A1360CFE78B
:10048C00001002401C00002000127A000C0000201A
:10049C0000093D00014B43F8201070472C00002050
:1004AC0008B5044B1B689847034A536943F0010392
:1004BC00536108BD2C0000200004014008B5044B1A
:1004CC005B689847034A536943F00203536108BDC4
:1004DC002C00002000040140012818D010B1022883
:1004EC0029D07047012A0AD0002A2FD1012303FA00
:1004FC0001F11B4A136823EA0103136070470123BF
:10050C0003FA01F1164A13680B4313607047012A72
:10051C0009D0DAB9012303FA01F1124A136823EA6C
:10052C00010313607047012303FA01F10D4A1368AC
:10053C000B4313607047012A09D03AB9012303FA1F
:10054C0001F1094A136823EA010313607047012380
:10055C0003FA01F1044A13680B431360704700BFA0
:10056C000C0801400C0C01400C100140034B4FF4E3
:10057C0080321A60043301221A6070470010024066
:10058C001F291CD801280BD010B1022810D070479D
:10059C00012303FA01F10A4A13680B4313607047F5
:1005AC00012303FA01F1074A13680B4313607047E8
:1005BC00012303FA01F1044A13680B4313607047DB
:1005CC00141002401C100240181002400D4B186011
:1005DC000D4A136843F0010313600B4B1B6813F4B3
:1005EC00803FFAD0084B1A6822F001021A601A6890
:1005FC0022F002021A600023024A136004321360D4
:10060C00704700BF14E000E010E000E008B5024BBA
:10061C001B68984708BD00BF6C00002010B5012274
:10062C0002210020FFF758FF064C2046FFF7CEFFB3
:10063C00002202211046FFF74FFF2046FFF7C6FFAE
:10064C0010BD00BF40420F0008B5FFF78FFF02211D
:10065C000846FFF795FF00210220FFF791FF0249A2
:0C066C000020FFF717FF08BD290600085A
:100678007856341228000020000000000000000016
:1006880000000000010203040607080900A24A044A
:0406980032547698CA
:040000050800010DE1
:00000001FF
