:020000040800F2
:100000000050002021020008270200082B020008EF
:1000100043020008470200085F02000800000000D9
:10002000000000000000000000000000770200084F
:100030007B020008000000007F020008693400080D
:100040009102000891020008910200089102000844
:100050009102000891020008910200089102000834
:100060009102000891020008910200089102000824
:100070009102000891020008910200089102000814
:100080009102000891020008910200089102000804
:1000900091020008910200089102000891020008F4
:1000A00091020008910200089102000891020008E4
:1000B00091020008910200089102000891020008D4
:1000C00091020008910200089102000891020008C4
:1000D00091020008910200089102000891020008B4
:1000E000910200089102000891020008000000003F
:1000F0000000000000000000000000000000000000
:1001000000000000000000005FF808F100B583B0B7
:1001100000F0DEF8304B314A1360314A1360314B46
:10012000314A32498B4204D21168196004330432D7
:10013000F7E72A4B1A682E4B9A4200D0FEE7284B6D
:100140001A682C4B9A42F9D1234B2B4A13602B4A45
:1001500013602B4B02E000221A600433294A9342B9
:10016000F9D3254B1B6813B9244B1B6803B1FEE779
:1001700000F0BAF8694601A800F0A2F8224C234B1F
:10018000E41AA4100025AC4214DC214C214BE41AE3
:10019000A4100025AC4213DC0099019804F078FE0D
:1001A00005461D4C1D4BE41AA410002C0EDC2846FD
:1001B00000F084F8154B53F8253098470135E2E7F5
:1001C000144B53F8253098470135E3E7013C134BB6
:1001D00053F824309847E8E7BABADECA0000002096
:1001E000EC03002000000020D05B0008F00300209A
:1001F0007856341232547698F0030020B40400206C
:10020000F0030020B8040020BC020008BC02000873
:10021000BC020008BC020008BC020008BC020008C6
:1002200008B5FFF773FF00BEFEE71EF0040F0CBF1A
:10023000EFF30880EFF309807146124A104700BEC1
:10024000FEE700BEFEE71EF0040F0CBFEFF30880D0
:10025000EFF3098071460C4A104700BEFEE71EF01E
:10026000040F0CBFEFF30880EFF309807146074AD3
:10027000104700BEFEE700BEFEE700BEFEE700BE80
:10028000FEE770473F0200085B02000873020008A7
:0402900000BEFEE7C7
:10029400D05B000800000020F0030020D05B0008C1
:1002A4000000000000000000F0030020B80400205B
:0802B400000000000000000042
:1002BC00FEE7000001230360014B0B60704700BF99
:1002CC000400002008B500F073F8024A024B9A6053
:1002DC0008BD00BF0000000800ED00E008B500F00C
:1002EC008FF808BD82B00023019300932C4A136849
:1002FC0043F4803313602A4B1B6803F400330093E0
:10030C00019B01330193009B1BB9019BB3F5A06FBB
:10031C00F1D1234B1B6813F4003F06D0012300934B
:10032C00009B012B04D002B0704700230093F7E729
:10033C001C4B1A6842F010021A601A6822F0030271
:10034C001A601A6842F002021A60A3F580535A68C8
:10035C005A605A685A605A6842F480625A605A6805
:10036C0022F47C125A605A6842F4E8125A601A68F5
:10037C0042F080721A600A4B1B6813F0007FFAD0AF
:10038C00074B5A6822F003025A605A6842F0020284
:10039C005A60034B5B6803F00C03082BF9D1C2E7DE
:1003AC00001002400020024008B5FFF79BFF08BD7B
:1003BC0008B5104B1A6842F001021A6059680E4ACF
:1003CC000A405A601A6822F0847222F480321A6051
:1003DC001A6822F480221A605A6822F4FE025A60CB
:1003EC004FF41F029A60FFF7DFFF044B4FF00062DF
:1003FC009A6008BD001002400000FFF800ED00E01C
:10040C001F4B5B6803F00C03042B15D0082B17D083
:10041C001BB11C4B1C4A1A6002E01A4B1A4A1A6098
:10042C00174B5B68C3F30313184AD35CDAB2154954
:10043C000B68D3400B607047124B134A1A60EFE7FE
:10044C000F4A53685268C3F38343023312F4803F5C
:10045C000AD00B4A526812F4003F0BD00C4A02FB34
:10046C0003F3084A1360DBE7094A02FB03F3054A6E
:10047C001360D5E7044A02FB03F3024A1360CFE78B
:10048C00001002401C00002000127A000C0000201A
:10049C0000093D0008B54FF6FF7003F05FFC002328
:1004AC00902255211C4803F0CFFD002380225A21B5
:1004BC001A4803F0C9FD002370226421184803F088
:1004CC00C3FD002360225021164803F0BDFD00231C
:1004DC0050226921144803F0B7FD002340225A2111
:1004EC00124803F0B1FD002330225F21104803F0C5
:1004FC00ABFD002320225A210E4803F0A5FD00235A
:10050C0010226E210C4803F09FFD00231A46502147
:10051C000A4803F099FD08BD5C4F0008644F0008C1
:10052C006C4F0008784F0008804F00088C4F000873
:10053C00944F00089C4F0008A44F0008B04F0008CF
:10054C0008B50821002001F03FF918B9124B1B78AF
:10055C00082B13D90A21002001F036F910B90E4BE3
:10056C001B7893B90C21002001F02EF960B90B4BCC
:10057C0032221A700A4B01221A7005E0074B0A222C
:10058C001A70074B01221A7008BD044B14221A7002
:10059C00034B01221A70F7E720000020F50300201E
:1005AC00F603002010B582B0044651B1012917D0D2
:1005BC00092C2AD8DFE804F0635C554E47403932E9
:1005CC002B23431C1B0102014FF6FF71009103F01A
:1005DC00F00302F0F0028021002003F0F0FBE7E7CB
:1005EC00431C1B01020140F29F51009103F0F003E8
:1005FC0002F0F0028021002003F0E1FBD8E7002399
:10060C0090225521214803F01FFD02B010BD00239C
:10061C0080225A211E4803F017FDF6E700237022B2
:10062C0064211C4803F010FDEFE7002360225021E9
:10063C00194803F009FDE8E7002350226921174807
:10064C0003F002FDE1E7002340225A21144803F095
:10065C00FBFCDAE7002330225F21124803F0F4FCA4
:10066C00D3E7002320225A210F4803F0EDFCCCE7FE
:10067C00002310226E210D4803F0E6FCC5E7002391
:10068C001A4650210A4803F0DFFCBEE75C4F000815
:10069C00644F00086C4F0008784F0008804F00082A
:1006AC008C4F0008944F00089C4F0008A44F000882
:1006BC00B04F000808B5144B1B78092B08D8DFE89D
:1006CC0003F0201D1A1714110E0B080503F0DCFAA9
:1006DC0008BD03F0C3FFFBE700F082FAF8E700F077
:1006EC00F9FBF5E704F006FBF2E701F02BFEEFE770
:1006FC0000F0A0FEECE702F0D5FCE9E702F0C0F94F
:10070C00E6E701F071F9E3E72000002010B5FFF7F0
:10071C00C1FE0121224B1878FFF744FF04E0FFF7DC
:10072C000FFF204802F07AFE1F4B1B78002BF6D0EF
:10073C001E4B1B78142B17D0322B25D00A2B03D031
:10074C00194B00221A70EFE7154C00212078FFF7A7
:10075C0029FF20780130C0B220700121FFF722FF61
:10076C00124B00221A70EBE70D4C00212078FFF79A
:10077C0019FF20780138C0B220700121FFF712FF59
:10078C000A4B00221A70DBE7FFF794FF084802F0CF
:10079C0045FE0023054A1370034A137010BD00BFB9
:1007AC0020000020400D0300F6030020F50300207C
:1007BC0080841E0000B583B0002003F0CFFA4FF602
:1007CC00FF7300939F238F227F21002003F0F7FA01
:1007DC0000238F226E21074803F036FC4FF4784338
:1007EC008F2232210448007803F0E6FB03B05DF859
:1007FC0004FB00BFC84F0008F703002010B582B0FF
:10080C004B1CDB00023BC9008C1C811C090102390A
:10081C0000010230009203F0FE0304F0FE0201F02E
:10082C00FE0100F0FE0003F0CAFA02B010BD000099
:10083C0070B51125002614E00234E4B2072C0CD854
:10084C000A4B03EBC5031B5D012BF5D14FF4FC6286
:10085C0031462046FFF7D2FFEEE70136F6B2013DF6
:10086C006DB2002D01DB0024E8E770BD24000020F0
:10087C002DE9F04782B004460D464FEA001A5FFAA4
:10088C008AFA461C3601F6B24FEAC1095FFA89F9B9
:10089C004F1CFF00FFB24FF01F08CDF800803B4605
:1008AC004A463146504603F08AFA0235ED00EDB265
:1008BC00CDF800802B463A463146504603F07FFA7D
:1008CC0002342401E4B2CDF800803B464A4621466E
:1008DC00304603F074FACDF800802B463A46214698
:1008EC00304603F06CFA02B0BDE8F087F0B585B085
:1008FC0007460E46134B0FCB04AC04E90F00002542
:10090C0019E00134E4B20F2C13D804AB03EB45030C
:10091C0033F8103C234113F0010FF2D005EBC60164
:10092C0004EB07104FF47842C9B2C0B203F084FA5A
:10093C00E7E70135EDB2072D01D80024E3E705B058
:10094C00F0BD00BFB84F0008064B93F90030012BE7
:10095C0003D0044B01221A707047024B00221A700C
:10096C00704700BFB4000020064B93F90030012BF8
:10097C0003D0044B01221A707047024B00221A70EC
:10098C00704700BFB500002008B5204B93F900302C
:10099C00012B09D083B91E4B93F90030062B0BDCCD
:1009AC0001331B4A137007E0194A92F90020002A00
:1009BC00F0DD013A164B1A70164B93F90030012BEF
:1009CC001AD03BB9144B93F90030022B02DD013BDA
:1009DC00114A13700E4B93F900300BB1072B01D158
:1009EC00FFF7B2FF0C4B93F90030022B01D0112B07
:1009FC0001D1FFF7B9FF08BD074A92F90020102A70
:100A0C00DFDC0132044B1A70E4E700BFB4000020B5
:100A1C00B6000020B5000020B800002070B582B0F0
:100A2C0004460D4610F0010F1FD04B1CDB00CA0012
:100A3C00411C09010F3000010026009603F0F80359
:100A4C0002F0F80201F0F00100F0F00003F0B7F949
:100A5C00C5F11105C4F10702134B03EBC505AE54E8
:100A6C00C4F108042E5502B070BD4B1CDB00CA004B
:100A7C00811C090100010026009603F0F80302F026
:100A8C00F80201F0F00100F0F00003F098F9C5F164
:100A9C001105C4F10702044B03EBC505AE54C4F1B8
:100AAC0006042E55DFE700BF240000202DE9F04797
:100ABC0082B004460D464FEA001A5FFA8AFA461CC9
:100ACC003601F6B24FEAC1095FFA89F94F1CFF00F3
:100ADC00FFB24FF00008CDF800803B464A46314645
:100AEC00504603F06CF90235ED00EDB2CDF8008004
:100AFC002B463A463146504603F061F90234240144
:100B0C00E4B2CDF800803B464A462146304603F01D
:100B1C0056F9CDF800802B463A462146304603F074
:100B2C004EF902B0BDE8F08738B50821002000F07E
:100B3C004BFE00B938BD0A21002000F045FE00280C
:100B4C00F8D00B21002000F03FFE98B109210020C5
:100B5C0000F03AFE0028EDD10D4D0E4C297820788E
:100B6C00FFF7A4FF20780138C0B220702978FFF776
:100B7C007FFEDFE7064D074C29782078FFF796FFBC
:100B8C0020780130C0B220702978FFF771FED1E7D0
:100B9C00F8030020B700002038B50D4D0D4C297816
:100BAC002078FFF73BFF29780239C9B22078FFF78C
:100BBC009DFE094802F032FC002003F0CFF84FF400
:100BCC00784350226421054803F03EFA38BD00BF3B
:100BDC00B8000020B6000020400D0300D04F0008E4
:100BEC0038B5FFF7E7FDFFF723FE2A4B19782A4BA0
:100BFC001878FFF73DFE294B1978294B1878FFF729
:100C0C0075FE1EE0264CC9B22078FFF707FFFFF7F0
:100C1C00BBFE224D29782078FFF768FEFFF784FF92
:100C2C0095F90020C2F1110194F90030C3F10703CA
:100C3C001C4A02EBC102D35C012B15D01A4802F0FE
:100C4C00EDFB164B93F900100229DBD1124B93F9F3
:100C5C000030134A92F900209342D3D001339A42C8
:100C6C00D0D0FFF799FF38BD4FF6FF728F2132209D
:100C7C0003F0CEF90D4B18780130C0B218704FF458
:100C8C0078438F22322103F097F9FFF75DFEFFF7CF
:100C9C006BFED3E7F8030020B7000020B80000205B
:100CAC00B600002024000020A0860100F7030020DD
:100CBC0010B582B04FF4FC6003F050F843F2861389
:100CCC0000939F2300225F211F2003F078F84FF63A
:100CDC00FF7400949F2300221F211D2003F06FF846
:100CEC0000949F23002261215F2003F068F802B07A
:100CFC0010BD000008B50821002000F065FD30B9DA
:100D0C00134B0A221A70134B01221A7008BD0B21C7
:100D1C00002000F059FD18B90F4B1B78042B10D98B
:100D2C000921002000F050FD0028EFD10A4B1B7860
:100D3C00022BEBD9064B28221A70064B01221A7093
:100D4C00E4E7034B1E221A70024B01221A70DDE7F6
:100D5C00F9030020FA030020B90000202DE9F0412E
:100D6C0090B005460E469046294C08AFA446BCE808
:100D7C000F000FC79CE80F0087E80F006F46203468
:100D8C000FCC0FC794E80F0087E80F00002718E07E
:100D9C000134E4B20F2C12D810AB03EB470333F839
:100DAC00203C234113F0010FF2D007EB061104EBAA
:100DBC0005104246C9B2C0B203F03EF8E8E701376D
:100DCC00FFB20F2F01D80024E4E7002718E001340C
:100DDC00E4B20F2C12D810AB03EB470333F8403CB2
:100DEC00234113F0010FF2D007EB061104EB0510B1
:100DFC000022C9B2C0B203F01FF8E8E70137FFB216
:100E0C000F2F01D80024E4E710B0BDE8F08100BF3B
:100E1C00DC4F000810B582B04B1C1B010A01411CB1
:100E2C000901000143F28614009403F0F00302F070
:100E3C00F00201F0F00100F0F00002F0C0FF02B08F
:100E4C0010BD000038B5002517E00134E4B2032CC6
:100E5C0011D8C5F10902C4F103030A4901EB82025E
:100E6C00D35C012BF1D1A01C40F29F122946C0B2D9
:100E7C00FFF774FFE9E70135EDB2092D01D8002425
:100E8C00E5E738BDBC00002010B40E4B1978C1F159
:100E9C0009040D4B1A78C2F105000C4B03EB8403CB
:100EAC001B5C012B03D0022A05D010BC7047084BE9
:100EBC0001221A70F9E70929F7D1054B64221A703F
:100ECC00F3E700BFFC030020B9000020BC000020A9
:100EDC00FB03002030B583B0FFF7EAFEFFF7B2FF4B
:100EEC004FF47842404B1978404B1878FFF736FF97
:100EFC0013E0FFF7FFFE3E4802F090FA3D4B1B78E3
:100F0C00002BF6D03C4B1B781E2B31D0282B44D019
:100F1C000A2B18D0374B00221A70384B1B78002B39
:100F2C00ECD0642B4ED000200090642346227F210D
:100F3C0002F045FF4FF4784350226421304803F00F
:100F4C0083F803B030BD284C284D21782878FFF762
:100F5C0061FF287821780131C9B221704FF47842B1
:100F6C00FFF7FCFEFFF790FF234B00221A70D1E72E
:100F7C001D4D1E4C29782078FFF74CFF207801304E
:100F8C00C0B220704FF478422978FFF7E7FEFFF7E4
:100F9C007BFF194B00221A70BCE7134D134C2978B8
:100FAC002078FFF737FF20780138C0B220704FF45B
:100FBC0078422978FFF7D2FEFFF766FF0E4B00222E
:100FCC001A70A7E74FF6FF730093642346227F2124
:100FDC00002002F0F4FE4FF6E07350226421094821
:100FEC0003F032F8ADE700BFFC030020B90000208D
:100FFC00400D0300FA030020F9030020FB0300203E
:10100C00D04F00081C50000808B50821002000F043
:10101C00DBFB30B9134B0A221A70134B01221A70E6
:10102C0008BD0B21002000F0CFFB18B90F4B1B782B
:10103C00062B10D90921002000F0C6FB0028EFD1A7
:10104C000A4B1B78002BEBD0064B28221A70064B50
:10105C0001221A70E4E7034B1E221A70024B012284
:10106C001A70DDE700040020010400202401002098
:10107C0010B582B04B1C1B010901441C240100015A
:10108C00009203F0F00301F0F00204F0F00100F024
:10109C00F00002F094FE02B010BD00002DE9F0410A
:1010AC0098B005460E46454C10AFA446BCE80F0060
:1010BC000FC79CE80F0087E80F0008AF04F1200C65
:1010CC00BCE80F000FC79CE80F0087E80F006F46C5
:1010DC0040340FCC0FC794E80F0087E80F000027AF
:1010EC0015E00134E4B20F2C0FD848FA04F313F0D6
:1010FC00010FF6D007EB061104EB05104FF640621A
:10110C00C9B2C0B202F098FEEBE70137FFB20F2F65
:10111C0009D818AB03EB470333F8208CB8F1000F58
:10112C00F3D00024DFE7002714E00134E4B20F2CE5
:10113C000ED848FA04F313F0010FF6D007EB0611A2
:10114C0004EB05103F22C9B2C0B202F075FEECE709
:10115C000137FFB20F2F09D818AB03EB470333F855
:10116C00408CB8F1000FF3D00024E0E7002715E025
:10117C000134E4B20F2C0FD848FA04F313F0010F2A
:10118C00F6D007EB061104EB05104FF6FF72C9B24F
:10119C00C0B202F051FEEBE70137FFB20F2F09D8B6
:1011AC0018AB03EB470333F8608CB8F1000FF3D0A6
:1011BC000024DFE718B0BDE8F08100BF285000081C
:1011CC002DE9F04188B080460F466C46154D0FCD89
:1011DC000FC495E80F0084E80F00002514E00134DB
:1011EC00E4B20F2C0ED846FA04F313F0010FF6D02C
:1011FC0005EB071104EB08100022C9B2C0B202F0D3
:10120C001BFEECE70135EDB20F2D08D808AB03EB54
:10121C00450333F8206C002EF4D00024E1E708B02D
:10122C00BDE8F08188500008F8B5074604261AE09E
:10123C00FFF7C6FF0134E4B2072C12D83146C6F1D1
:10124C0007022046C4F10703094D05EBC202D35C2B
:10125C00012BEFD10A2FEBD0142FEBD1FFF71EFF90
:10126C00E8E70136F6B2072E01D80024E4E7F8BD12
:10127C00E40000202DE9F04188B080460F466C4612
:10128C00164D0FCD0FC495E80F0084E80F00002514
:10129C0015E00134E4B20F2C0FD846FA04F313F026
:1012AC00010FF6D005EB071104EB081046F22C32B7
:1012BC00C9B2C0B202F0C0FDEBE70135EDB20F2DA3
:1012CC0008D808AB03EB450333F8206C002EF4D0A0
:1012DC000024E0E708B0BDE8F08100BFA85000088A
:1012EC0000B583B0002002F039FD43F219030093DE
:1012FC00A02380221146002002F061FD00238C22E5
:10130C006E210B4802F0A0FE4FF6FF738C222821B1
:10131C000848007802F050FE074B1978074B1878F4
:10132C00FFF7A8FF1420FFF77FFF03B05DF804FB65
:10133C000851000802040020FE03002024010020B4
:10134C002DE9F04188B080460F466C46164D0FCD06
:10135C000FC495E80F0084E80F00002515E0013458
:10136C00E4B20F2C0FD846FA04F313F0010FF6D0A9
:10137C0005EB071104EB081043F21902C9B2C0B215
:10138C0002F05AFDEBE70135EDB20F2D08D808AB92
:10139C0003EB450333F8206C002EF4D00024E0E777
:1013AC0008B0BDE8F08100BFC850000808B50020A7
:1013BC0002F0D4FC4FF4784350226421014802F02F
:1013CC0043FE08BDD04F00082DE9F04188B080469F
:1013DC000F466C46164D0FCD0FC495E80F0084E8F0
:1013EC000F00002515E00134E4B20F2C0FD846FA9B
:1013FC0004F313F0010FF6D005EB071104EB081002
:10140C004DF6E652C9B2C0B202F016FDEBE701355B
:10141C00EDB20F2D08D808AB03EB450333F8206C65
:10142C00002EF4D00024E0E708B0BDE8F08100BF46
:10143C00E850000830B583B0FFF752FF32E00022CD
:10144C00C9B2774B1878FFF713FE54E0744B93F93D
:10145C000000744B1B78984214D00022C9B2C0B261
:10146C00FFF706FE6E4B93F90030062B02DD6C4B3A
:10147C0000221A706A4A1378013313706A4B0422E3
:10148C001A7041E0694B64221A70694B1B781E2B51
:10149C0000F09080282B00F09F800A2B7AD0654BAF
:1014AC0000221A70614B1B781F2B19D9202B00F0CE
:1014BC00A580FFF77BFF03B030BDC1F107035E4A87
:1014CC001078C0F107045D4A02EBC3031B5D012BCE
:1014DC0039D007295AD0FFF797FD594801F09EFFE4
:1014EC00544B1B78002BD0D14F4B93F90010002993
:1014FC00ACDD0429A3D14A4B18784B4B1978013930
:10150C00C9B21970FFF760FF4E4B19784B1EDBB256
:10151C00052BD2D8C1F10703474A1078C0F1070454
:10152C00464A02EBC3031B5D012BC6D00022FFF71A
:10153C009FFD414B1878434B19780131C9B2197092
:10154C00FFF7FEFEC7E70022FFF792FD3D4C227825
:10155C00C2F10701384B1B78C3F10703374A02EB82
:10156C00C1020025D55443F219028C21282002F027
:10157C004FFD2E4B18780130C0B218704FF6FF7328
:10158C008C22282102F018FD2570A4E70022FFF719
:10159C006FFDA0E7234B1878274B18702A4B19784E
:1015AC000131C9B2274B1970FFF7CAFE204B00223C
:1015BC001A7074E7244D1B4C002229782078FFF711
:1015CC0057FD20780130C0B220702978FFF752FE09
:1015DC00174B00221A7062E71B4D124C002229781F
:1015EC002078FFF745FD20780138C0B220702978AB
:1015FC00FFF740FE0E4B00221A7050E74FF6FF73B8
:10160C000093642346227F21002002F0D8FB4FF682
:10161C00E073502264210D4802F016FD4BE700BF29
:10162C0025010020240100202601002002040020B6
:10163C000004002001040020FD030020E400002031
:10164C00400D0300FF030020FE0300201C50000887
:10165C0010B4012823D018B102283FD010BC704719
:10166C0007290FD90F29F9D8A1F10804A4000F23D9
:10167C00A3402A48016821EA030302FA04F1194342
:10168C000160EBE789000F2303FA01F0244C236877
:10169C0023EA000302FA01F119432160DEE707296E
:1016AC000FD90F29DAD8A1F1080080000F2383404D
:1016BC001C4C216821EA030302FA00F11943216052
:1016CC00CCE789000F2303FA01F0174C236823EAB7
:1016DC00000302FA01F119432160BFE707290FD972
:1016EC000F29BBD8A1F108039B000F2098400F4C89
:1016FC00216821EA000002FA03F101432160ADE701
:10170C0089000F2303FA01F0094C236823EA000334
:10171C0002FA01F119432160A0E700BF040801405F
:10172C0000080140040C0140000C01400410014071
:10173C0000100140012818D010B1022829D07047A0
:10174C00012A0AD0002A2FD1012303FA01F11B4AE6
:10175C00136823EA010313607047012303FA01F1B4
:10176C00164A13680B4313607047012A09D0DAB983
:10177C00012303FA01F1124A136823EA01031360EF
:10178C007047012303FA01F10D4A13680B431360F0
:10179C007047012A09D03AB9012303FA01F1094A29
:1017AC00136823EA010313607047012303FA01F164
:1017BC00044A13680B431360704700BF0C080140C8
:1017CC000C0C01400C10014001280AD018B1022861
:1017DC000DD000207047094B1868C84000F001007C
:1017EC007047074B1868C84000F001007047054B64
:1017FC001868C84000F00100704700BF080801409D
:10180C00080C01400810014010B582B04B1C1B01A4
:10181C000901441C24010001009203F0F00301F0C3
:10182C00F00204F0F00100F0F00002F0C8FA02B08F
:10183C0010BD00002DE9F04188B080460F466C4683
:10184C00164D0FCD0FC495E80F0084E80F0000254E
:10185C0015E00134E4B20F2C0FD846FA04F313F060
:10186C00010FF6D005EB071104EB08104FF478428A
:10187C00C9B2C0B202F0E0FAEBE70135EDB20F2DC0
:10188C0008D808AB03EB450333F8206C002EF4D0DA
:10189C000024E0E708B0BDE8F08100BF105100085B
:1018AC002DE9F04188B080460F466C46154D0FCDA2
:1018BC000FC495E80F0084E80F00002514E00134F4
:1018CC00E4B20F2C0ED846FA04F313F0010FF6D045
:1018DC0005EB071104EB08100022C9B2C0B202F0EC
:1018EC00ABFAECE70135EDB20F2D08D808AB03EBE2
:1018FC00450333F8206C002EF4D00024E1E708B047
:10190C00BDE8F0813051000808B508210020FFF730
:10191C005BFF30B9154B0A221A70154B01221A7055
:10192C0008BD0A210020FFF74FFF30B90F4B1422DE
:10193C001A700F4B01221A70F2E70B210020FFF7EF
:10194C0043FF30B9094B1E221A70094B01221A7041
:10195C00E6E709210020FFF737FF0028E0D1034B11
:10196C0028221A70024B01221A70D9E705040020B4
:10197C000604002038B5002515E00134E4B2072C2C
:10198C000FD8C5F10902C4F10703094901EBC202E2
:10199C00D35C012BF1D1002229462046FFF734FFFE
:1019AC00EBE70135EDB2092D01D80024E7E738BD8E
:1019BC002801002008B54FF6607002F0CFF908BD81
:1019CC00064B1B78072B00D07047054B1B78092B57
:1019DC00FAD1044B01221A70F6E700BF0304002071
:1019EC00040400200704002010B582B0FFF7E2FFCA
:1019FC00FFF7C0FF09210720FFF752FF002108461F
:101A0C00FFF718FF37E0FFF77FFF624801F006FD94
:101A1C00614B1B78002BF6D0604B1B780A3B1E2BBE
:101A2C0026D8DFE803F01025252525252525252595
:101A3C004C2525252525252525256F2525252525D9
:101A4C00252525259300564B1978C1F10804554BD3
:101A5C001878C0F10702544B03EBC4039B5C012BB9
:101A6C0001D008291DD9FFF7ABFF4C4B00221A708F
:101A7C00494B00221A704D4B1B78002BC8D04FF6E7
:101A8C00FF730093642346227F21002002F097F914
:101A9C004FF6E07350226421454802F0D5FA02B0AB
:101AAC0010BD4FF66072FFF7AFFE3E4B18783C4B03
:101ABC0019780131C9B21970FFF7BCFED3E7384B66
:101ACC001978C1F10A04374B1878C0F10702364B6C
:101ADC0003EBC4039B5C012B00D029B9FFF770FF0B
:101AEC002E4B00221A70C3E74FF66072FFF78CFE84
:101AFC002C4B18782A4B19780139C9B21970FFF799
:101B0C0099FEEBE7264B1978C1F10904254B18789F
:101B1C00C0F10602244B03EBC4039B5C012B01D0E8
:101B2C00062805D9FFF74CFF1C4B00221A709FE7C3
:101B3C004FF66072FFF768FE1A4B18780130C0B28E
:101B4C001870174B1978FFF775FEEBE7144B1978E3
:101B5C00C1F10904134B1878C0F10802124B03EBC6
:101B6C00C4039B5C012B00D028B9FFF729FF0B4B5A
:101B7C0000221A707CE74FF66072FFF745FE094BA6
:101B8C0018780138C0B21870054B1978FFF752FE5F
:101B9C00EBE700BF400D0300060400200504002005
:101BAC000404002003040020280100200704002066
:101BBC001C50000810B582B0002002F0CFF84FF690
:101BCC00FF74009482231E2232212D2002F0F7F89C
:101BDC00009482231E2252214D2002F0F0F8009432
:101BEC0041233C2271210E2002F0E9F8009462237B
:101BFC005D2271210E2002F0E2F802B010BD0378D4
:101C0C00012B0CD043B1022B0CD00B78012B0FD035
:101C1C005BB1022B0FD0704712230370F5E7322310
:101C2C000370F2E752230370EFE720230B70704729
:101C3C0041230B70704762230B70704710B584B052
:101C4C0014468DF80F0004AB03F8021D19460DF174
:101C5C000F00FFF7D4FF9DF80F009DF80E2002F146
:101C6C001C0300F11B010094DBB2C9B202F0A7F80F
:101C7C0004B010BD08B5012A02D0022A05D008BD57
:101C8C0040F64102FFF7DAFFF9E70022FFF7D6FF33
:101C9C00F5E7000070B59EB014468DF807001EAB3A
:101CAC0003F8721D19460DF10700FFF7A8FF6C220F
:101CBC00184903A803F040F922469DF806109DF838
:101CCC000700FFF7D7FF002617E00134E4B21A2C07
:101CDC0011D825FA04F313F0010FF6D09DF8061075
:101CEC0031449DF8070020444FF47042C9B2C0B291
:101CFC0002F0A2F8E9E70136F6B21A2E08D81EABAC
:101D0C0003EB860353F86C5C002DF4D00024DEE763
:101D1C001EB070BD5051000870B5EEB016468DF86F
:101D2C0007008DF806100DF106010DF10700FFF705
:101D3C0066FF594C6C252A46611953A803F0FCF830
:101D4C002A4604F1D80138A803F0F6F82A4604F51F
:101D5C00A2711DA803F0F0F82A4604F5D87102A868
:101D6C0003F0EAF832469DF806109DF80700FFF7DD
:101D7C0081FF002617E00134E4B21A2C11D825FAA1
:101D8C0004F313F0010FF6D09DF8061031449DF8C2
:101D9C00070020444EF2C252C9B2C0B202F04CF855
:101DAC00E9E70136F6B21A2E08D86EAB03EB8603C0
:101DBC0053F86C5C002DF4D00024DEE7002617E00D
:101DCC000134E4B21A2C11D825FA04F313F0010FE4
:101DDC00F6D09DF8061031449DF8070020444AF2D5
:101DEC000D52C9B2C0B202F027F8E9E70136F6B2DB
:101DFC001A2E06D802AB53F82650002DF6D000242C
:101E0C00E0E7002617E00134E4B21A2C11D825FAC9
:101E1C0004F313F0010FF6D09DF8061031449DF831
:101E2C00070020444FF6FF72C9B2C0B202F004F8AA
:101E3C00E9E70136F6B21A2E06D81DAB53F8265038
:101E4C00002DF6D00024E0E7002617E00134E4B2C0
:101E5C001A2C11D825FA04F313F0010FF6D09DF8C3
:101E6C00061031449DF8070020444FF62E02C9B2EB
:101E7C00C0B201F0E1FFE9E70136F6B21A2E08D83C
:101E8C006EAB03EB860353F8D85C002DF4D0002422
:101E9C00DEE76EB070BD00BF5051000870B5B8B031
:101EAC0016468DF8070038AB03F8DA1D19460DF10C
:101EBC000700FFF7A4FE304C6C252A4604F5077189
:101ECC001DA803F039F82A4604F5227102A803F084
:101EDC0033F832469DF806109DF80700FFF7CAFE4E
:101EEC00002617E00134E4B21A2C11D825FA04F3B9
:101EFC0013F0010FF6D09DF8061031449DF8070041
:101F0C0020444FF6FF72C9B2C0B201F095FFE9E769
:101F1C000136F6B21A2E08D838AB03EB860353F809
:101F2C006C5C002DF4D00024DEE7002617E00134B1
:101F3C00E4B21A2C11D825FA04F313F0010FF6D0E1
:101F4C009DF8061031449DF8070020444FF4704270
:101F5C00C9B2C0B201F070FFE9E70136F6B21A2E31
:101F6C0008D838AB03EB860353F8D85C002DF4D0BB
:101F7C000024DEE738B070BD5051000870B59EB03B
:101F8C0014468DF807001EAB03F8721D19460DF1AF
:101F9C000700FFF734FE6C22184903A802F0CCFFAF
:101FAC0022469DF806109DF80700FFF763FE0026F9
:101FBC0017E00134E4B21A2C11D825FA04F313F00B
:101FCC00010FF6D09DF8061031449DF8070020440F
:101FDC004FF4FC62C9B2C0B201F02EFFE9E7013642
:101FEC00F6B21A2E08D81EAB03EB860353F86C5CC2
:101FFC00002DF4D00024DEE71EB070BD4454000860
:10200C0070B59EB014468DF807001EAB03F8721D18
:10201C0019460DF10700FFF7F2FD6C22184903A8D1
:10202C0002F08AFF22469DF806109DF80700FFF784
:10203C0021FE002617E00134E4B21A2C11D825FA3F
:10204C0004F313F0010FF6D09DF8061031449DF8FF
:10205C00070020444EF6C072C9B2C0B201F0ECFECB
:10206C00E9E70136F6B21A2E08D81EAB03EB86034D
:10207C0053F86C5C002DF4D00024DEE71EB070BD6C
:10208C00B054000870B5C1F10203C0F1020503EBB6
:10209C004306114C3444645D0A2C19D133460F4C61
:1020AC0023445B5D042B15D8DFE803F00306090C11
:1020BC000F00FFF7DFFD0DE0FFF72EFE0AE0FFF744
:1020CC00EDFE07E0FFF75AFF04E0FFF799FF01E090
:1020DC00FFF7E0FD70BD00BF880100207C010020EF
:1020EC0038B500250AE0022229462046FFF7CAFF30
:1020FC000134E4B2022CF6D90135EDB2022D01D82F
:10210C000024F7E738BD00000A2812D0142823D089
:10211C00704701EB4100124A02440A20D0540133AB
:10212C00DBB2022BF5D90131C9B2022903D8002345
:10213C00F7E70021F9E7704701EB4100084A024438
:10214C001420D0540133DBB2022BF5D90131C9B2C2
:10215C00022903D80023F7E70021F9E7704700BFF5
:10216C008801002008B508210020FFF72DFB20B9BD
:10217C002E4B93F90030012B10DD0A210020FFF7C4
:10218C0023FB90B9294B93F90030002B0DDD284B24
:10219C0014221A70274B01221A7008BD244B0A22F4
:1021AC001A70244B01221A70F7E70B210020FFF75D
:1021BC000BFB20B9204B93F90030012B10DD0921CA
:1021CC000020FFF701FB90B91B4B93F90030002B5B
:1021DC000DDD174B28221A70164B01221A70DCE702
:1021EC00134B1E221A70134B01221A70D5E70C21C7
:1021FC000020FFF7E9FA0028CFD10C4B93F90030FF
:10220C00C3F102030C4A92F90020C2F1020203EB63
:10221C0043030A490B449B5C142BBED1044B322262
:10222C001A70044B01221A70B7E700BF0B04002090
:10223C0008040020090400200A0400208801002062
:10224C0010B5374B93F90010C1F10203354A92F9DE
:10225C000000C0F1020403EB4303334A13440A2287
:10226C001A550122C9B2C0B2FFF70CFF2F4B1B78D5
:10227C00002B35D02E4B1B78C3F102032D4A11785D
:10228C00C1F102012C4A03EB43031344585C244B69
:10229C0093F90030C3F10203224991F90010C1F106
:1022AC00020103EB430313445B5C984224D02348A4
:1022BC0001F0B4F81A4B93F90010C1F10203194A5A
:1022CC0092F90000C0F1020403EB4303164A1344D5
:1022DC0014221A550122C9B2C0B2FFF7D3FE0AE08C
:1022EC00104B1A78134B1A700D4B1A78104B1A703E
:1022FC000E4B01221A7010BD114C2378013B237038
:10230C0000228C211E2001F075FE4FF478438C22A4
:10231C001E21207801F026FE044B00221A70EAE7F9
:10232C000B0400200A040020880100200C0400206B
:10233C0088040020890400207C01002040420F000A
:10234C007801002030B583B0FFF734FC4FF6FF73F3
:10235C008C226421574801F077FE4FF478438C228D
:10236C001E215548007801F0FDFD0A20FFF7CCFE38
:10237C00FFF7B6FE514801F051F81420FFF7C4FEE8
:10238C00FFF7AEFE01224E4B19784E4B1878FFF733
:10239C0079FE39E0FFF7E6FE4B4801F03FF84B4B76
:1023AC001B78002BF6D04A4B1B780A3B282B28D8DD
:1023BC00DFE803F01527272727272727272740277C
:1023CC002727272727272727532727272727272765
:1023DC002727662727272727272727277900384CE1
:1023EC00384D022221782878FFF74CFE2878217886
:1023FC000131C9B221700122FFF744FE344B002297
:10240C001A70324B00221A702B4B1B78002BC6D142
:10241C004FF6FF730093642346227F21002001F0C6
:10242C00CEFC4FF6E073502264212A4801F00CFEDA
:10243C0003B030BD224C234D022221782878FFF7BF
:10244C0021FE287821780139C9B221700122FFF7C9
:10245C0019FE1F4B00221A70D3E7194D194C02229A
:10246C0029782078FFF70EFE20780130C0B220705A
:10247C0001222978FFF706FE154B00221A70C0E7DF
:10248C000F4D104C022229782078FFF7FBFD2078A5
:10249C000138C0B2207001222978FFF7F3FD0C4BF4
:1024AC0000221A70ADE7FFF7CBFE094B00221A7021
:1024BC00A7E700BF1C5500087801002080841E008F
:1024CC000B0400200A040020400D03000904002026
:1024DC00080400201C50000870B582B0002001F0E8
:1024EC003DFC4FF6FF738C226E21154801F0ACFDBC
:1024FC004FF478438C2228211248007801F05CFDBF
:10250C00002517E0200101300134E4B26B1C1B01E3
:10251C00013B2A0101322101013946F22C36009689
:10252C00DBB2D2B2C9B2C0B201F049FC072CE9D976
:10253C000135EDB2072D01D80024F7E702B070BDCC
:10254C00845500089101002008B51201090102F020
:10255C00F00201F0F00101F005FD08BDF0B589B005
:10256C0007460E466C46144D0FCD0FC495E80F0070
:10257C0084E80F00002518E00134E4B20F2C12D8C7
:10258C0008AB03EB450333F8203C234113F0010F58
:10259C00F2D005EB061104EB07100022C9B2C0B251
:1025AC0001F04AFCE8E70135EDB20F2D01D800240B
:1025BC00E4E709B0F0BD00BF24550008F0B591B0B8
:1025CC0005460E46294C08AF04F1200CBCE80F0060
:1025DC000FC79CE80F0087E80F006F4640340FCC04
:1025EC000FC794E80F0087E80F00002718E00134AC
:1025FC00E4B20F2C12D810AB03EB470333F8203C9A
:10260C00234113F0010FF2D007EB061104EB051078
:10261C000022C9B2C0B201F00FFCE8E70137FFB2EB
:10262C000F2F01D80024E4E7002719E00134E4B2AD
:10263C000F2C13D810AB03EB470333F8403C23416A
:10264C0013F0010FF2D007EB061104EB05104FF459
:10265C007842C9B2C0B201F0EFFBE7E70137FFB235
:10266C000F2F01D80024E3E711B0F0BD245500086A
:10267C0010B582B04B1C1B01013B09014A1C411CCB
:10268C00090101390001013040F641040094DBB22C
:10269C00D2B2C9B2C0B201F092FB02B010BD0000C0
:1026AC0008B508210020FFF78FF820B92B4B93F9C0
:1026BC000030062B10DD0A210020FFF785F890B9B9
:1026CC00264B93F90030002B0DDD254B14221A708C
:1026DC00244B01221A7005E0214B0A221A70214B5F
:1026EC0001221A7008BD0B210020FFF76DF820B9EC
:1026FC001D4B93F90030062B10DD09210020FFF74C
:10270C0063F890B9184B93F90030002B0DDD144B86
:10271C0028221A70134B01221A70E3E7104B1E2269
:10272C001A70104B01221A70DCE70C210020FFF705
:10273C004BF830B90A4B32221A700A4B01221A702C
:10274C00D0E70F210020FFF73FF80028CAD1044B37
:10275C003C221A70034B01221A70C3E712040020AA
:10276C000D0400200E0400201104002010B582B0CE
:10277C004B1C1B01013B09014A1C411C090101397D
:10278C000001013046F22C340094DBB2D2B2C9B253
:10279C00C0B201F014FB02B010BD000010B5C1F1C5
:1027AC000704C0F107020A4B03EBC4039B5C0A2B22
:1027BC0004D0142B05D01E2B06D010BDFFF7D6FF6E
:1027CC00FBE700F061F8F8E7FFF7F8FEF5E700BF6C
:1027DC0014020020F0B583B0C1F10701C0F107006D
:1027EC00264B03EBC1031E5C002540E0B34230D006
:1027FC000134E4B2072C38D8294620461F4B03EB92
:10280C00C5031B5DB342F1D11D4A02EBC502125D3B
:10281C00002AEBD11B4B03EBC50314221A55C4F150
:10282C000707C4F10800C5F10702C5F108031B0135
:10283C00013B12010132010101393801013041F231
:10284C00A2070097DBB2D2B2C9B2C0B201F0B7FA9C
:10285C00CEE70C4B03EBC10314221A54C1F1070150
:10286C00C0F10700FFF79AFFC2E70135EDB2072D63
:10287C0001D80024BEE703B0F0BD00BFD401002096
:10288C0094010020140200202DE9F04F83B0804603
:10289C008946C1F1070B5FFA8BFBC0F1070A5FFA9F
:1028AC008AFA06010136F6B2441C2401013CE4B25A
:1028BC000F010137FFB24D1C2D01013DEDB246F267
:1028CC002C3300932B463A462146304601F077FADA
:1028DC00374B03EBCB0B1BF80A30BBB1012B25D0CC
:1028EC00022B33D0032B42D0042B51D0092B1AD1FD
:1028FC0041F2A20300932B463A462146304601F0A2
:10290C005EFA49464046FFF729FE0CE04946404630
:10291C00FFF760FF41F2A20300932B463A46214693
:10292C00304601F04CFA03B0BDE8F08F41F2A2033F
:10293C0000932B463A462146304601F040FA1F23BD
:10294C004A4641460120FFF7FFFDECE741F2A203A6
:10295C0000932B463A462146304601F030FA4FF4AC
:10296C0048734A4641460220FFF7EEFDDBE741F291
:10297C00A20300932B463A462146304601F01FFA3B
:10298C004FF410434A4641460320FFF7DDFDCAE7EA
:10299C0041F2A20300932B463A462146304601F001
:1029AC000EFA0C234A4641460420FFF7CDFDBAE748
:1029BC0094010020C1F10701C0F10700044B03EBA7
:1029CC00C1010B5C092B01D000207047012070471E
:1029DC00940100200021072936D80023072B30D87A
:1029EC0030B409E0194D05EBC105ED5C1E2D0BD182
:1029FC000133DBB2072B1CD80C461846144A02EBE9
:102A0C00C102D25C092AEDD0092A0AD0092AEFD0DA
:102A1C000E4A02EBC402125C1E2AE9D1002030BC23
:102A2C0070470A4D05EBC4052D5C1E2DEED0002021
:102A3C00F5E70131C9B2072901D80023DAE70120F3
:102A4C00EDE70131C9B2C6E701207047140200203E
:102A5C009401002000B583B000200090642346222E
:102A6C007F2101F0ACF94FF47843502264210348E4
:102A7C0001F0EAFA03B05DF804FB00BFD04F000888
:102A8C0070B582B0FFF728FD8C4B19788C4B1878F9
:102A9C00FFF7EEFD44E0FFF703FE8A4800F0BEFCB2
:102AAC00894B1B78002BF6D0884B1B780A3B322BBA
:102ABC002BD8DFE803F01A2A2A2A2A2A2A2A2A2AB9
:102ACC00452A2A2A2A2A2A2A2A2A562A2A2A2A2A13
:102ADC002A2A2A2A672A2A2A2A2A2A2A2A2A782ABF
:102AEC002A2A2A2A2A2A2A2ABE00744C744D2178B2
:102AFC002878FFF753FE287821780131C9B221706C
:102B0C00FFF7B6FD714B00221A706F4B00221A7042
:102B1C006F4B1B7823B9FFF75DFF002840F0BA809C
:102B2C006C4B1B78002BBBD06B4B1B78012B00F034
:102B3C00B5806A4800F072FCFFF78CFF02B070BDE4
:102B4C005E4C5F4D21782878FFF728FE2878217895
:102B5C000139C9B22170FFF78BFD5C4B00221A7052
:102B6C00D3E7564D564C29782078FFF717FE20787E
:102B7C000130C0B220702978FFF77AFD534B002248
:102B8C001A70C2E74D4D4E4C29782078FFF706FE9F
:102B9C0020780138C0B220702978FFF769FD4B4BC3
:102BAC0000221A70B1E7454B93F90020C2F10701DE
:102BBC00434B93F90030C3F10703494A02EBC102BE
:102BCC00D35C0A2B01D01E2B1AD11E2B1CD03B4DD3
:102BDC0095F90010C1F10706394C94F90000C0F1C9
:102BEC0007023F4B03EBC60314269E54C9B2C0B276
:102BFC00FFF7D4FD29782078FFF7DCFE354B1870F1
:102C0C00324B00221A7080E7314B1B78092B02D80B
:102C1C0001332F4A137000228C21282001F0F8F97F
:102C2C004FF478438C2228212948007801F0C4F90C
:102C3C00CDE7274B1B787BB1204B93F90010C1F1EA
:102C4C0007041F4B93F90000C0F10702244B03EB60
:102C5C00C4039B5C0A2B03D01C4B00221A7054E754
:102C6C001F4B03EBC4041E23A354C9B2C0B2FFF71D
:102C7C0095FD174C2378013B237000228C212820D2
:102C8C0001F0C6F94FF478438C222821207801F00A
:102C9C0093F9E1E7104B01221A7045E700200090F0
:102CAC00642346227F2101F08AF84FF6E07350220C
:102CBC0064210C4801F0C8F940E700BF1204002061
:102CCC0011040020400D03000E0400200D04002010
:102CDC00910100200F0400201004002040420F003E
:102CEC00140200201C50000808B508210020FEF733
:102CFC006BFD30B9154B0A221A70154B01221A7054
:102D0C0008BD0A210020FEF75FFD30B90F4B1422DD
:102D1C001A700F4B01221A70F2E70B210020FEF7FC
:102D2C0053FD30B9094B1E221A70094B01221A703F
:102D3C00E6E709210020FEF747FD0028E0D1034B10
:102D4C0028221A70024B01221A70D9E713040020B2
:102D5C001404002010B582B04B1CDB00C900441CCD
:102D6C00E400C000009203F0F80301F0F80204F054
:102D7C00F80100F0F80001F022F802B010BD2DE9C6
:102D8C00F04182B080460F4600250095019508233E
:102D9C008DF8033015E00134E4B2072C0FD846FA55
:102DAC0004F313F0010FF6D005EBC70104EBC800D8
:102DBC004FF47842C9B2C0B201F03EF8EBE70135EE
:102DCC00EDB2072D07D802AB2B4413F8086C002E7C
:102DDC00F5D00024E1E702B0BDE8F0812DE9F04127
:102DEC0082B080460F46154B93E8030002AB03E913
:102DFC000300002515E00134E4B2072C0FD846FA85
:102E0C0004F313F0010FF6D005EBC70104EBC80077
:102E1C004EF6E072C9B2C0B201F00EF8EBE7013524
:102E2C00EDB2072D07D802AB2B4413F8086C002E1B
:102E3C00F5D00024E1E702B0BDE8F0818C55000824
:102E4C002DE9F04182B080460F461646134B93E8AD
:102E5C00030002AB03E90300002517E00134E4B2E0
:102E6C00072C11D802AB2B4413F8083C234113F068
:102E7C00010FF3D005EBC70104EBC8003246C9B211
:102E8C00C0B200F0D9FFE9E70135EDB2072D01D84A
:102E9C000024E5E702B0BDE8F08100BF94550008BE
:102EAC0038B5002519E01F2229462046FFF752FFAE
:102EBC000134E4B20F2C0ED8C5F11302C4F10F0388
:102ECC00084901EB0212D35C012BECD029462046B9
:102EDC00FFF755FFECE70135EDB2132D01D80024B7
:102EEC00E8E738BD5402002038B504460D46C1F160
:102EFC001301C0F10F02094B03EB01139B5C23B1CF
:102F0C0000222946FFF726FF38BD00222946FFF78D
:102F1C0021FF29462046FFF732FFF5E75402002037
:102F2C0038B5444B1978052902D9434B1B7853B358
:102F3C00052901D00E2904D13F4A137883F00103EF
:102F4C0013703C4B19780D2903D83B4B1B78012B84
:102F5C0035D03A4B9878012803D9374B9B78002B06
:102F6C0049D0012801D00E2804D1334A937883F03C
:102F7C0001039370314B98780D2803D82E4B9B7816
:102F8C00012B47D038BD2D4D2878FFF7ADFF2878A1
:102F9C00284C21780139C9B221704FF61C02FFF779
:102FAC004FFF61786878FFF79FFF68786178013987
:102FBC00C9B2617040F2FF72FFF742FFC1E71F4DCB
:102FCC002878FFF791FF28781A4C21780131C9B283
:102FDC0021704FF61C02FFF733FF61786878FFF71A
:102FEC0083FF687861780131C9B2617040F2FF7279
:102FFC00FFF726FFADE70F4CA178FFF775FF0F4BDE
:10300C0098780138C0B2987043F2E072A178FFF75B
:10301C0017FFAFE7074CA178FFF766FF074B9878CF
:10302C000130C0B2987043F2E072A178FFF708FF4C
:10303C00A8E700BF98030020180400209403002088
:10304C00134B1A78134B1B789A4208D0104A5278BB
:10305C0093420ED00E4A9278934211D070470E4A8A
:10306C0011780E4A12789142F0D10D4BC8221A7089
:10307C00F4E7094A5178094A12789142EAD1F4E707
:10308C00054B9A78054B1B789A42E7D1EDE700BFC8
:10309C009403002097030020980300209B0300203A
:1030AC001B04002030B583B0002000F057FEFFF762
:1030BC00F7FEA64B1978A64B1878FFF78FFE13E096
:1030CC00A24B1978C1F11204A14B1878C0F10F0270
:1030DC00A04B03EB04139B5C012B01D0122953D999
:1030EC00FFF7AEFFFFF71CFF9B4B1B789D2B00F2ED
:1030FC000A81FFF7F9FD994800F090F9984B1B787D
:10310C000A3B1E2BEED801A252F823F0CD3000085A
:10311C00F1300008F1300008F1300008F1300008FF
:10312C00F1300008F1300008F1300008F1300008EF
:10313C00F1300008D9310008F1300008F1300008F6
:10314C00F1300008F1300008F1300008F1300008CF
:10315C00F1300008F1300008F1300008413200086D
:10316C00F1300008F1300008F1300008F1300008AF
:10317C00F1300008F1300008F1300008F13000089F
:10318C00F1300008AB3200080022FFF7E3FD704D70
:10319C0028786E4C21780131C9B22170FFF71EFEE0
:1031AC002278C2F113022B78C3F10F03694901EBAA
:1031BC000211C95C002993D1664901EB0212052169
:1031CC00D154654A13780133137089E75F4B197832
:1031DC00C1F114045E4B1878C0F10F025D4B03EB88
:1031EC0004139B5C012B00D011B9FFF729FF79E781
:1031FC000022FFF7AFFD564D2878544C2178013949
:10320C00C9B22170FFF7EAFD2278C2F113022B78C4
:10321C00C3F10F034F4901EB0211C95C0029E4D142
:10322C004C4901EB02120521D1544B4A137801335E
:10323C001370DAE7454B1978C1F11304444B187835
:10324C00C0F10E02434B03EB04139B5C012B01D02A
:10325C000E2802D9FFF7F4FE44E70022FFF77AFDAF
:10326C003B4C20780130C0B22070384D2978FFF7E4
:10327C00B5FD2A78C2F113022378C3F10F03354947
:10328C0001EB0211C95C0029E4D1324901EB0212B5
:10329C000521D154304A137801331370DAE72B4BE4
:1032AC001978C1F113042A4B1878C0F11002294B7C
:1032BC0003EB04139B5C012B00D010B9FFF7C0FE8D
:1032CC0010E70022FFF746FD214C20780138C0B2F0
:1032DC0020701E4D2978FFF781FD2A78C2F1130268
:1032EC002378C3F10F031B4901EB0211C95C0029C0
:1032FC00E4D1184901EB02120521D154164A137876
:10330C0001331370DAE79E2B0FD00020009064235A
:10331C0046227F2100F053FD4FF478435022642164
:10332C00104800F091FE03B030BD4FF6FF730093D0
:10333C00642346227F21002000F041FD4FF6E0730C
:10334C0050226421084800F07FFEECE79B0300202C
:10335C0097030020540200201B040020400D0300A2
:10336C0013040020D04F00081C500008034B4FF4EE
:10337C0080321A60043301221A6070470010024038
:10338C001F291CD801280BD010B1022810D070476F
:10339C00012303FA01F10A4A13680B4313607047C7
:1033AC00012303FA01F1074A13680B4313607047BA
:1033BC00012303FA01F1044A13680B4313607047AD
:1033CC00141002401C10024018100240024B40F234
:1033DC0047321A60704700BF0030014038B50546CF
:1033EC000C46002211461046FEF7A4F9074BDD608F
:1033FC00064B9B6813F0800FFAD1044BDB682370EB
:10340C00012200210846FEF795F938BD0030014035
:10341C00014B00221A60704710E000E00D4B186061
:10342C000D4A136843F0010313600B4B1B6813F434
:10343C00803FFAD0084B1A6822F001021A601A6811
:10344C0022F002021A600023024A13600432136055
:10345C00704700BF14E000E010E000E008B50B4B33
:10346C001B786BB90A4B1A6822F002021A601A68B0
:10347C0042F001021A600023064A13600432136002
:10348C00054B1B689847024B1B6808BD1C040020A9
:10349C0010E000E014E000E08C040020013949B297
:1034AC0004E04B1C425CC254013949B20029F8DAE1
:1034BC0070470000084A13780849C85C08498870AE
:1034CC000848C05CC8700133DBB213700B2B02D9F7
:1034DC00134600221A7070471D0400209C03002024
:1034EC00B0040020A803002008B50C4B7C221A70F5
:1034FC0088225A70FFF7DEFF094B0422DA701A702B
:10350C00102159735970012199701A7106229A73FE
:10351C00044B00221A705A7008BD00BFB004002082
:10352C009804002094040020F0B58BB005460E469C
:10353C00254C05AFA446BCE80F000FC7DCF80030E3
:10354C003B606F4614340FCC0FC723683B600027D9
:10355C0016E00134E4B2092C10D80AAB03EB470394
:10356C0033F8143C234113F0010FF2D0B919601950
:10357C001F22C9B2C0B200F05FFCEAE70137FFB20C
:10358C00092F01D80024E6E7002717E00134E4B244
:10359C00092C11D80AAB03EB470333F8283C234121
:1035AC0013F0010FF2D0B91960194FF6FF72C9B2BE
:1035BC00C0B200F041FCE9E70137FFB2092F01D896
:1035CC000024E5E70BB0F0BD9C550008F0B58BB0BE
:1035DC0005460E46264C05AF04F1280CBCE80F003E
:1035EC000FC7DCF800303B606F463C340FCC0FC784
:1035FC0023683B60002716E00134E4B2092C10D894
:10360C000AAB03EB470333F8143C234113F0010FCF
:10361C00F2D0B91960191F22C9B2C0B200F00CFC6B
:10362C00EAE70137FFB2092F01D80024E6E70027AB
:10363C0017E00134E4B2092C11D80AAB03EB4703B1
:10364C0033F8283C234113F0010FF2D0B91960195B
:10365C004FF6FF72C9B2C0B200F0EEFBE9E70137DA
:10366C00FFB2092F01D80024E5E70BB0F0BD00BF75
:10367C009C550008F0B58BB005460E46264C05AFA0
:10368C0004F1500CBCE80F000FC7DCF800303B60B5
:10369C006F4664340FCC0FC723683B60002716E0DD
:1036AC000134E4B2092C10D80AAB03EB470333F80E
:1036BC00143C234113F0010FF2D0B91960191F22E9
:1036CC00C9B2C0B200F0B8FBEAE70137FFB2092F6C
:1036DC0001D80024E6E7002717E00134E4B2092CF6
:1036EC0011D80AAB03EB470333F8283C234113F002
:1036FC00010FF2D0B91960194FF6FF72C9B2C0B2FE
:10370C0000F09AFBE9E70137FFB2092F01D800243A
:10371C00E5E70BB0F0BD00BF9C550008F0B58BB0D1
:10372C0005460E46264C05AF04F1780CBCE80F009C
:10373C000FC7DCF800303B606F468C340FCC0FC7E2
:10374C0023683B60002716E00134E4B2092C10D842
:10375C000AAB03EB470333F8143C234113F0010F7E
:10376C00F2D0B91960191F22C9B2C0B200F064FBC3
:10377C00EAE70137FFB2092F01D80024E6E700275A
:10378C0017E00134E4B2092C11D80AAB03EB470360
:10379C0033F8283C234113F0010FF2D0B91960190A
:1037AC004FF6FF72C9B2C0B200F046FBE9E7013731
:1037BC00FFB2092F01D80024E5E70BB0F0BD00BF24
:1037CC009C55000808B50A3A1E2A13D8DFE802F007
:1037DC0010121212121212121212131212121212BE
:1037EC0012121212161212121212121212121900B4
:1037FC00FFF79AFE08BDFFF7E9FEFBE7FFF73AFF7C
:10380C00F8E7FFF78BFFF5E7F8B507460E460025FE
:10381C000DE0A919E0194FF4FC62C9B2C0B200F076
:10382C000BFB0134E4B2092CF3D90135EDB2092DAF
:10383C0001D80024F7E7F8BD10B582B00A4601F1B3
:10384C000A0300F10A011F240094DBB2C9B200F094
:10385C00B6FA02B010BD0000F0B587B007460E46B0
:10386C0001AC124D0FCD0FC42B682360002517E05F
:10387C000134E4B2092C11D806AB03EB450333F841
:10388C00143C234113F0010FF2D0A919E0194FF4A5
:10389C007842C9B2C0B200F0CFFAE9E70135EDB217
:1038AC00092D01D80024E5E707B0F0BD3C5600080F
:1038BC0030B583B005464FF4FC6000F04FFAE024BD
:1038CC0000949F2388227F21002000F078FA009436
:1038DC009F2300220321104600F071FA00949F23CD
:1038EC0000227F217C2000F06AFA0094052300223C
:1038FC007F21104600F063FA4FF6E0728E216E20A5
:10390C0000F0D2FA124B18784FF6FF738E225A2120
:10391C0000F052FB00238E223A210E4800F094FB5B
:10392C004FF478438E220521284600F01BFB0A4CED
:10393C00207861780A22FFF745FF2079A17BFFF7F9
:10394C007BFF064B9878D978FFF786FF03B030BD24
:10395C00940400205056000898040020B004002065
:10396C0008B508210020FDF72FFF30B9154B0A22AE
:10397C001A70154B01221A7008BD0A210020FDF7A0
:10398C0023FF30B90F4B14221A700F4B01221A70FF
:10399C00F2E70B210020FDF717FF30B9094B1E226F
:1039AC001A70094B01221A70E6E709210020FDF775
:1039BC000BFF0028E0D1034B28221A70024B012286
:1039CC001A70D9E71E0400201F04002008B500203F
:1039DC0000F0C4F94FF4784350226421014800F000
:1039EC0033FB08BDD04F000808B5FFF77DFD022062
:1039FC00FFF75EFF0CE0FFF7B3FF094B1B78002BC2
:103A0C00F9D0FFF7ADFF00F011F80648FFF706FDFF
:103A1C00054B5B78002BF0D0FFF7D8FF08BD00BF3B
:103A2C001F040020A08601009404002038B57F4BB1
:103A3C001B780A3B1E2B22D8DFE803F01021212132
:103A4C002121212121216721212121212121212114
:103A5C00792121212121212121218B00744CA37852
:103A6C002344D878A3782344597BFFF7CDFEE07824
:103A7C00617BFFF7E1FE63780A33DBB263706C4B5A
:103A8C005A78D2B26B4B5B78083B9A4211DA684B8E
:103A9C005B78DBB2052B0CD9654B1A78D2B2654B2F
:103AAC001B78DBB29A4204D2614B1B78DBB2032B3E
:103ABC0002D8614B01225A705D4B1A78D2B25D4B21
:103ACC009B78DBB29A4207D1594B5A78D2B2594BF8
:103ADC00DB78DBB29A424ED0554C20786178534B50
:103AEC001A78FFF76FFEA17849B2E01CFFF7D6FCFD
:103AFC00A17849B204F10D00FFF7D0FC2378DBB2BA
:103B0C00E3706378DBB2637338BD494CA37823440C
:103B1C00D878A3782344597BFFF776FEE078617B55
:103B2C00FFF78AFE63780A3BDBB26370A7E7404C71
:103B3C00A3782344D878A3782344597BFFF764FEF9
:103B4C00E078617BFFF778FE23780A33DBB22370D1
:103B5C0095E7374CA3782344D878A3782344597B32
:103B6C00FFF752FEE078617BFFF766FE23780A3B95
:103B7C00DBB2237083E72F4DA878E978FFF744FE7A
:103B8C002B4C20786178294B1A78FFF71BFEFFF736
:103B9C0091FCA878E978FFF75FFEE0228E21502097
:103BAC0000F036FA244D2B780133DBB22B702878D9
:103BBC004FF6FF738E22502100F0FEF9A3782344B8
:103BCC00D878A3782344597BFFF736FEA3780133CA
:103BDC00DBB2A370A17849B2E01CFFF75FFCA178BF
:103BEC0049B204F10D00FFF759FC2378DBB2E37006
:103BFC006378DBB263732B78DBB2052B84D94FF679
:103C0C00E07000F0ABF8002364226E210B4800F04A
:103C1C001BFA4FF4784350224021022000F0A2F905
:103C2C000748FFF7FBFBFFF7DFFE6DE71E040020E4
:103C3C0098040020B004002094040020585600087A
:103C4C0040420F0008B5FFF74FFC0120FFF730FE94
:103C5C000CE0FFF785FE094B1B78002BF9D0FFF722
:103C6C007FFEFFF7E3FE0648FFF7D8FB054B5B78BA
:103C7C00002BF0D0FFF7AAFE08BD00BF1F040020E8
:103C8C00400D03009404002008B5054B1B78DBB2F3
:103C9C00052B02D8FFF7D6FF08BDFFF7A5FEFBE703
:103CAC009404002010B582B00446012202210020A9
:103CBC00FDF740FD0DF107012046FFF78FFB02B029
:103CCC0010BD10B582B00446002202211046FDF74B
:103CDC0031FD0DF107012046FFF780FB02B010BD4E
:103CEC0008B5012211460020FDF724FD6420FFF7E2
:103CFC0095FB002201211046FDF71CFD0120FFF76A
:103D0C008DFB012211460020FDF714FD6420FFF706
:103D1C0085FB002201211046FDF70CFD6420FFF706
:103D2C007DFB012211460020FDF704FD0948FFF739
:103D3C0075FB1120FFF7C5FF0748FFF76FFB3A2013
:103D4C00FFF7BFFF0520FFF7ADFF2920FFF7B9FFF5
:103D5C0008BD00BFC0D40100F049020038B50546CB
:103D6C002A20FFF7AEFF0020FFF79CFF0020FFF793
:103D7C0099FF0020FFF796FF7F20FFF793FF2B2082
:103D8C00FFF79FFF0020FFF78DFF0020FFF78AFF52
:103D9C000020FFF787FF9F20FFF784FF2C20FFF701
:103DAC0090FF002407E0280AFFF77CFFE8B2FFF73A
:103DBC0079FF0134A4B2B4F5A04FF4D338BD2DE98A
:103DCC00F8438146884617461C46BDF820600B1AFE
:103DDC00A51A013503FB0555ADB22A20FFF771FF7B
:103DEC000020FFF75FFF4846FFF75CFF0020FFF75E
:103DFC0059FF4046FFF756FF2B20FFF762FF0020CC
:103E0C00FFF750FF3846FFF74DFF0020FFF74AFF42
:103E1C002046FFF747FF2C20FFF753FF002407E055
:103E2C00300AFFF73FFFF0B2FFF73CFF0134A4B2BA
:103E3C00AC42F5D3BDE8F88310B582B04B1C441CE2
:103E4C000092DBB20A46E1B2FFF7B9FF02B010BD37
:103E5C002DE9F843894690461F464138C0EB0010C7
:103E6C004300104E1E44002515E00134E4B2092C29
:103E7C000FD836F81530234113F0010FF5D005EBB0
:103E8C00080104EB09003A46C9B2C0B2FFF7D4FFEF
:103E9C00EBE70135EDB20E2D01D80024E7E7BDE8C4
:103EAC00F88300BF8C5600082DE9F04186B080469F
:103EBC000F4616466C46144D0FCD0FC495E8030003
:103ECC0044F8040B2180002517E00134E4B20A2CDD
:103EDC0011D806AB03EB450333F8183C234113F020
:103EEC00010FF2D0E91904EB08003246C9B2C0B296
:103EFC00FFF7A2FFE9E70135EDB20A2D01D8002446
:103F0C00E5E706B0BDE8F081645600082DE9F843FA
:103F1C00894690461F463038C0EB00104300104EC7
:103F2C001E44002515E00134E4B2092C0FD836F8F4
:103F3C001530234113F0010FF5D005EB080104EB0C
:103F4C0009003A46C9B2C0B2FFF776FFEBE701357C
:103F5C00EDB20E2D01D80024E7E7BDE8F88300BFD1
:103F6C00985900082DE9F843894690461F46C0EB46
:103F7C00001043000F4E1E44002515E00134E4B23E
:103F8C00092C0FD836F81530234113F0010FF5D05A
:103F9C0005EB080104EB09003A46C9B2C0B2FFF7C1
:103FAC004BFFEBE70135EDB20E2D01D80024E7E70E
:103FBC00BDE8F883985900082DE9F0410E461746E4
:103FCC0098460B4CA4FB0054E40804EB840C4FEA19
:103FDC004C05401BC5B22046FFF7C4FFA6F10B01F0
:103FEC0043463A46C9B22846FFF7BCFFBDE8F0810C
:103FFC00CDCCCCCC10B582B001F10F0300F10A048A
:10400C000092DBB20A46E1B2FFF7D9FE02B010BD56
:10401C00F0B583B004460E46174601F10F05EDB21C
:10402C0000F10A0100922B463246C9B2FFF7C7FED7
:10403C00611EA4F10B0000972B463246C9B2C0B2E8
:10404C00FFF7BDFE03B0F0BD2DE9F04784B082460A
:10405C000E4690461F464FF000092FE06C46224B4F
:10406C000FCB07C424F8023B1B0C2370002516E071
:10407C000134E4B2092C10D804AB2B4413F8103CD7
:10408C00234113F0010FF3D005EB080130193A4628
:10409C00C9B2C0B2FFF7D0FEEAE70135EDB20E2D82
:1040AC0006D80024E6E73B4642463146FFF7D0FEF1
:1040BC000B3EF6B209F101095FFA89F91AF8090009
:1040CC0070B12028F4D03A28C8D0A0F13003DBB26C
:1040DC00092BE8D83B4642463146FFF717FFE7E786
:1040EC0004B0BDE8F08700BF7C56000808B5082175
:1040FC000020FDF769FB30B90F4B0A221A700F4BE9
:10410C0001221A7008BD0B210020FDF75DFB30B9B0
:10411C00094B1E221A70094B01221A70F2E7092171
:10412C000020FDF751FB0028ECD1034B28221A701C
:10413C00024B01221A70E5E7210400202204002022
:10414C00F0B583B000252E461EE000260627200180
:10415C000134E4B26B1C1B012A012101009703F00E
:10416C00F00302F0F00201F0F00100F0F000FFF7B4
:10417C0026FE072C04D8002EE7D101261927E6E7E6
:10418C0086F001060135EDB2092D01D80024F0E7C7
:10419C0003B0F0BD10B582B04B1C1B01023B0901F2
:1041AC008C1C411C0901023900010230009203F001
:1041BC00FE0304F0FE0201F0FE0100F0FE00FFF72A
:1041CC00FEFD02B010BD00002DE9F04F83B0074694
:1041DC008B46924601934FF0000845464FF0FF394D
:1041EC0020E00135EDB2013676B20134E4B2022C96
:1041FC0010D807EBC702104B13445B5D012BF0D1B9
:10420C000AEB09010BEB0600019AC9B2C0B2FFF729
:10421C00C1FFE6E709F101094FFA89F908F1010834
:10422C005FFA88F8B8F1020F03D800244FF0FF367C
:10423C00DDE703B0BDE8F08FC00300202DE9F84F97
:10424C0080468B4692464FF000094D464FF0FF37A3
:10425C0038E03BB30BEB060313F0010F22D00AEB53
:10426C0007010BEB06001922C9B2C0B2FFF792FF8F
:10427C000135EDB2013676B20134E4B2022C1BD812
:10428C0008EBC802144B13445B5D012BF0D10AEB15
:10429C00070313F00103DCD10BEB060212F0010F44
:1042AC00DDD0D6E70AEB07010BEB06000622C9B2FC
:1042BC00C0B2FFF76FFFDBE701377FB209F10109ED
:1042CC005FFA89F9B9F1020F03D800244FF0FF36D9
:1042DC00D4E7BDE8F88F00BFC00300202DE9F843F8
:1042EC00074688464FF000094FF0FF362BE0DBB154
:1042FC003B1913F0010F17D008EB060138191922DE
:10430C00C9B2C0B2FFF746FF013464B20135EDB259
:10431C00022D12D808EB060313F00103E7D13A196A
:10432C0012F0010FE8D0E2E708EB0601381906227B
:10433C00C9B2C0B2FFF72EFFE6E7013676B209F13B
:10434C0001095FFA89F9B9F1020F03D800254FF082
:10435C00FF34DDE7BDE8F883F8B504460D46164694
:10436C001F46104900EBC0028B18885C93F806C0FE
:10437C0001F802C01A7A9A719A781A7298705A785F
:10438C00D9785970D979D9705979D9715A7131460E
:10439C002846FFF7A3FF3B46721E29462046FFF72F
:1043AC0013FFF8BDC0030020F8B505460C461646B1
:1043BC001F46FFF743FF611E3B46324649B2284673
:1043CC00FFF702FFF8BDF8B505460C4616461F462A
:1043DC00FFF734FF611C3B46324649B22846FFF7D3
:1043EC00F3FEF8BDF8B505460E4614461F46FFF71A
:1043FC0025FF621E3B4652B231462846FFF7E4FECB
:10440C00F8BD00002DE9F0414FF0000E75464FF05D
:10441C00FF3C2BE002EB0C080E19194F07EBC807F9
:10442C004FF0010807F806800135EDB2013464B293
:10443C000133DBB2022B11D800EBC007114E3E4406
:10444C00765D012EE6D002EB0C080E190C4F07EB33
:10445C00C8074FF0000807F80680E5E70CF1010CDF
:10446C004FFA8CFC0EF1010E5FFA8EFEBEF1020FBC
:10447C0003D800234FF0FF34DCE7BDE8F08100BF28
:10448C0024040020C0030020F0B400252A464FF07D
:10449C00FF3627E00132D2B2013040B20133DBB239
:1044AC00022B1BD814490978144C615C01EBC10137
:1044BC00134C2144895C0129ECD1124991F900106B
:1044CC0001393144104C94F9004004440F4F07EB70
:1044DC00C101095D0129DDD100200AE0013676B267
:1044EC000135EDB2022D03D800234FF0FF30D7E792
:1044FC000120F0BC704700BF23040020E40300201F
:10450C00C0030020B4030020B303002024040020C7
:10451C0038B5434B1B781E2B41D0282B55D00A2B7A
:10452C002AD0404B93F90040631E002B03DDFFF7AC
:10453C00ABFF002863D13C4D2B7822463B4991F9C7
:10454C0000103B48C05CFFF75DFF2B78022B52D864
:10455C0001332B70354B04221A70324B0A221A701D
:10456C00344A137801331370324B1B78092B02D960
:10457C00314B01221A7038BD2B4B18782F4B33F866
:10458C001030284A92F90020284991F90010284C43
:10459C00205CFFF7E1FE224B00221A70C1E7224B90
:1045AC001878224C254B33F810301E4A92F9002013
:1045BC0094F900101E4D285CFFF705FF184B0022E4
:1045CC001A70237801332370ABE7174B1878174C0C
:1045DC001A4B33F81030134A92F9002094F900105A
:1045EC00134D285CFFF7E0FE0D4B00221A70237868
:1045FC00013B237095E70C4B00221A70AAE70A4B7B
:10460C001B780B4AD05C094A92F90010651E054ACA
:10461C0015700A4A32F813302246FFF7E3FEA3E77F
:10462C0021040020B403002023040020B303002045
:10463C00E40300202004002074040020B8030020B0
:10464C0008B50020FFF78AFB4FF478435022642111
:10465C000148FFF7F9FC08BDD04F000808B5FFF77B
:10466C006FFD0FE0FFF742FD0A4B00221A700A4B58
:10467C001B78002BF6D0FFF739FDFFF749FF0748F1
:10468C00FEF7CCFE064B1B78002BF0D0FFF7D8FFC3
:10469C0008BD00BF2104002022040020400D0300AF
:1046AC007404002008B508210020FDF78DF820B90E
:1046BC00254B93F90030012B10DD0A210020FDF76A
:1046CC0083F890B9204B93F90030002B0DDD1F4B74
:1046DC0014221A701E4B01221A7008BD1B4B0A22A1
:1046EC001A701B4B01221A70F7E70B210020FDF703
:1046FC006BF820B9174B93F90030012B10DD092111
:10470C000020FDF761F890B9124B93F90030002BA3
:10471C000DDD0E4B28221A700D4B01221A70DCE7AE
:10472C000A4B1E221A700A4B01221A70D5E70C2173
:10473C000020FDF749F80028CFD1044B32221A7023
:10474C00034B01221A70C8E7E9030020750400200E
:10475C0076040020E803002010B582B0012813D0A5
:10476C00B0B1022812D0012914D0B9B1022913D04A
:10477C0001F11C0300F11B040092DBB20A46E1B20A
:10478C00FFF71DFB02B010BD3220ECE75220EAE728
:10479C001220E8E74121EBE76221E9E72021E7E776
:1047AC0010B582B00020FFF7D9FA4FF6FF735022F4
:1047BC0064216948FFF748FC4FF4784332225A21B0
:1047CC005820FFF745FB4FF6FF7332224621634812
:1047DC00FFF73AFC1F23322228214F20FFF738FB2A
:1047EC0013E0FFF75FFF5E48FEF718FE5D4B1B788A
:1047FC00002BF6D05C4B1B78282B37D0322B59D0A2
:10480C001E2B10D0574B00221A70584B1B78002BC4
:10481C00ECD0574B1B7803F0FF02002B51D0012A30
:10482C0074D002B010BD4FF6FF73009341233222B7
:10483C0069215520FFF7C3FA4FF4784332225A21ED
:10484C005820FFF705FB0024009441233222372126
:10485C002320FFF7B4FA1F23322228214F20FFF721
:10486C00F7FA434B1C70404B1C70CBE74FF6FF73B1
:10487C0000934123322237212320FFF7A0FA1F2374
:10488C00322228214F20FFF7E3FA00240094412321
:10489C00322269215520FFF792FA4FF478433222E5
:1048AC005A215820FFF7D4FA314B01221A702E4BA3
:1048BC001C70A7E72D4B01221A702B4B00221A708B
:1048CC00A0E70020FFF74AFA4FF6FF7350226E2143
:1048DC002848FFF7B9FB4FF4784350221421582095
:1048EC00FFF7B6FA4FF6FF7332226E212248FFF71C
:1048FC00ABFB1F23322214214F20FFF7A9FA1F4BC9
:10490C000A221A701E4B14221A708AE70020FFF735
:10491C0025FA4FF6FF7350226E211648FFF794FBD1
:10492C001F23502214214F20FFF792FA4FF6FF73EA
:10493C0032226E211048FFF787FB4FF47843322266
:10494C0014215820FFF784FA0C4B14221A700C4BCC
:10495C000A221A7065E700BF9C5B0008A85B000880
:10496C00400D03007604002075040020770400201D
:10497C00EB030020AC5B0008B45B0008860400204D
:10498C008704002010B582B00020FFF7E7F94FF63E
:10499C00FF74009482231E2232212D20FFF70FFA80
:1049AC00009482231E2252214D20FFF708FA009416
:1049BC0041233C2271210E20FFF701FA009462235F
:1049CC005D2271210E20FFF7FAF902B010BD000034
:1049DC002DE9F047B6B0074688461446294D4FF0EE
:1049EC006C0A524629460DEB0A0000F0A5FA524615
:1049FC00A918684600F0A0FA012F14D0BFB1022FFD
:104A0C0013D0B8F1010F14D0B8F1000F17D0B8F1D2
:104A1C00020F11D00A2C15D0142C02D14FF01F0903
:104A2C006E46002527E03227EBE75227E9E71227ED
:104A3C00E7E74FF04108EDE74FF06208EAE74FF087
:104A4C002008E7E74FF478491BAEEAE70134E4B2FB
:104A5C001A2C0ED856F82530E34013F0010FF5D080
:104A6C0008EB050138194A46C9B2C0B2FFF7E4F9A0
:104A7C00ECE70135EDB21A2D01D80024E8E736B089
:104A8C00BDE8F087C45A000838B504460D4600222C
:104A9C00FFF762FEC5F10203C4F1020103EB43030D
:104AAC00094A13445B5C0A2B02D0142B06D038BD88
:104ABC000A2229462046FFF78BFFF8E714222946E5
:104ACC002046FFF785FFF2E77C04002038B504464A
:104ADC000D4640F64102FFF73FFEC5F10203C4F15B
:104AEC00020103EB43030A4A13445B5C0A2B02D01A
:104AFC00142B06D038BD0A2229462046FFF768FF42
:104B0C00F8E7142229462046FFF762FFF2E700BFC0
:104B1C007C0400202D4B1A7859788A421AD070B434
:104B2C002A4BD8781B7998421BD0284CA579E4796C
:104B3C00A5421ED0824224D0994228D0234988789D
:104B4C004979884229D09A422FD0834235D000200F
:104B5C0070BC70479B789942E1D1002BDFD00120CB
:104B6C0070471A4C6479A342DFD1002CDDD00120B0
:104B7C00EEE7164E367AB442DCD1002EDAD00120A4
:104B8C00E6E7A842D8D1002DD6D00120E0E7A34219
:104B9C00D4D1002CD2D00120DAE70C4C247AA142DB
:104BAC00D1D1002CCFD00120D2E7084A127A9342FF
:104BBC00CBD1002AC9D00120CAE7AB4201D00020DA
:104BCC00C6E70DB90020C3E70120C1E77C04002033
:104BDC0070B582B0404B1C78012C0FD13F4B93F930
:104BEC000010C1F102033E4A92F90000C0F1020527
:104BFC0003EB43063B4A3244525D5AB3374B93F9AD
:104C0C000010C1F10203364A92F90000C0F102040F
:104C1C0003EB4303334A1344334A12781A55C9B28F
:104C2C00C0B2FFF753FFFFF775FF0446002841D1D0
:104C3C000125294B1D7000228C211E20FFF7DAF96B
:104C4C004FF6FF738C221E212846FFF78BF9204666
:104C5C0002B070BD3346234A1344244A12785A5585
:104C6C00C9B2C0B2FFF732FFFFF754FF054680B15F
:104C7C004FF6FF730093642346227F210020FFF739
:104C8C009EF84FF6E073502264211948FFF7DCF9C7
:104C9C00DDE70224104B1C7000228C211E20FFF734
:104CAC00A9F94FF6FF738C221E212046FFF75AF903
:104CBC002C46CCE74FF6FF730093642346227F21EA
:104CCC000020FFF77CF84FF6E0735022642108486F
:104CDC00FFF7BAF90124BAE7EA030020E903002040
:104CEC00E80300207C0400208704002086040020B8
:104CFC001C50000830B583B0FFF752FD5848FEF742
:104D0C008DFBFFF73FFE40F64102564B1978564B90
:104D1C001878FFF721FD4FF6FF738C22642153485E
:104D2C00FFF792F94FF6FF738C221E210120FFF73B
:104D3C0019F937E0FFF7B6FC4948FEF76FFB4C4B0F
:104D4C001B78002BF6D04B4B1B780A3B282B26D814
:104D5C00DFE803F0152525252525252525252E25D8
:104D6C0025252525252525253F25252525252525CD
:104D7C002525502525252525252525256100394C5A
:104D8C00394D21782878FFF77FFE2878217801317A
:104D9C00C9B22170FFF79AFE364B00221A70344BC1
:104DAC0000221A70344B1B78002BC8D003B030BDD6
:104DBC002C4C2D4D21782878FFF766FE2878217829
:104DCC000139C9B22170FFF781FE2A4B00221A70FB
:104DDC00E5E7244D244C29782078FFF755FE207800
:104DEC000130C0B220702978FFF770FE214B0022F1
:104DFC001A70D4E71B4D1C4C29782078FFF744FE21
:104E0C0020780138C0B220702978FFF75FFE194B6B
:104E1C0000221A70C3E7194A137801331370FFF795
:104E2C00D7FE30B1144B01221A70124B00221A70AB
:104E3C00B5E7124B1B78092BF7D10F4B01221A70D7
:104E4C004FF6FF730093642346227F210020FEF768
:104E5C00B6FF0023502264210948FFF7F5F8E4E778
:104E6C00400D0300E9030020E8030020BC5B0008B0
:104E7C0076040020750400208504002078040020AE
:104E8C00C45B000808B5FEF771FA02210846FEF76C
:104E9C0077FA0C210220FEF773FA08221146002043
:104EAC00FCF7D6FB012208210020FCF743FC08226A
:104EBC000A210020FCF7CCFB01220A210020FCF780
:104ECC0039FC08220B210020FCF7C2FB01220B212C
:104EDC000020FCF72FFC082209210020FCF7B8FB6E
:104EEC00012209210020FCF725FC08220C210020BE
:104EFC00FCF7AEFB01220C210020FCF71BFC02226C
:104F0C0001210020FCF7A4FB022211460020FCF733
:104F1C009FFB092205210020FCF79AFB092207219F
:104F2C000020FCF795FBFEF773FAFEF74FFAFEF73D
:104F3C00D7FEFBF7EBFBFCE710B5431E0A4491428E
:104F4C0000D110BD11F8014B03F8014FF7E7000039
:104F5C00534E414B450000005445545249530000F8
:104F6C0041524B414E4F49440000000043415253C3
:104F7C0000000000544943544143544F4500000085
:104F8C004D454D4F525900004348494348454E004A
:104F9C005041434D414E00004D494E5357454550ED
:104FAC00455200004D415A45000000008001C003ED
:104FBC00E007F00FF00FE007C0038001504F494E9F
:104FCC005400000047414D45204F5645520000000B
:104FDC0000000000E007E007E007E007E007E0075B
:104FEC00E007E007E007E007E00700000000000032
:104FFC00000000000000100810081008000000005D
:10500C00100810081008000000000000000000004C
:10501C00594F5520444F204954000000700E700E1B
:10502C004002000000000000000000000000000032
:10503C000000800180010000000000000000000062
:10504C0000000000E007F00FF00FE007E007C003DE
:10505C000000000000000000000000000000000044
:10506C000000C00300001C380E700E701FF81FF8F3
:10507C003FFC4662400280018001000000000000FD
:10508C0000000000000000000240024003C007E0E6
:10509C001FF8066000000000000000000000000087
:1050AC00C003F81FFC3FFE7FCC33C003C003C0031A
:1050BC00C003E007C00380018001000000008000F5
:1050CC0080008000C001C001E003E003F007F0079E
:1050DC00F007E003C001C0018000000000000000E8
:1050EC000000000000008001C003E007E007C003DF
:1050FC0080010000000000000000000053434F55E9
:10510C0052000000000000008001C003F00FF00FFF
:10511C00F81FFC3FFC3FF81FF00FF00FC00380019D
:10512C000000000000000000800080008000800073
:10513C0080008000FC1FF80FF007E003C001800026
:10514C000000000000000000000000000030000023
:10515C000030000000000000000000000000000013
:10516C000030000000300000003000000030000073
:10517C0000380000001C0000000E000000070000BA
:10518C00800100008001000080010000800100000F
:10519C00800100008001060080010600000303006E
:1051AC0000FE010000FC00000000000000000000F8
:1051BC0000000000000000000040000000E00000C3
:1051CC0000F0010000F8030000F8030000FC0700E9
:1051DC0000FC070000FE0F0000FE0F0000FE0F0099
:1051EC0000FE0F0000FF1F0000FF1F0000FF1F004C
:1051FC0000FF1F0000FF1F0000FF1F000000000049
:10520C000000000000000000000000000000000092
:10521C000000000000000000000000000000000082
:10522C000000000000000000000000000000000072
:10523C000000000000000000000000000000000062
:10524C000000000000000000000000000000000052
:10525C000000000000000000000000000000000042
:10526C00000000000000000000380000007C00007E
:10527C0000FE000000FE0000007C00000038000072
:10528C000000000000000000000000000000000012
:10529C000000000000000000000000000000000002
:1052AC0000000000000000000000000000000000F2
:1052BC0000000000000000000000000000000000E2
:1052CC0000000000000000000000000000000000D2
:1052DC000000000000000E0000001F0000803F00D6
:1052EC0000803F0000001F0000000E0000000000C6
:1052FC0000000000000000000000000000000000A2
:10530C000000000000000000000000000000000091
:10531C000000000000000000000000000000000081
:10532C000000000000000000000000000000000071
:10533C000000000000000000000000000000000061
:10534C000000000000E0000000F0010000F8030085
:10535C0000F8030000F0010000E000000000000075
:10536C000000000000000000F0030000E00100005D
:10537C00C0000000C0000000C0000000C000000021
:10538C00C0000000C0000000C0000000C000000011
:10539C00C0000000C0000000C0000000C000000001
:1053AC00C0000000C0000000C0000000C0000000F1
:1053BC00C0000000C0000000C0000000C0000000E1
:1053CC00C001000000000000000000000000000010
:1053DC0000000000000000000000000000000000C1
:1053EC0000000000000000000000000000000000B1
:1053FC00000000000000000000030000000F00008F
:10540C00003F000000FF000000FF030000FF0F0042
:10541C0000FF3F0000FF1F0000FF0F0000FF030014
:10542C0000FF0000003F0000000F00000002000021
:10543C000000000000000000000000000000000060
:10544C000000000000000000000000000000F80058
:10545C0000008C010000060300FC030200FE0300A8
:10546C0000FF0700805F0700C0B70700E05B070084
:10547C00E0ED0700F0760700F0BB0700F0DD070059
:10548C00F0EE030070F70100B0FF0000F03F0000E9
:10549C00F00F000000000000000000000000000001
:1054AC00000000000000000000000000E0FF3F00D2
:1054BC00E0FF3F00E0FF3F00E0FF3F00E0FF3F0068
:1054CC00E0FF3F00E0DF3F00E0FF3F00E0FF3F0078
:1054DC00E0FF3F00E0FB3E00E0FF3F00E0FF3F004D
:1054EC00E0FF3F00E0FF3F00E0FD3D00E0F838004A
:1054FC006070300020202000202020007070700090
:10550C0050505000707070002020200000000000EF
:10551C0052454D41494E4400000000008C319C39ED
:10552C00F81FF00FF00FFC3FFC3FF00FF00FF81FCF
:10553C009C398C31000000000000C01F800F00025D
:10554C00000200020002000200020002000200023F
:10555C000002000200020000000000000000000039
:10556C00000000000000C001F001F801F001E001B2
:10557C00C0018001000100004D494E45533A000026
:10558C0000183C7E7E3C1800004949497F3E3E0095
:10559C00FF03FF03FF0333033303FF03FE01FC0090
:1055AC00780030000000000000008400840000003F
:1055BC00000000000000000030007800FC00FE013C
:1055CC00FF0333033303FF03FF03FF03000000005B
:1055DC0000000000000084008400000000000000B7
:1055EC003F007F00E700E701FF03FF03E701E7004F
:1055FC007F003F00000000001800000000000000C9
:10560C000000180000000000F003F8039C039E0348
:10561C00FF03FF039E039C03F803F003000000004C
:10562C0060000000000000000000600000000000AE
:10563C00FC00FE01FF03FF03FF03FF03FE017800E4
:10564C00300010004C4556454C000000555020547D
:10565C004F204C4556454C00F800200020002000FF
:10566C002000FC01FA02F904F904FA02040100001A
:10567C00000030300000000000000030300000005E
:10568C00000002020202020202020202FE03FE03F8
:10569C0002020202060304018C01F8000000000063
:1056AC00FC0306020202020202020602FC030602CC
:1056BC000202020202020602FC0300000000FC00CF
:1056CC008601020300020002000200020002000236
:1056DC00000202038601FC0000000000F003180227
:1056EC000C0206020202020202020202020206027C
:1056FC000C021802F00300000000FE03000200027E
:10570C00000200020002FE0300020002000200027E
:10571C000002FE0300000000000200020002000272
:10572C0000020002FE03000200020002000200025E
:10573C00FE0300000000FC008601020302020202CC
:10574C007E027E0200020002000202038601FC00BF
:10575C000000000002020202020202020202020225
:10576C00FE03FE0302020202020202020202000017
:10577C000000FE03FE03200020002000200020007B
:10578C002000200020002000FE03FE03000000008B
:10579C00F8010C03040204020400040004000400D9
:1057AC00040004000400FE03FE03000000000202DB
:1057BC000202020206020C023802E0033002180256
:1057CC000C0206020202020200000000FE03FE03AD
:1057DC0000030003000300030003000300030003A5
:1057EC000003000300030000000002020202020298
:1057FC0002020202220272025202520252025202AD
:10580C0052028C01000000000E020A020A021A0267
:10581C0032022202220262024202C202820282028C
:10582C0082030000000070008800040102020202E2
:10583C00020202020202020202020401880070004B
:10584C000000000000020002000200020002000240
:10585C00FC0306020202020202020602FC03000022
:10586C00010072008C000C011202220202020202E0
:10587C000202020202020401880070000000000013
:10588C0002020402080210022002C003FC030602FA
:10589C000202020202020602FC0300000000780071
:1058AC0084000201020004000400F80080010001E1
:1058BC00000102018400780000000000200020009C
:1058CC0020002000200020002000200020002000CC
:1058DC002000FE03FE0300000000FC010601020391
:1058EC00020202020202020202020202020202028C
:1058FC0002020202000000002000D8008C0104010A
:10590C000603020202020202020202020202020266
:10591C000202000000008C0152025202520252029A
:10592C0052022202020202020202020202020202DB
:10593C0000000000020204010401880088005000ED
:10594C0020002000500088008800040102020000A2
:10595C00000020002000200020002000200020005B
:10596C007000D80088008C010603020200000000C1
:10597C00FE030002000180004000400020002000D7
:10598C001000080004000200FE030000000070007C
:10599C008800040104010401040104010401040150
:1059AC00040104018800700000000000F8002000D1
:1059BC0020002000200020002000200020002000DB
:1059CC002000A000600000000000FC0080008000AF
:1059DC0080004000200010000800040004000401B6
:1059EC0088007000000000007000880004010400B2
:1059FC0004000800F0000800040004000401880002
:105A0C007000000000000400040004000400040006
:105A1C00FE01040184004400240014000C00040066
:105A2C000000000070008800040104000400040061
:105A3C000800F0010001000100010001FC01000060
:105A4C000000700088000401040104018801700149
:105A5C00000100010001040188007000000000003A
:105A6C000001800080004000400020002000100059
:105A7C001000080008000400FC0100000000700089
:105A8C0088000401040104018800700088000401EE
:105A9C000401040188007000000000007000880000
:105AAC00040104000400040074008C0004010401CF
:105ABC0004018800700000000000000000000000DD
:105ACC00000000001800C0003800E00070007000FA
