:020000040800F2
:100000000050002021020008270200082B020008EF
:1000100043020008470200085F02000800000000D9
:10002000000000000000000000000000770200084F
:100030007B020008000000007F020008450C000859
:100040009102000891020008910200089102000844
:100050009102000891020008910200089102000834
:100060009102000891020008910200089102000824
:100070009102000891020008910200089102000814
:100080009102000891020008910200089102000804
:1000900091020008910200089102000891020008F4
:1000A00091020008910200089102000891020008E4
:1000B00091020008910200089102000891020008D4
:1000C00091020008910200089102000891020008C4
:1000D00091020008910200089102000891020008B4
:1000E000910200089102000891020008000000003F
:1000F0000000000000000000000000000000000000
:1001000000000000000000005FF808F100B583B0B7
:1001100000F0DEF8304B314A1360314A1360314B46
:10012000314A32498B4204D21168196004330432D7
:10013000F7E72A4B1A682E4B9A4200D0FEE7284B6D
:100140001A682C4B9A42F9D1234B2B4A13602B4A45
:1001500013602B4B02E000221A600433294A9342B9
:10016000F9D3254B1B6813B9244B1B6803B1FEE779
:1001700000F0BAF8694601A800F0A2F8224C234B1F
:10018000E41AA4100025AC4214DC214C214BE41AE3
:10019000A4100025AC4213DC0099019800F056FF32
:1001A00005461D4C1D4BE41AA410002C0EDC2846FD
:1001B00000F084F8154B53F8253098470135E2E7F5
:1001C000144B53F8253098470135E3E7013C134BB6
:1001D00053F824309847E8E7BABADECA0000002096
:1001E000B80000200000002070150008BC000020AE
:1001F0007856341232547698BC000020C800002093
:10020000BC000020CC000020BC020008BC0200089A
:10021000BC020008BC020008BC020008BC020008C6
:1002200008B5FFF773FF00BEFEE71EF0040F0CBF1A
:10023000EFF30880EFF309807146124A104700BEC1
:10024000FEE700BEFEE71EF0040F0CBFEFF30880D0
:10025000EFF3098071460C4A104700BEFEE71EF01E
:10026000040F0CBFEFF30880EFF309807146074AD3
:10027000104700BEFEE700BEFEE700BEFEE700BE80
:10028000FEE770473F0200085B02000873020008A7
:0402900000BEFEE7C7
:100294007015000800000020BC0000207015000844
:1002A4000000000000000000BC000020CC00002082
:0802B400000000000000000042
:1002BC00FEE7000001230360014B0B60704700BF99
:1002CC000400002008B500F073F8024A024B9A6053
:1002DC0008BD00BF0000000800ED00E008B500F00C
:1002EC008FF808BD82B00023019300932C4A136849
:1002FC0043F4803313602A4B1B6803F400330093E0
:10030C00019B01330193009B1BB9019BB3F5A06FBB
:10031C00F1D1234B1B6813F4003F06D0012300934B
:10032C00009B012B04D002B0704700230093F7E729
:10033C001C4B1A6842F010021A601A6822F0030271
:10034C001A601A6842F002021A60A3F580535A68C8
:10035C005A605A685A605A6842F480625A605A6805
:10036C0022F47C125A605A6842F4E8125A601A68F5
:10037C0042F080721A600A4B1B6813F0007FFAD0AF
:10038C00074B5A6822F003025A605A6842F0020284
:10039C005A60034B5B6803F00C03082BF9D1C2E7DE
:1003AC00001002400020024008B5FFF79BFF08BD7B
:1003BC0008B5104B1A6842F001021A6059680E4ACF
:1003CC000A405A601A6822F0847222F480321A6051
:1003DC001A6822F480221A605A6822F4FE025A60CB
:1003EC004FF41F029A60FFF7DFFF044B4FF00062DF
:1003FC009A6008BD001002400000FFF800ED00E01C
:10040C001F4B5B6803F00C03042B15D0082B17D083
:10041C001BB11C4B1C4A1A6002E01A4B1A4A1A6098
:10042C00174B5B68C3F30313184AD35CDAB2154954
:10043C000B68D3400B607047124B134A1A60EFE7FE
:10044C000F4A53685268C3F38343023312F4803F5C
:10045C000AD00B4A526812F4003F0BD00C4A02FB34
:10046C0003F3084A1360DBE7094A02FB03F3054A6E
:10047C001360D5E7044A02FB03F3024A1360CFE78B
:10048C00001002401C00002000127A000C0000201A
:10049C0000093D0000B583B0002000F049FC4FF688
:1004AC00FF7300939F238F227F21002000F071FCAB
:1004BC0000238F226E21074800F070FD4FF4784323
:1004CC008F2232210448007800F02EFD03B05DF835
:1004DC0004FB00BFFC100008C100002010B582B066
:1004EC004B1CDB00023BC9008C1C811C090102392E
:1004FC0000010230009203F0FE0304F0FE0201F052
:10050C00FE0100F0FE0000F044FC02B010BD000043
:10051C0070B51125002614E00234E4B2072C0CD877
:10052C000A4B03EBC5031B5D012BF5D14FF4FC62A9
:10053C0031462046FFF7D2FFEEE70136F6B2013D19
:10054C006DB2002D01DB0024E8E770BD2400002013
:10055C002DE9F04782B004460D464FEA001A5FFAC7
:10056C008AFA461C3601F6B24FEAC1095FFA89F9DC
:10057C004F1CFF00FFB24FF01F08CDF800803B4628
:10058C004A463146504600F004FC0235ED00EDB20F
:10059C00CDF800802B463A463146504600F0F9FB28
:1005AC0002342401E4B2CDF800803B464A46214691
:1005BC00304600F0EEFBCDF800802B463A46214643
:1005CC00304600F0E6FB02B0BDE8F087F0B585B030
:1005DC0007460E46134B0FCB04AC04E90F00002565
:1005EC0019E00134E4B20F2C13D804AB03EB450330
:1005FC0033F8103C234113F0010FF2D005EBC60188
:10060C0004EB07104FF47842C9B2C0B200F0FEFB05
:10061C00E7E70135EDB2072D01D80024E3E705B07B
:10062C00F0BD00BFEC100008064B93F90030012B15
:10063C0003D0044B01221A707047024B00221A702F
:10064C00704700BF20000020064B93F90030012BAF
:10065C0003D0044B01221A707047024B00221A700F
:10066C00704700BF2100002008B5204B93F90030E3
:10067C00012B09D083B91E4B93F90030062B0BDCF0
:10068C0001331B4A137007E0194A92F90020002A23
:10069C00F0DD013A164B1A70164B93F90030012B12
:1006AC001AD03BB9144B93F90030022B02DD013BFD
:1006BC00114A13700E4B93F900300BB1072B01D17B
:1006CC00FFF7B2FF0C4B93F90030022B01D0112B2A
:1006DC0001D1FFF7B9FF08BD074A92F90020102A93
:1006EC00DFDC0132044B1A70E4E700BF200000206D
:1006FC00B400002021000020B600002070B582B0AC
:10070C0004460D4610F0010F1FD04B1CDB00CA0035
:10071C00411C09010F3000010026009603F0F8037C
:10072C0002F0F80201F0F00100F0F00000F031FBF3
:10073C00C5F11105C4F10702134B03EBC505AE540B
:10074C00C4F108042E5502B070BD4B1CDB00CA006E
:10075C00811C090100010026009603F0F80302F049
:10076C00F80201F0F00100F0F00000F012FBC5F10E
:10077C001105C4F10702044B03EBC505AE54C4F1DB
:10078C0006042E55DFE700BF240000202DE9F047BA
:10079C0082B004460D464FEA001A5FFA8AFA461CEC
:1007AC003601F6B24FEAC1095FFA89F94F1CFF0016
:1007BC00FFB24FF00008CDF800803B464A46314668
:1007CC00504600F0E6FA0235ED00EDB2CDF80080AF
:1007DC002B463A463146504600F0DBFA02342401EF
:1007EC00E4B2CDF800803B464A462146304600F044
:1007FC00D0FACDF800802B463A462146304600F020
:10080C00C8FA02B0BDE8F08738B50821002000F026
:10081C007BF900B938BD0A21002000F075F90028D9
:10082C00F8D00B21002000F06FF998B109210020BD
:10083C0000F06AF90028EDD10D4D0E4C2978207886
:10084C00FFF7A4FF20780138C0B220702978FFF799
:10085C007FFEDFE7064D074C29782078FFF796FFDF
:10086C0020780130C0B220702978FFF771FED1E7F3
:10087C00C2000020B500002038B50D4D0D4C297874
:10088C002078FFF73BFF29780239C9B22078FFF7AF
:10089C009DFE094800F0B0F9002000F049FA4FF431
:1008AC00784350226421054800F078FB38BD00BF26
:1008BC00B6000020B4000020400D03000411000815
:1008CC0038B5FFF7E7FDFFF723FE2A4B19782A4BC3
:1008DC001878FFF73DFE294B1978294B1878FFF74C
:1008EC0075FE1EE0264CC9B22078FFF707FFFFF714
:1008FC00BBFE224D29782078FFF768FEFFF784FFB6
:10090C0095F90020C2F1110194F90030C3F10703ED
:10091C001C4A02EBC102D35C012B15D01A4800F023
:10092C006BF9164B93F900100229DBD1124B93F99A
:10093C000030134A92F900209342D3D001339A42EB
:10094C00D0D0FFF799FF38BD4FF6FF728F213220C0
:10095C0000F008FB0D4B18780130C0B218704FF442
:10096C0078438F22322100F0DFFAFFF75DFEFFF7AC
:10097C006BFED3E7C2000020B5000020B6000020BB
:10098C00B400002024000020A0860100C10000203B
:10099C0010B4012823D018B102283FD010BC7047E6
:1009AC0007290FD90F29F9D8A1F10804A4000F23A6
:1009BC00A3402A48016821EA030302FA04F119430F
:1009CC000160EBE789000F2303FA01F0244C236844
:1009DC0023EA000302FA01F119432160DEE707293B
:1009EC000FD90F29DAD8A1F1080080000F2383401A
:1009FC001C4C216821EA030302FA00F1194321601F
:100A0C00CCE789000F2303FA01F0174C236823EA83
:100A1C00000302FA01F119432160BFE707290FD93E
:100A2C000F29BBD8A1F108039B000F2098400F4C55
:100A3C00216821EA000002FA03F101432160ADE7CD
:100A4C0089000F2303FA01F0094C236823EA000301
:100A5C0002FA01F119432160A0E700BF040801402C
:100A6C0000080140040C0140000C0140041001403E
:100A7C0000100140012818D010B1022829D070476D
:100A8C00012A0AD0002A2FD1012303FA01F11B4AB3
:100A9C00136823EA010313607047012303FA01F181
:100AAC00164A13680B4313607047012A09D0DAB950
:100ABC00012303FA01F1124A136823EA01031360BC
:100ACC007047012303FA01F10D4A13680B431360BD
:100ADC007047012A09D03AB9012303FA01F1094AF6
:100AEC00136823EA010313607047012303FA01F131
:100AFC00044A13680B431360704700BF0C08014095
:100B0C000C0C01400C10014001280AD018B102282D
:100B1C000DD000207047094B1868C84000F0010048
:100B2C007047074B1868C84000F001007047054B30
:100B3C001868C84000F00100704700BF0808014069
:100B4C00080C014008100140034B4FF480321A602E
:100B5C00043301221A607047001002401F291CD870
:100B6C0001280BD010B1022810D07047012303FAD2
:100B7C0001F10A4A13680B4313607047012303FA0F
:100B8C0001F1074A13680B4313607047012303FA02
:100B9C0001F1044A13680B431360704714100240B0
:100BAC001C10024018100240024B40F247321A60EF
:100BBC00704700BF0030014038B505460C46002296
:100BCC0011461046FFF756FF074BDD60064B9B683E
:100BDC0013F0800FFAD1044BDB6823700122002143
:100BEC000846FFF747FF38BD00300140014B00229B
:100BFC001A60704710E000E00D4B18600D4A136846
:100C0C0043F0010313600B4B1B6813F4803FFAD0C5
:100C1C00084B1A6822F001021A601A6822F00202CC
:100C2C001A600023024A136004321360704700BF3D
:100C3C0014E000E010E000E008B50B4B1B786BB93A
:100C4C000A4B1A6822F002021A601A6842F001027A
:100C5C001A600023064A136004321360054B1B68AC
:100C6C009847024B1B6808BDC300002010E000E051
:100C7C0014E000E0C400002010B582B0044601224C
:100C8C0002210020FFF7F6FE0DF107012046FFF7C9
:100C9C0093FF02B010BD10B582B0044600220221B1
:100CAC001046FFF7E7FE0DF107012046FFF784FF22
:100CBC0002B010BD08B5012211460020FFF7DAFE84
:100CCC006420FFF799FF002201211046FFF7D2FEA6
:100CDC000120FFF791FF012211460020FFF7CAFE09
:100CEC006420FFF789FF002201211046FFF7C2FEA6
:100CFC006420FFF781FF012211460020FFF7BAFEA6
:100D0C000948FFF779FF1120FFF7C5FF0748FFF7E8
:100D1C0073FF3A20FFF7BFFF0520FFF7ADFF292037
:100D2C00FFF7B9FF08BD00BFC0D40100F0490200B5
:100D3C0038B505462A20FFF7AEFF0020FFF79CFFD1
:100D4C000020FFF799FF0020FFF796FF7F20FFF7A9
:100D5C0093FF2B20FFF79FFF0020FFF78DFF002054
:100D6C00FFF78AFF0020FFF787FF9F20FFF784FF24
:100D7C002C20FFF790FF002407E0280AFFF77CFFE8
:100D8C00E8B2FFF779FF0134A4B2B4F5A04FF4D365
:100D9C0038BD2DE9F8438146884617461C46BDF8F8
:100DAC0020600B1AA51A013503FB0555ADB22A209C
:100DBC00FFF771FF0020FFF75FFF4846FFF75CFF6E
:100DCC000020FFF759FF4046FFF756FF2B20FFF797
:100DDC0062FF0020FFF750FF3846FFF74DFF002061
:100DEC00FFF74AFF2046FFF747FF2C20FFF753FF82
:100DFC00002407E0300AFFF73FFFF0B2FFF73CFF9B
:100E0C000134A4B2AC42F5D3BDE8F88310B582B07E
:100E1C004B1C441C0092DBB20A46E1B2FFF7B9FF4F
:100E2C0002B010BD2DE9F843894690461F46413863
:100E3C00C0EB00104300104E1E44002515E0013499
:100E4C00E4B2092C0FD836F81530234113F0010FFA
:100E5C00F5D005EB080104EB09003A46C9B2C0B263
:100E6C00FFF7D4FFEBE70135EDB20E2D01D80024CE
:100E7C00E7E7BDE8F88300BF381100082DE9F84317
:100E8C00894690461F463038C0EB00104300104E88
:100E9C001E44002515E00134E4B2092C0FD836F8B5
:100EAC001530234113F0010FF5D005EB080104EBCD
:100EBC0009003A46C9B2C0B2FFF7A8FFEBE701350B
:100ECC00EDB20E2D01D80024E7E7BDE8F88300BF92
:100EDC00441400082DE9F843894690461F46C0EBA0
:100EEC00001043000F4E1E44002515E00134E4B2FF
:100EFC00092C0FD836F81530234113F0010FF5D01B
:100F0C0005EB080104EB09003A46C9B2C0B2FFF781
:100F1C007DFFEBE70135EDB20E2D01D80024E7E79C
:100F2C00BDE8F883441400082DE9F0410E4617463D
:100F3C0098460B4CA4FB0054E40804EB840C4FEAD9
:100F4C004C05401BC5B22046FFF7C4FFA6F10B01B0
:100F5C0043463A46C9B22846FFF7BCFFBDE8F081CC
:100F6C00CDCCCCCCF0B583B004460E46174601F17F
:100F7C000F05EDB200F10A0100922B463246C9B2C0
:100F8C00FFF707FF611EA4F10B0000972B463246BA
:100F9C00C9B2C0B2FFF7FDFE03B0F0BD2DE9F047BA
:100FAC0084B082460E4690461F464FF000092FE053
:100FBC006C46224B0FCB07C424F8023B1B0C23704E
:100FCC00002516E00134E4B2092C10D804AB2B44F4
:100FDC0013F8103C234113F0010FF3D005EB08017B
:100FEC0030193A46C9B2C0B2FFF710FFEAE7013533
:100FFC00EDB20E2D06D80024E6E73B4642463146BC
:10100C00FFF710FF0B3EF6B209F101095FFA89F9FF
:10101C001AF8090070B12028F4D03A28C8D0A0F1F1
:10102C003003DBB2092BE8D83B4642463146FFF78A
:10103C0025FFE7E704B0BDE8F08700BF28110008E2
:10104C0008B5FFF781FD02210846FFF787FD0C214B
:10105C000220FFF783FD082211460020FFF798FCC1
:10106C00012208210020FFF705FD08220A2100209B
:10107C00FFF78EFC01220A210020FFF7FBFC08225F
:10108C000B210020FFF784FC01220B210020FFF72D
:10109C00F1FC082209210020FFF77AFC012209212A
:1010AC000020FFF7E7FC022201210020FFF770FC73
:1010BC00022211460020FFF76BFC092205210020BB
:1010CC00FFF766FC092207210020FFF761FCFFF700
:1010DC008DFDFFF769FDFFF7EDFDFFF7F1FBFEE777
:1010EC008001C003E007F00FF00FE007C0038001A0
:1010FC00504F494E5400000047414D45204F564536
:10110C0052000000F8002000200020002000FC010C
:10111C00FA02F904F904FA0204010000000030306C
:10112C00000000000000003030000000000002024F
:10113C000202020202020202FE03FE030202020289
:10114C00060304018C01F80000000000FC030602F9
:10115C000202020202020602FC0306020202020260
:10116C0002020602FC0300000000FC0086010203E0
:10117C000002000200020002000200020002020350
:10118C008601FC0000000000F00318020C020602AD
:10119C000202020202020202020206020C021802FF
:1011AC00F00300000000FE03000200020002000237
:1011BC000002FE0300020002000200020002FE0315
:1011CC000000000000020002000200020002000207
:1011DC00FE0300020002000200020002FE030000F7
:1011EC000000FC0086010203020202027E027E0263
:1011FC0000020002000202038601FC000000000055
:10120C00020202020202020202020202FE03FE03B8
:10121C000202020202020202020200000000FE03AD
:10122C00FE032000200020002000200020002000D1
:10123C0020002000FE03FE0300000000F8010C0358
:10124C00040204020400040004000400040004006E
:10125C000400FE03FE030000000002020202020270
:10126C0006020C023802E003300218020C020602DD
:10127C000202020200000000FE03FE030003000352
:10128C00000300030003000300030003000300033A
:10129C00000300000000020202020202020202022B
:1012AC0022027202520252025202520252028C0169
:1012BC00000000000E020A020A021A023202220286
:1012CC00220262024202C2028202820282030000F5
:1012DC0000007000880004010202020202020202F5
:1012EC0002020202020204018800700000000000E9
:1012FC00000200020002000200020002FC030602CF
:10130C000202020202020602FC030000010072004B
:10131C008C000C01120222020202020202020202E0
:10132C0002020401880070000000000002020402A6
:10133C00080210022002C003FC0306020202020291
:10134C0002020602FC030000000078008400020187
:10135C00020004000400F8008001000100010201F9
:10136C0084007800000000002000200020002000F5
:10137C002000200020002000200020002000FE0380
:10138C00FE0300000000FC0106010203020202023F
:10139C000202020202020202020202020202020221
:1013AC00000000002000D8008C010401060302029A
:1013BC000202020202020202020202020202000005
:1013CC0000008C01520252025202520252022202BC
:1013DC0002020202020202020202020200000000E9
:1013EC000202040104018800880050002000200043
:1013FC005000880088000401020200000000200058
:10140C002000200020002000200020007000D800C8
:10141C0088008C010603020200000000FE0300029B
:10142C000001800040004000200020001000080057
:10143C0004000200FE03000000007000880004019C
:10144C000401040104010401040104010401040168
:10145C008800700000000000F80020002000200030
:10146C002000200020002000200020002000A000F0
:10147C00600000000000FC00800080008000400044
:10148C002000100008000400040004018800700013
:10149C000000000070008800040104000400080033
:1014AC00F000080004000400040188007000000033
:1014BC00000004000400040004000400FE01040108
:1014CC0084004400240014000C0004000000000000
:1014DC007000880004010400040004000800F001FE
:1014EC000001000100010001FC010000000070007F
:1014FC00880004010401040188017001000100014D
:10150C000001040188007000000000000001800050
:10151C008000400040002000200010001000080057
:10152C0008000400FC0100000000700088000401A9
:10153C000401040188007000880004010401040106
:10154C008800700000000000700088000401040096
:10155C000400040074008C000401040104018800E0
:04156C00700000000B
:1015700078563412C0000020000000000000000077
:1015800000000000010203040607080900A24A0443
:101590000101FFFF0101010101010101010101013F
:1015A000010101010101010101010101010101012B
:1015B000010101010101010101010101010101011B
:1015C000010101010101010101010101010101010B
:1015D00001010101010101010101010101010101FB
:1015E00001010101010101010101010100000000EF
:1015F00000000000000000000000000000000000EB
:1016000000000000000000000000000000000000DA
:1016100000000000000000000000000000000000CA
:0C16200000000000030302FF3254769823
:040000050800010DE1
:00000001FF
