:020000040800F2
:100000000050002021020008270200082B020008EF
:1000100043020008470200085F02000800000000D9
:10002000000000000000000000000000770200084F
:100030007B020008000000007F020008590F000842
:100040009102000891020008910200089102000844
:100050009102000891020008910200089102000834
:100060009102000891020008910200089102000824
:100070009102000891020008910200089102000814
:100080009102000891020008910200089102000804
:1000900091020008910200089102000891020008F4
:1000A00091020008910200089102000891020008E4
:1000B00091020008910200089102000891020008D4
:1000C00091020008910200089102000891020008C4
:1000D00091020008910200089102000891020008B4
:1000E000910200089102000891020008000000003F
:1000F0000000000000000000000000000000000000
:1001000000000000000000005FF808F100B583B0B7
:1001100000F0DEF8304B314A1360314A1360314B46
:10012000314A32498B4204D21168196004330432D7
:10013000F7E72A4B1A682E4B9A4200D0FEE7284B6D
:100140001A682C4B9A42F9D1234B2B4A13602B4A45
:1001500013602B4B02E000221A600433294A9342B9
:10016000F9D3254B1B6813B9244B1B6803B1FEE779
:1001700000F0BAF8694601A800F0A2F8224C234B1F
:10018000E41AA4100025AC4214DC214C214BE41AE3
:10019000A4100025AC4213DC0099019801F0E0F8AE
:1001A00005461D4C1D4BE41AA410002C0EDC2846FD
:1001B00000F084F8154B53F8253098470135E2E7F5
:1001C000144B53F8253098470135E3E7013C134BB6
:1001D00053F824309847E8E7BABADECA0000002096
:1001E000E40000200000002008190008E8000020BA
:1001F0007856341232547698E8000020F800002037
:10020000E8000020FC000020BC020008BC0200083E
:10021000BC020008BC020008BC020008BC020008C6
:1002200008B5FFF773FF00BEFEE71EF0040F0CBF1A
:10023000EFF30880EFF309807146124A104700BEC1
:10024000FEE700BEFEE71EF0040F0CBFEFF30880D0
:10025000EFF3098071460C4A104700BEFEE71EF01E
:10026000040F0CBFEFF30880EFF309807146074AD3
:10027000104700BEFEE700BEFEE700BEFEE700BE80
:10028000FEE770473F0200085B02000873020008A7
:0402900000BEFEE7C7
:100294000819000800000020E800002008190008E0
:1002A4000000000000000000E8000020FC00002026
:0802B400000000000000000042
:1002BC00FEE7000001230360014B0B60704700BF99
:1002CC000400002008B500F073F8024A024B9A6053
:1002DC0008BD00BF0000000800ED00E008B500F00C
:1002EC008FF808BD82B00023019300932C4A136849
:1002FC0043F4803313602A4B1B6803F400330093E0
:10030C00019B01330193009B1BB9019BB3F5A06FBB
:10031C00F1D1234B1B6813F4003F06D0012300934B
:10032C00009B012B04D002B0704700230093F7E729
:10033C001C4B1A6842F010021A601A6822F0030271
:10034C001A601A6842F002021A60A3F580535A68C8
:10035C005A605A685A605A6842F480625A605A6805
:10036C0022F47C125A605A6842F4E8125A601A68F5
:10037C0042F080721A600A4B1B6813F0007FFAD0AF
:10038C00074B5A6822F003025A605A6842F0020284
:10039C005A60034B5B6803F00C03082BF9D1C2E7DE
:1003AC00001002400020024008B5FFF79BFF08BD7B
:1003BC0008B5104B1A6842F001021A6059680E4ACF
:1003CC000A405A601A6822F0847222F480321A6051
:1003DC001A6822F480221A605A6822F4FE025A60CB
:1003EC004FF41F029A60FFF7DFFF044B4FF00062DF
:1003FC009A6008BD001002400000FFF800ED00E01C
:10040C001F4B5B6803F00C03042B15D0082B17D083
:10041C001BB11C4B1C4A1A6002E01A4B1A4A1A6098
:10042C00174B5B68C3F30313184AD35CDAB2154954
:10043C000B68D3400B607047124B134A1A60EFE7FE
:10044C000F4A53685268C3F38343023312F4803F5C
:10045C000AD00B4A526812F4003F0BD00C4A02FB34
:10046C0003F3084A1360DBE7094A02FB03F3054A6E
:10047C001360D5E7044A02FB03F3024A1360CFE78B
:10048C00001002401C00002000127A000C0000201A
:10049C0000093D0010B4012823D018B102283FD028
:1004AC0010BC704707290FD90F29F9D8A1F10804FE
:1004BC00A4000F23A3402A48016821EA030302FA8F
:1004CC0004F119430160EBE789000F2303FA01F0F3
:1004DC00244C236823EA000302FA01F1194321603A
:1004EC00DEE707290FD90F29DAD8A1F1080080001F
:1004FC000F2383401C4C216821EA030302FA00F10C
:10050C0019432160CCE789000F2303FA01F0174C43
:10051C00236823EA000302FA01F119432160BFE7C3
:10052C0007290FD90F29BBD8A1F108039B000F2075
:10053C0098400F4C216821EA000002FA03F10143B4
:10054C002160ADE789000F2303FA01F0094C236801
:10055C0023EA000302FA01F119432160A0E700BF6E
:10056C000408014000080140040C0140000C01404B
:10057C000410014000100140012818D010B10228CD
:10058C0029D07047012A0AD0002A2FD1012303FA5F
:10059C0001F11B4A136823EA01031360704701231E
:1005AC0003FA01F1164A13680B4313607047012AD2
:1005BC0009D0DAB9012303FA01F1124A136823EACC
:1005CC00010313607047012303FA01F10D4A13680C
:1005DC000B4313607047012A09D03AB9012303FA7F
:1005EC0001F1094A136823EA0103136070470123E0
:1005FC0003FA01F1044A13680B431360704700BF00
:10060C000C0801400C0C01400C10014001280AD0D0
:10061C0018B102280DD000207047094B1868C8404B
:10062C0000F001007047074B1868C84000F001004B
:10063C007047054B1868C84000F00100704700BFB8
:10064C0008080140080C01400810014070B582B048
:10065C00002000F0F7FC4FF6FF738C226E2115483A
:10066C0000F026FE4FF478438C22282112480078A3
:10067C0000F0E4FD002517E0200101300134E4B264
:10068C006B1C1B01013B2A0101322101013946F28D
:10069C002C360096DBB2D2B2C9B2C0B200F003FD68
:1006AC00072CE9D90135EDB2072D01D80024F7E765
:1006BC0002B070BD881400082000002008B512019B
:1006CC00090102F0F00201F0F00100F08DFD08BD0F
:1006DC00F0B589B007460E466C46144D0FCD0FC4CD
:1006EC0095E80F0084E80F00002518E00134E4B20F
:1006FC000F2C12D808AB03EB450333F8203C2341F5
:10070C0013F0010FF2D005EB061104EB07100022D9
:10071C00C9B2C0B200F004FDE8E70135EDB20F2D0F
:10072C0001D80024E4E709B0F0BD00BF281400088C
:10073C00F0B591B005460E46294C08AF04F1200CDB
:10074C00BCE80F000FC79CE80F0087E80F006F464E
:10075C0040340FCC0FC794E80F0087E80F00002738
:10076C0018E00134E4B20F2C12D810AB03EB4703A2
:10077C0033F8203C234113F0010FF2D007EB0611A4
:10078C0004EB05100022C9B2C0B200F0C9FCE8E7C6
:10079C000137FFB20F2F01D80024E4E7002719E03E
:1007AC000134E4B20F2C13D810AB03EB470333F82E
:1007BC00403C234113F0010FF2D007EB061104EB80
:1007CC0005104FF47842C9B2C0B200F0A9FCE7E7BB
:1007DC000137FFB20F2F01D80024E3E711B0F0BDB1
:1007EC002814000810B582B04B1C1B01013B0901F9
:1007FC004A1C411C090101390001013040F6410439
:10080C000094DBB2D2B2C9B2C0B200F04CFC02B060
:10081C0010BD000008B508210020FFF7F7FE20B935
:10082C002B4B93F90030062B10DD0A210020FFF72B
:10083C00EDFE90B9264B93F90030002B0DDD254BC6
:10084C0014221A70244B01221A7005E0214B0A2243
:10085C001A70214B01221A7008BD0B210020FFF7E2
:10086C00D5FE20B91D4B93F90030062B10DD092164
:10087C000020FFF7CBFE90B9184B93F90030002BFA
:10088C000DDD144B28221A70134B01221A70E3E76A
:10089C00104B1E221A70104B01221A70DCE70C212F
:1008AC000020FFF7B3FE30B90A4B32221A700A4B04
:1008BC0001221A70D0E70F210020FFF7A7FE0028B5
:1008CC00CAD1044B3C221A70034B01221A70C3E7A5
:1008DC00F2000020ED000020EE000020F1000020CE
:1008EC0010B582B04B1C1B01013B09014A1C411C79
:1008FC00090101390001013046F22C340094DBB2BD
:10090C00D2B2C9B2C0B200F0CEFB02B010BD000032
:10091C0010B5C1F10704C0F107020A4B03EBC40385
:10092C009B5C0A2B04D0142B05D01E2B06D010BDBB
:10093C00FFF7D6FFFBE700F061F8F8E7FFF7F8FEEA
:10094C00F5E700BFA4000020F0B583B0C1F10701AA
:10095C00C0F10700264B03EBC1031E5C002540E0F1
:10096C00B34230D00134E4B2072C38D829462046A3
:10097C001F4B03EBC5031B5DB342F1D11D4A02EBC8
:10098C00C502125D002AEBD11B4B03EBC5031422ED
:10099C001A55C4F10707C4F10800C5F10702C5F1E7
:1009AC0008031B01013B120101320101013938011D
:1009BC00013041F2A2070097DBB2D2B2C9B2C0B289
:1009CC0000F071FBCEE70C4B03EBC10314221A545D
:1009DC00C1F10701C0F10700FFF79AFFC2E701352B
:1009EC00EDB2072D01D80024BEE703B0F0BD00BF67
:1009FC006400002024000020A40000202DE9F04F0A
:100A0C0083B080468946C1F1070B5FFA8BFBC0F1BE
:100A1C00070A5FFA8AFA06010136F6B2441C240171
:100A2C00013CE4B20F010137FFB24D1C2D01013D19
:100A3C00EDB246F22C3300932B463A462146304613
:100A4C0000F031FB374B03EBCB0B1BF80A30BBB17F
:100A5C00012B25D0022B33D0032B42D0042B51D0A9
:100A6C00092B1AD141F2A20300932B463A46214698
:100A7C00304600F018FB49464046FFF729FE0CE0D3
:100A8C0049464046FFF760FF41F2A20300932B4614
:100A9C003A462146304600F006FB03B0BDE8F08F25
:100AAC0041F2A20300932B463A462146304600F011
:100ABC00FAFA1F234A4641460120FFF7FFFDECE7F7
:100ACC0041F2A20300932B463A462146304600F0F1
:100ADC00EAFA4FF448734A4641460220FFF7EEFD0E
:100AEC00DBE741F2A20300932B463A4621463046FF
:100AFC0000F0D9FA4FF410434A4641460320FFF761
:100B0C00DDFDCAE741F2A20300932B463A4621468B
:100B1C00304600F0C8FA0C234A4641460420FFF741
:100B2C00CDFDBAE724000020C1F10701C0F1070098
:100B3C00044B03EBC1010B5C092B01D00020704767
:100B4C0001207047240000200021072936D80023FB
:100B5C00072B30D830B409E0194D05EBC105ED5C1D
:100B6C001E2D0BD10133DBB2072B1CD80C461846BB
:100B7C00144A02EBC102D25C092AEDD0092A0AD030
:100B8C00092AEFD00E4A02EBC402125C1E2AE9D1EC
:100B9C00002030BC70470A4D05EBC4052D5C1E2DA2
:100BAC00EED00020F5E70131C9B2072901D80023A6
:100BBC00DAE70120EDE70131C9B2C6E70120704741
:100BCC00A40000202400002000B583B00020009079
:100BDC00642346227F2100F066FA4FF478435022BA
:100BEC006421034800F064FB03B05DF804FB00BF14
:100BFC009C14000870B582B0FFF728FD8C4B197857
:100C0C008C4B1878FFF7EEFD44E0FFF703FE8A48A3
:100C1C0000F07CF9894B1B78002BF6D0884B1B78A5
:100C2C000A3B322B2BD8DFE803F01A2A2A2A2A2A6D
:100C3C002A2A2A2A452A2A2A2A2A2A2A2A2A562AC1
:100C4C002A2A2A2A2A2A2A2A672A2A2A2A2A2A2ABB
:100C5C002A2A782A2A2A2A2A2A2A2A2ABE00744CC4
:100C6C00744D21782878FFF753FE287821780131CC
:100C7C00C9B22170FFF7B6FD714B00221A706F4B91
:100C8C0000221A706F4B1B7823B9FFF75DFF002809
:100C9C0040F0BA806C4B1B78002BBBD06B4B1B7895
:100CAC00012B00F0B5806A4800F030F9FFF78CFF9B
:100CBC0002B070BD5E4C5F4D21782878FFF728FE9E
:100CCC00287821780139C9B22170FFF78BFD5C4B74
:100CDC0000221A70D3E7564D564C29782078FFF72E
:100CEC0017FE20780130C0B220702978FFF77AFD0A
:100CFC00534B00221A70C2E74D4D4E4C2978207888
:100D0C00FFF706FE20780138C0B220702978FFF773
:100D1C0069FD4B4B00221A70B1E7454B93F900204B
:100D2C00C2F10701434B93F90030C3F10703494A61
:100D3C0002EBC102D35C0A2B01D01E2B1AD11E2B45
:100D4C001CD03B4D95F90010C1F10706394C94F9B4
:100D5C000000C0F107023F4B03EBC60314269E5460
:100D6C00C9B2C0B2FFF7D4FD29782078FFF7DCFEBA
:100D7C00354B1870324B00221A7080E7314B1B78C0
:100D8C00092B02D801332F4A137000228C21282002
:100D9C0000F072FA4FF478438C222821294800780D
:100DAC0000F04CFACDE7274B1B787BB1204B93F925
:100DBC000010C1F107041F4B93F90000C0F10702AA
:100DCC00244B03EBC4039B5C0A2B03D01C4B00226B
:100DDC001A7054E71F4B03EBC4041E23A354C9B26F
:100DEC00C0B2FFF795FD174C2378013B237000220E
:100DFC008C21282000F040FA4FF478438C222821D3
:100E0C00207800F01BFAE1E7104B01221A7045E73D
:100E1C0000200090642346227F2100F044F94FF615
:100E2C00E073502264210C4800F042FA40E700BF06
:100E3C00F2000020F1000020400D0300EE00002025
:100E4C00ED00002020000020EF000020F00000202A
:100E5C0040420F00A400002090140008034B4FF4F4
:100E6C0080321A60043301221A607047001002406D
:100E7C001F291CD801280BD010B1022810D07047A4
:100E8C00012303FA01F10A4A13680B4313607047FC
:100E9C00012303FA01F1074A13680B4313607047EF
:100EAC00012303FA01F1044A13680B4313607047E2
:100EBC00141002401C10024018100240024B40F269
:100ECC0047321A60704700BF0030014038B5054604
:100EDC000C46002211461046FFF74EFB074BDD6017
:100EEC00064B9B6813F0800FFAD1044BDB68237020
:100EFC00012200210846FFF73FFB38BD00300140BE
:100F0C00014B00221A60704710E000E00D4B186096
:100F1C000D4A136843F0010313600B4B1B6813F469
:100F2C00803FFAD0084B1A6822F001021A601A6846
:100F3C0022F002021A600023024A1360043213608A
:100F4C00704700BF14E000E010E000E008B50B4B68
:100F5C001B786BB90A4B1A6822F002021A601A68E5
:100F6C0042F001021A600023064A13600432136037
:100F7C00054B1B689847024B1B6808BDF30000200B
:100F8C0010E000E014E000E0F400002010B582B0A6
:100F9C000446012202210020FFF7EEFA0DF10701B1
:100FAC002046FFF793FF02B010BD10B582B0044687
:100FBC00002202211046FFF7DFFA0DF1070120464F
:100FCC00FFF784FF02B010BD08B5012211460020C6
:100FDC00FFF7D2FA6420FFF799FF00220121104697
:100FEC00FFF7CAFA0120FFF791FF012211460020FA
:100FFC00FFF7C2FA6420FFF789FF00220121104697
:10100C00FFF7BAFA6420FFF781FF01221146002096
:10101C00FFF7B2FA0948FFF779FF1120FFF7C5FF78
:10102C000748FFF773FF3A20FFF7BFFF0520FFF7D4
:10103C00ADFF2920FFF7B9FF08BD00BFC0D40100E8
:10104C00F049020038B505462A20FFF7AEFF002014
:10105C00FFF79CFF0020FFF799FF0020FFF796FF9A
:10106C007F20FFF793FF2B20FFF79FFF0020FFF758
:10107C008DFF0020FFF78AFF0020FFF787FF9F20DE
:10108C00FFF784FF2C20FFF790FF002407E0280ACD
:10109C00FFF77CFFE8B2FFF779FF0134A4B2B4F597
:1010AC00A04FF4D338BD2DE9F84381468846174646
:1010BC001C46BDF820600B1AA51A013503FB05551B
:1010CC00ADB22A20FFF771FF0020FFF75FFF484603
:1010DC00FFF75CFF0020FFF759FF4046FFF756FF74
:1010EC002B20FFF762FF0020FFF750FF3846FFF779
:1010FC004DFF0020FFF74AFF2046FFF747FF2C204B
:10110C00FFF753FF002407E0300AFFF73FFFF0B270
:10111C00FFF73CFF0134A4B2AC42F5D3BDE8F88331
:10112C0010B582B04B1C441C0092DBB20A46E1B2F3
:10113C00FFF7B9FF02B010BD2DE9F8438946904680
:10114C001F464138C0EB00104300104E1E440025D2
:10115C0015E00134E4B2092C0FD836F815302341D0
:10116C0013F0010FF5D005EB080104EB09003A462A
:10117C00C9B2C0B2FFF7D4FFEBE70135EDB20E2DCB
:10118C0001D80024E7E7BDE8F88300BFD0140008BD
:10119C002DE9F843894690461F463038C0EB0010C5
:1011AC004300104E1E44002515E00134E4B2092C16
:1011BC000FD836F81530234113F0010FF5D005EB9D
:1011CC00080104EB09003A46C9B2C0B2FFF7A8FF08
:1011DC00EBE70135EDB20E2D01D80024E7E7BDE8B1
:1011EC00F88300BFDC1700082DE9F84389469046C8
:1011FC001F46C0EB001043000F4E1E44002515E0A7
:10120C000134E4B2092C0FD836F81530234113F011
:10121C00010FF5D005EB080104EB09003A46C9B201
:10122C00C0B2FFF77DFFEBE70135EDB20E2D01D813
:10123C000024E7E7BDE8F883DC1700082DE9F0414E
:10124C000E46174698460B4CA4FB0054E40804EBDE
:10125C00840C4FEA4C05401BC5B22046FFF7C4FF77
:10126C00A6F10B0143463A46C9B22846FFF7BCFF2C
:10127C00BDE8F081CDCCCCCCF0B583B004460E46A5
:10128C00174601F10F05EDB200F10A0100922B4651
:10129C003246C9B2FFF707FF611EA4F10B0000979D
:1012AC002B463246C9B2C0B2FFF7FDFE03B0F0BD0B
:1012BC002DE9F04784B082460E4690461F464FF00B
:1012CC0000092FE06C46224B0FCB07C424F8023BDD
:1012DC001B0C2370002516E00134E4B2092C10D845
:1012EC0004AB2B4413F8103C234113F0010FF3D043
:1012FC0005EB080130193A46C9B2C0B2FFF710FF2E
:10130C00EAE70135EDB20E2D06D80024E6E73B46A0
:10131C0042463146FFF710FF0B3EF6B209F10109C8
:10132C005FFA89F91AF8090070B12028F4D03A282C
:10133C00C8D0A0F13003DBB2092BE8D83B464246BB
:10134C003146FFF725FFE7E704B0BDE8F08700BFA3
:10135C00C014000808B5FFF781FD02210846FFF70D
:10136C0087FD0C210220FFF783FD08221146002087
:10137C00FFF790F8012208210020FFF7FDF8082262
:10138C000A210020FFF786F801220A210020FFF72E
:10139C00F3F808220B210020FFF77CF801220B2127
:1013AC000020FFF7E9F8082209210020FFF772F866
:1013BC00012209210020FFF7DFF808220C21002070
:1013CC00FFF768F801220C210020FFF7D5F808225E
:1013DC000F210020FFF75EF801220F210020FFF7FC
:1013EC00CBF8022201210020FFF754F8022211460B
:1013FC000020FFF74FF8092205210020FFF74AF8DB
:10140C00092207210020FFF745F8FFF779FDFFF7C8
:10141C0055FDFFF7D9FDFFF7EDFBFEE700000000DF
:10142C008C319C39F81FF00FF00FFC3FFC3FF00F94
:10143C00F00FF81F9C398C31000000000000C01F19
:10144C00800F0002000200020002000200020002F3
:10145C000002000200020002000200000000000076
:10146C0000000000000000000000C001F001F801C5
:10147C00F001E001C0018001000100004D494E4522
:10148C00533A0000594F5520444F20495400000056
:10149C0047414D45204F564552000000F8002000B2
:1014AC00200020002000FC01FA02F904F904FA02E1
:1014BC00040100000000303000000000000000308B
:1014CC0030000000000002020202020202020202CC
:1014DC00FE03FE0302020202060304018C01F80063
:1014EC0000000000FC0306020202020202020602D5
:1014FC00FC0306020202020202020602FC030000C6
:10150C000000FC008601020300020002000200023F
:10151C0000020002000202038601FC000000000031
:10152C00F00318020C02060202020202020202027C
:10153C00020206020C021802F00300000000FE0377
:10154C0000020002000200020002FE030002000280
:10155C00000200020002FE03000000000002000274
:10156C000002000200020002FE0300020002000260
:10157C0000020002FE0300000000FC0086010203D2
:10158C00020202027E027E0200020002000202033C
:10159C008601FC00000000000202020202020202AC
:1015AC0002020202FE03FE03020202020202020215
:1015BC00020200000000FE03FE03200020002000B9
:1015CC00200020002000200020002000FE03FE034D
:1015DC0000000000F8010C030402040204000400E3
:1015EC0004000400040004000400FE03FE030000D9
:1015FC00000002020202020206020C023802E003A0
:10160C00300218020C020602020202020000000064
:10161C00FE03FE03000300030003000300030003AA
:10162C00000300030003000300030000000002029B
:10163C00020202020202020222027202520252024E
:10164C005202520252028C01000000000E020A02E9
:10165C000A021A0232022202220262024202C2026E
:10166C0082028202820300000000700088000401E4
:10167C00020202020202020202020202020204013D
:10168C00880070000000000000020002000200024E
:10169C0000020002FC03060202020202020206021F
:1016AC00FC030000010072008C000C0112022202EB
:1016BC00020202020202020202020401880070000D
:1016CC000000000002020402080210022002C00303
:1016DC00FC0306020202020202020602FC030000E4
:1016EC000000780084000201020004000400F800ED
:1016FC00800100010001020184007800000000005C
:10170C0020002000200020002000200020002000CD
:10171C00200020002000FE03FE0300000000FC015E
:10172C000601020302020202020202020202020289
:10173C000202020202020202000000002000D80095
:10174C008C010401060302020202020202020202DE
:10175C00020202020202000000008C01520252023C
:10176C00520252025202220202020202020202023D
:10177C0002020202000000000202040104018800BF
:10178C0088005000200020005000880088000401D0
:10179C000202000000002000200020002000200099
:1017AC00200020007000D80088008C010603020283
:1017BC0000000000FE030002000180004000400019
:1017CC00200020001000080004000200FE030000AE
:1017DC0000007000880004010401040104010401EC
:1017EC0004010401040104018800700000000000E1
:1017FC00F800200020002000200020002000200005
:10180C00200020002000A000600000000000FC0070
:10181C0080008000800040002000100008000400C0
:10182C0004000401880070000000000070008800B3
:10183C000401040004000800F00008000400040087
:10184C000401880070000000000004000400040083
:10185C0004000400FE010401840044002400140070
:10186C000C0004000000000070008800040104005B
:10187C00040004000800F001000100010001000157
:10188C00FC01000000007000880004010401040148
:10189C008801700100010001000104018800700042
:1018AC00000000000001800080004000400020008B
:1018BC00200010001000080008000400FC010000CB
:1018CC00000070008800040104010401880070000D
:1018DC00880004010401040188007000000000006D
:1018EC0070008800040104000400040074008C00E3
:0C18FC00040104010401880070000000D9
:1019080078563412EC0000200000000000000000AF
:1019180000000000010203040607080900A24A04A7
:101928000AFFFFFF01020902090100000903010281
:10193800010100000902000101010000020200018A
:101948000902010009030202020901000209090152
:101958000101010002030301000000000109010068
:101968000000000000000000000101010002020266
:10197800000101010002020200010101000202024D
:101988000000010100020202000001010000000144
:101998000101010100000001010101010000010134
:1019A800010101010A0A0A0A0A0A0A0A0A0A0A0AB3
:1019B8000A0A0A0A0A0A0A0A0A0A0A0A0A0A0A0A7F
:1019C8000A0A0A0A0A0A0A0A0A0A0A0A0A0A0A0A6F
:1019D8000A0A0A0A0A0A0A0A0A0A0A0A0A0A0A0A5F
:0819E8000A0A0A0A325476983B
:040000050800010DE1
:00000001FF
