:020000040800F2
:100000000050002021020008270200082B020008EF
:1000100043020008470200085F02000800000000D9
:10002000000000000000000000000000770200084F
:100030007B020008000000007F020008090700089A
:100040009102000891020008910200089102000844
:100050009102000891020008910200089102000834
:100060009102000891020008910200089102000824
:100070009102000891020008910200089102000814
:100080009102000891020008910200089102000804
:1000900091020008910200089102000891020008F4
:1000A00091020008910200089102000891020008E4
:1000B00091020008910200089102000891020008D4
:1000C00091020008910200089102000891020008C4
:1000D00091020008910200089102000891020008B4
:1000E000910200089102000891020008000000003F
:1000F0000000000000000000000000000000000000
:1001000000000000000000005FF808F100B583B0B7
:1001100000F0DEF8304B314A1360314A1360314B46
:10012000314A32498B4204D21168196004330432D7
:10013000F7E72A4B1A682E4B9A4200D0FEE7284B6D
:100140001A682C4B9A42F9D1234B2B4A13602B4A45
:1001500013602B4B02E000221A600433294A9342B9
:10016000F9D3254B1B6813B9244B1B6803B1FEE779
:1001700000F0BAF8694601A800F0A2F8224C234B1F
:10018000E41AA4100025AC4214DC214C214BE41AE3
:10019000A4100025AC4213DC0099019800F0B8FCD3
:1001A00005461D4C1D4BE41AA410002C0EDC2846FD
:1001B00000F084F8154B53F8253098470135E2E7F5
:1001C000144B53F8253098470135E3E7013C134BB6
:1001D00053F824309847E8E7BABADECA0000002096
:1001E0002000002000000020F4100008240000205F
:1001F00078563412325476982400002030000020C3
:100200002400002034000020BC020008BC020008CA
:10021000BC020008BC020008BC020008BC020008C6
:1002200008B5FFF773FF00BEFEE71EF0040F0CBF1A
:10023000EFF30880EFF309807146124A104700BEC1
:10024000FEE700BEFEE71EF0040F0CBFEFF30880D0
:10025000EFF3098071460C4A104700BEFEE71EF01E
:10026000040F0CBFEFF30880EFF309807146074AD3
:10027000104700BEFEE700BEFEE700BEFEE700BE80
:10028000FEE770473F0200085B02000873020008A7
:0402900000BEFEE7C7
:10029400F41000080000002024000020F4100008DE
:1002A40000000000000000002400002034000020B2
:0802B400000000000000000042
:1002BC00FEE7000001230360014B0B60704700BF99
:1002CC000400002008B500F073F8024A024B9A6053
:1002DC0008BD00BF0000000800ED00E008B500F00C
:1002EC008FF808BD82B00023019300932C4A136849
:1002FC0043F4803313602A4B1B6803F400330093E0
:10030C00019B01330193009B1BB9019BB3F5A06FBB
:10031C00F1D1234B1B6813F4003F06D0012300934B
:10032C00009B012B04D002B0704700230093F7E729
:10033C001C4B1A6842F010021A601A6822F0030271
:10034C001A601A6842F002021A60A3F580535A68C8
:10035C005A605A685A605A6842F480625A605A6805
:10036C0022F47C125A605A6842F4E8125A601A68F5
:10037C0042F080721A600A4B1B6813F0007FFAD0AF
:10038C00074B5A6822F003025A605A6842F0020284
:10039C005A60034B5B6803F00C03082BF9D1C2E7DE
:1003AC00001002400020024008B5FFF79BFF08BD7B
:1003BC0008B5104B1A6842F001021A6059680E4ACF
:1003CC000A405A601A6822F0847222F480321A6051
:1003DC001A6822F480221A605A6822F4FE025A60CB
:1003EC004FF41F029A60FFF7DFFF044B4FF00062DF
:1003FC009A6008BD001002400000FFF800ED00E01C
:10040C001F4B5B6803F00C03042B15D0082B17D083
:10041C001BB11C4B1C4A1A6002E01A4B1A4A1A6098
:10042C00174B5B68C3F30313184AD35CDAB2154954
:10043C000B68D3400B607047124B134A1A60EFE7FE
:10044C000F4A53685268C3F38343023312F4803F5C
:10045C000AD00B4A526812F4003F0BD00C4A02FB34
:10046C0003F3084A1360DBE7094A02FB03F3054A6E
:10047C001360D5E7044A02FB03F3024A1360CFE78B
:10048C00001002401C00002000127A000C0000201A
:10049C0000093D0010B4012823D018B102283FD028
:1004AC0010BC704707290FD90F29F9D8A1F10804FE
:1004BC00A4000F23A3402A48016821EA030302FA8F
:1004CC0004F119430160EBE789000F2303FA01F0F3
:1004DC00244C236823EA000302FA01F1194321603A
:1004EC00DEE707290FD90F29DAD8A1F1080080001F
:1004FC000F2383401C4C216821EA030302FA00F10C
:10050C0019432160CCE789000F2303FA01F0174C43
:10051C00236823EA000302FA01F119432160BFE7C3
:10052C0007290FD90F29BBD8A1F108039B000F2075
:10053C0098400F4C216821EA000002FA03F10143B4
:10054C002160ADE789000F2303FA01F0094C236801
:10055C0023EA000302FA01F119432160A0E700BF6E
:10056C000408014000080140040C0140000C01404B
:10057C000410014000100140012818D010B10228CD
:10058C0029D07047012A0AD0002A2FD1012303FA5F
:10059C0001F11B4A136823EA01031360704701231E
:1005AC0003FA01F1164A13680B4313607047012AD2
:1005BC0009D0DAB9012303FA01F1124A136823EACC
:1005CC00010313607047012303FA01F10D4A13680C
:1005DC000B4313607047012A09D03AB9012303FA7F
:1005EC0001F1094A136823EA0103136070470123E0
:1005FC0003FA01F1044A13680B431360704700BF00
:10060C000C0801400C0C01400C100140034B4FF442
:10061C0080321A60043301221A60704700100240C5
:10062C001F291CD801280BD010B1022810D07047FC
:10063C00012303FA01F10A4A13680B431360704754
:10064C00012303FA01F1074A13680B431360704747
:10065C00012303FA01F1044A13680B43136070473A
:10066C00141002401C10024018100240024B40F2C1
:10067C0047321A60704700BF0030014038B505465C
:10068C000C46002211461046FFF776FF074BDD6043
:10069C00064B9B6813F0800FFAD1044BDB68237078
:1006AC00012200210846FFF767FF38BD00300140EA
:1006BC00014B00221A60704710E000E00D4B1860EF
:1006CC000D4A136843F0010313600B4B1B6813F4C2
:1006DC00803FFAD0084B1A6822F001021A601A689F
:1006EC0022F002021A600023024A136004321360E3
:1006FC00704700BF14E000E010E000E008B50B4BC1
:10070C001B786BB90A4B1A6822F002021A601A683D
:10071C0042F001021A600023064A1360043213608F
:10072C00054B1B689847024B1B6808BD290000202D
:10073C0010E000E014E000E02C00002010B582B0C6
:10074C000446012202210020FFF716FF0DF10701DC
:10075C002046FFF793FF02B010BD10B582B00446DF
:10076C00002202211046FFF707FF0DF1070120467A
:10077C00FFF784FF02B010BD08B50122114600201E
:10078C00FFF7FAFE6420FFF799FF002201211046C3
:10079C00FFF7F2FE0120FFF791FF01221146002026
:1007AC00FFF7EAFE6420FFF789FF002201211046C3
:1007BC00FFF7E2FE6420FFF781FF012211460020C3
:1007CC00FFF7DAFE0948FFF779FF1120FFF7C5FFA5
:1007DC000748FFF773FF3A20FFF7BFFF0520FFF72D
:1007EC00ADFF2920FFF7B9FF08BD00BFC0D4010041
:1007FC00F049020038B505462A20FFF7AEFF00206D
:10080C00FFF79CFF0020FFF799FF0020FFF796FFF2
:10081C007F20FFF793FF2B20FFF79FFF0020FFF7B0
:10082C008DFF0020FFF78AFF0020FFF787FF9F2036
:10083C00FFF784FF2C20FFF790FF002407E0280A25
:10084C00FFF77CFFE8B2FFF779FF0134A4B2B4F5EF
:10085C00A04FF4D338BD2DE9F8438146884617469E
:10086C001C46BDF820600B1AA51A013503FB055573
:10087C00ADB22A20FFF771FF0020FFF75FFF48465B
:10088C00FFF75CFF0020FFF759FF4046FFF756FFCC
:10089C002B20FFF762FF0020FFF750FF3846FFF7D1
:1008AC004DFF0020FFF74AFF2046FFF747FF2C20A3
:1008BC00FFF753FF002407E0300AFFF73FFFF0B2C9
:1008CC00FFF73CFF0134A4B2AC42F5D3BDE8F8838A
:1008DC0010B582B04B1C441C0092DBB20A46E1B24C
:1008EC00FFF7B9FF02B010BD2DE9F84389469046D9
:1008FC001F464138C0EB00104300104E1E4400252B
:10090C0015E00134E4B2092C0FD836F81530234128
:10091C0013F0010FF5D005EB080104EB09003A4682
:10092C00C9B2C0B2FFF7D4FFEBE70135EDB20E2D23
:10093C0001D80024E7E7BDE8F88300BF900C00085D
:10094C002DE9F843894690461F463038C0EB00101D
:10095C004300104E1E44002515E00134E4B2092C6E
:10096C000FD836F81530234113F0010FF5D005EBF5
:10097C00080104EB09003A46C9B2C0B2FFF7A8FF60
:10098C00EBE70135EDB20E2D01D80024E7E7BDE809
:10099C00F88300BF9C0F00082DE9F8438946904668
:1009AC001F46C0EB001043000F4E1E44002515E0FF
:1009BC000134E4B2092C0FD836F81530234113F06A
:1009CC00010FF5D005EB080104EB09003A46C9B25A
:1009DC00C0B2FFF77DFFEBE70135EDB20E2D01D86C
:1009EC000024E7E7BDE8F8839C0F00082DE9F041EF
:1009FC000E46174698460B4CA4FB0054E40804EB37
:100A0C00840C4FEA4C05401BC5B22046FFF7C4FFCF
:100A1C00A6F10B0143463A46C9B22846FFF7BCFF84
:100A2C00BDE8F081CDCCCCCCF0B583B004460E46FD
:100A3C00174601F10F05EDB200F10A0100922B46A9
:100A4C003246C9B2FFF707FF611EA4F10B000097F5
:100A5C002B463246C9B2C0B2FFF7FDFE03B0F0BD63
:100A6C002DE9F04784B082460E4690461F464FF063
:100A7C0000092FE0224B6C460FCB07C424F8023B35
:100A8C001B0C2370002516E00134E4B2092C10D89D
:100A9C0004AB2B4413F8103C234113F0010FF3D09B
:100AAC0005EB080130193A46C9B2C0B2FFF710FF86
:100ABC00EAE70135EDB20E2D06D80024E6E73B46F9
:100ACC0042463146FFF710FF0B3EF6B209F1010921
:100ADC005FFA89F91AF8090070B12028F4D03A2885
:100AEC00C8D0A0F13003DBB2092BE8D83B46424614
:100AFC003146FFF725FFE7E704B0BDE8F08700BFFC
:100B0C00800C000870B5FFF781FD02210846FFF745
:100B1C0087FD0C210220FFF783FD0222012100201A
:100B2C00FFF7B8FC022211460020FFF7B3FC0922A4
:100B3C0005210020FFF7AEFC092207210020FFF75A
:100B4C00A9FCFFF7B5FDFFF791FDFFF715FE00209F
:100B5C00FFF750FE4FF61F038C226E213F48FFF724
:100B6C007FFF4FF61F03782240213D48FFF778FFA7
:100B7C004FF6E073322271213A48FFF771FF1F23C1
:100B8C0014225F213848FFF76BFF4FF4FC635022AF
:100B9C0064210020FFF72AFF344C4FF4FC635022F1
:100BAC004B212046FFF75CFF4FF4FC6350223C21A5
:100BBC000020FFF71BFF4FF4FC635022232120463B
:100BCC00FFF74EFF4FF4FC63502214210020FFF777
:100BDC000DFF00252E4622E0002250211420FFF7A5
:100BEC0023FF4FF4FC63502214212046FFF7FEFE36
:100BFC001F48FFF763FD0134E4B23B2CECD93A2DCE
:100C0C000FD80135EDB2002250213C20FFF70CFF2C
:100C1C004FF4FC6350223C212846FFF7E7FE0024EA
:100C2C00EBE70136F6B2002250213C20FFF7FCFE28
:100C3C004FF4FC6350223C210020FFF7D7FE00222A
:100C4C0050216420FFF7F0FE4FF4FC635022642126
:100C5C003046FFF7CBFE0025E1E700BFC8100008C7
:100C6C00D0100008D8100008E4100008F01000089C
:100C7C0040420F0000003030000000000000003047
:100C8C003000000000000202020202020202020214
:100C9C00FE03FE0302020202060304018C01F800AB
:100CAC0000000000FC03060202020202020206021D
:100CBC00FC0306020202020202020602FC0300000E
:100CCC000000FC0086010203000200020002000288
:100CDC0000020002000202038601FC00000000007A
:100CEC00F00318020C0206020202020202020202C5
:100CFC00020206020C021802F00300000000FE03C0
:100D0C0000020002000200020002FE0300020002C8
:100D1C00000200020002FE030000000000020002BC
:100D2C000002000200020002FE03000200020002A8
:100D3C0000020002FE0300000000FC00860102031A
:100D4C00020202027E027E02000200020002020384
:100D5C008601FC00000000000202020202020202F4
:100D6C0002020202FE03FE0302020202020202025D
:100D7C00020200000000FE03FE0320002000200001
:100D8C00200020002000200020002000FE03FE0395
:100D9C0000000000F8010C0304020402040004002B
:100DAC0004000400040004000400FE03FE03000021
:100DBC00000002020202020206020C023802E003E8
:100DCC00300218020C0206020202020200000000AD
:100DDC00FE03FE03000300030003000300030003F3
:100DEC0000030003000300030003000000000202E4
:100DFC000202020202020202220272025202520297
:100E0C005202520252028C01000000000E020A0231
:100E1C000A021A0232022202220262024202C202B6
:100E2C00820282028203000000007000880004012C
:100E3C000202020202020202020202020202040185
:100E4C008800700000000000000200020002000296
:100E5C0000020002FC030602020202020202060267
:100E6C00FC030000010072008C000C011202220233
:100E7C000202020202020202020204018800700055
:100E8C000000000002020402080210022002C0034B
:100E9C00FC0306020202020202020602FC0300002C
:100EAC000000780084000201020004000400F80035
:100EBC0080010001000102018400780000000000A4
:100ECC002000200020002000200020002000200016
:100EDC00200020002000FE03FE0300000000FC01A7
:100EEC0006010203020202020202020202020202D2
:100EFC000202020202020202000000002000D800DE
:100F0C008C01040106030202020202020202020226
:100F1C00020202020202000000008C015202520284
:100F2C005202520252022202020202020202020285
:100F3C000202020200000000020204010401880007
:100F4C008800500020002000500088008800040118
:100F5C0002020000000020002000200020002000E1
:100F6C00200020007000D80088008C0106030202CB
:100F7C0000000000FE030002000180004000400061
:100F8C00200020001000080004000200FE030000F6
:100F9C000000700088000401040104010401040134
:100FAC000401040104010401880070000000000029
:100FBC00F80020002000200020002000200020004D
:100FCC00200020002000A000600000000000FC00B9
:100FDC008000800080004000200010000800040009
:100FEC0004000401880070000000000070008800FC
:100FFC000401040004000800F000080004000400D0
:10100C0004018800700000000000040004000400CB
:10101C0004000400FE0104018400440024001400B8
:10102C000C000400000000007000880004010400A3
:10103C00040004000800F00100010001000100019F
:10104C00FC01000000007000880004010401040190
:10105C00880170010001000100010401880070008A
:10106C0000000000000180008000400040002000D3
:10107C00200010001000080008000400FC01000013
:10108C000000700088000401040104018800700055
:10109C0088000401040104018800700000000000B5
:1010AC0070008800040104000400040074008C002B
:1010BC000401040104018800700000004449474900
:1010CC0054414C00434C4F434B00000032362053EC
:1010DC00455020323032300053415455524441591E
:0810EC00000000003A000000C2
:1010F4007856341228000020000000000000000090
:1011040000000000010203040607080900A24A04C3
:041114003254769843
:040000050800010DE1
:00000001FF
