:020000040800F2
:100000000050002021020008270200082B020008EF
:1000100043020008470200085F02000800000000D9
:10002000000000000000000000000000770200084F
:100030007B020008000000007F020008CD0D0008D0
:100040009102000891020008910200089102000844
:100050009102000891020008910200089102000834
:100060009102000891020008910200089102000824
:100070009102000891020008910200089102000814
:100080009102000891020008910200089102000804
:1000900091020008910200089102000891020008F4
:1000A00091020008910200089102000891020008E4
:1000B00091020008910200089102000891020008D4
:1000C00091020008910200089102000891020008C4
:1000D00091020008910200089102000891020008B4
:1000E000910200089102000891020008000000003F
:1000F0000000000000000000000000000000000000
:1001000000000000000000005FF808F100B583B0B7
:1001100000F0DEF8304B314A1360314A1360314B46
:10012000314A32498B4204D21168196004330432D7
:10013000F7E72A4B1A682E4B9A4200D0FEE7284B6D
:100140001A682C4B9A42F9D1234B2B4A13602B4A45
:1001500013602B4B02E000221A600433294A9342B9
:10016000F9D3254B1B6813B9244B1B6803B1FEE779
:1001700000F0BAF8694601A800F0A2F8224C234B1F
:10018000E41AA4100025AC4214DC214C214BE41AE3
:10019000A4100025AC4213DC0099019800F0B6FFD2
:1001A00005461D4C1D4BE41AA410002C0EDC2846FD
:1001B00000F084F8154B53F8253098470135E2E7F5
:1001C000144B53F8253098470135E3E7013C134BB6
:1001D00053F824309847E8E7BABADECA0000002096
:1001E0006801002000000020341600086C01002087
:1001F00078563412325476986C0100208001002029
:100200006C01002084010020BC020008BC02000830
:10021000BC020008BC020008BC020008BC020008C6
:1002200008B5FFF773FF00BEFEE71EF0040F0CBF1A
:10023000EFF30880EFF309807146124A104700BEC1
:10024000FEE700BEFEE71EF0040F0CBFEFF30880D0
:10025000EFF3098071460C4A104700BEFEE71EF01E
:10026000040F0CBFEFF30880EFF309807146074AD3
:10027000104700BEFEE700BEFEE700BEFEE700BE80
:10028000FEE770473F0200085B02000873020008A7
:0402900000BEFEE7C7
:1002940034160008000000206C0100203416000809
:1002A40000000000000000006C0100208401002018
:0802B400000000000000000042
:1002BC00FEE7000001230360014B0B60704700BF99
:1002CC000400002008B500F073F8024A024B9A6053
:1002DC0008BD00BF0000000800ED00E008B500F00C
:1002EC008FF808BD82B00023019300932C4A136849
:1002FC0043F4803313602A4B1B6803F400330093E0
:10030C00019B01330193009B1BB9019BB3F5A06FBB
:10031C00F1D1234B1B6813F4003F06D0012300934B
:10032C00009B012B04D002B0704700230093F7E729
:10033C001C4B1A6842F010021A601A6822F0030271
:10034C001A601A6842F002021A60A3F580535A68C8
:10035C005A605A685A605A6842F480625A605A6805
:10036C0022F47C125A605A6842F4E8125A601A68F5
:10037C0042F080721A600A4B1B6813F0007FFAD0AF
:10038C00074B5A6822F003025A605A6842F0020284
:10039C005A60034B5B6803F00C03082BF9D1C2E7DE
:1003AC00001002400020024008B5FFF79BFF08BD7B
:1003BC0008B5104B1A6842F001021A6059680E4ACF
:1003CC000A405A601A6822F0847222F480321A6051
:1003DC001A6822F480221A605A6822F4FE025A60CB
:1003EC004FF41F029A60FFF7DFFF044B4FF00062DF
:1003FC009A6008BD001002400000FFF800ED00E01C
:10040C001F4B5B6803F00C03042B15D0082B17D083
:10041C001BB11C4B1C4A1A6002E01A4B1A4A1A6098
:10042C00174B5B68C3F30313184AD35CDAB2154954
:10043C000B68D3400B607047124B134A1A60EFE7FE
:10044C000F4A53685268C3F38343023312F4803F5C
:10045C000AD00B4A526812F4003F0BD00C4A02FB34
:10046C0003F3084A1360DBE7094A02FB03F3054A6E
:10047C001360D5E7044A02FB03F3024A1360CFE78B
:10048C00001002401C00002000127A000C0000201A
:10049C0000093D0010B4012823D018B102283FD028
:1004AC0010BC704707290FD90F29F9D8A1F10804FE
:1004BC00A4000F23A3402A48016821EA030302FA8F
:1004CC0004F119430160EBE789000F2303FA01F0F3
:1004DC00244C236823EA000302FA01F1194321603A
:1004EC00DEE707290FD90F29DAD8A1F1080080001F
:1004FC000F2383401C4C216821EA030302FA00F10C
:10050C0019432160CCE789000F2303FA01F0174C43
:10051C00236823EA000302FA01F119432160BFE7C3
:10052C0007290FD90F29BBD8A1F108039B000F2075
:10053C0098400F4C216821EA000002FA03F10143B4
:10054C002160ADE789000F2303FA01F0094C236801
:10055C0023EA000302FA01F119432160A0E700BF6E
:10056C000408014000080140040C0140000C01404B
:10057C000410014000100140012818D010B10228CD
:10058C0029D07047012A0AD0002A2FD1012303FA5F
:10059C0001F11B4A136823EA01031360704701231E
:1005AC0003FA01F1164A13680B4313607047012AD2
:1005BC0009D0DAB9012303FA01F1124A136823EACC
:1005CC00010313607047012303FA01F10D4A13680C
:1005DC000B4313607047012A09D03AB9012303FA7F
:1005EC0001F1094A136823EA0103136070470123E0
:1005FC0003FA01F1044A13680B431360704700BF00
:10060C000C0801400C0C01400C10014001280AD0D0
:10061C0018B102280DD000207047094B1868C8404B
:10062C0000F001007047074B1868C84000F001004B
:10063C007047054B1868C84000F00100704700BFB8
:10064C0008080140080C01400810014008B50821B9
:10065C000020FFF7DBFF30B9154B0A221A70154B3F
:10066C0001221A7008BD0A210020FFF7CFFF30B914
:10067C000F4B14221A700F4B01221A70F2E70B2148
:10068C000020FFF7C3FF30B9094B1E221A70094B2B
:10069C0001221A70E6E709210020FFF7B7FF0028B6
:1006AC00E0D1034B28221A70024B01221A70D9E7B1
:1006BC00710100207201002010B582B04B1CDB00D0
:1006CC00C900441CE400C000009203F0F80301F0E0
:1006DC00F80204F0F80100F0F80000F01EFC02B083
:1006EC0010BD2DE9F04182B080460F4600250095E3
:1006FC00019508238DF8033015E00134E4B2072C82
:10070C000FD846FA04F313F0010FF6D005EBC7012E
:10071C0004EBC8004FF47842C9B2C0B200F03AFC06
:10072C00EBE70135EDB2072D07D802AB2B4413F8DC
:10073C00086C002EF5D00024E1E702B0BDE8F08192
:10074C002DE9F04182B080460F46154B93E803002B
:10075C0002AB03E90300002515E00134E4B2072CD9
:10076C000FD846FA04F313F0010FF6D005EBC701CE
:10077C0004EBC8004EF6E072C9B2C0B200F00AFC3D
:10078C00EBE70135EDB2072D07D802AB2B4413F87C
:10079C00086C002EF5D00024E1E702B0BDE8F08132
:1007AC00AC1100082DE9F04182B080460F46164688
:1007BC00134B93E8030002AB03E90300002517E099
:1007CC000134E4B2072C11D802AB2B4413F8083CCB
:1007DC00234113F0010FF3D005EBC70104EBC80064
:1007EC003246C9B2C0B200F0D5FBE9E70135EDB233
:1007FC00072D01D80024E5E702B0BDE8F08100BF69
:10080C00B411000838B5002519E01F2229462046EE
:10081C00FFF752FF0134E4B20F2C0ED8C5F11302CE
:10082C00C4F10F03084901EB0212D35C012BECD08D
:10083C0029462046FFF755FFECE70135EDB2132DA5
:10084C0001D80024E8E738BD2000002038B5044664
:10085C000D46C1F11301C0F10F02094B03EB01135B
:10086C009B5C23B100222946FFF726FF38BD0022EE
:10087C002946FFF721FF29462046FFF732FFF5E70F
:10088C002000002038B5444B1978052902D9434B78
:10089C001B7853B3052901D00E2904D13F4A137894
:1008AC0083F0010313703C4B19780D2903D83B4B93
:1008BC001B78012B35D03A4B9878012803D9374B4C
:1008CC009B78002B49D0012801D00E2804D1334A43
:1008DC00937883F001039370314B98780D2803D8EB
:1008EC002E4B9B78012B47D038BD2D4D2878FFF728
:1008FC00ADFF2878284C21780139C9B221704FF608
:10090C001C02FFF74FFF61786878FFF79FFF68784C
:10091C0061780139C9B2617040F2FF72FFF742FF92
:10092C00C1E71F4D2878FFF791FF28781A4C2178E2
:10093C000131C9B221704FF61C02FFF733FF617809
:10094C006878FFF783FF687861780131C9B261700C
:10095C0040F2FF72FFF726FFADE70F4CA178FFF7CF
:10096C0075FF0F4B98780138C0B2987043F2E07263
:10097C00A178FFF717FFAFE7074CA178FFF766FFE9
:10098C00074B98780130C0B2987043F2E072A178AE
:10099C00FFF708FFA8E700BF6401002074010020E6
:1009AC0060010020134B1A78134B1B789A4208D025
:1009BC00104A527893420ED00E4A9278934211D03C
:1009CC0070470E4A11780E4A12789142F0D10D4BB5
:1009DC00C8221A70F4E7094A5178094A12789142F0
:1009EC00EAD1F4E7054B9A78054B1B789A42E7D18C
:1009FC00EDE700BF600100206301002064010020CE
:100A0C00670100207701002030B583B0002000F092
:100A1C0053FAFFF7F7FEA64B1978A64B1878FFF799
:100A2C008FFE13E0A24B1978C1F11204A14B187878
:100A3C00C0F10F02A04B03EB04139B5C012B01D004
:100A4C00122953D9FFF7AEFFFFF71CFF9B4B1B7806
:100A5C009D2B00F20A81FFF7F9FD994800F090F9FF
:100A6C00984B1B780A3B1E2BEED801A252F823F0B0
:100A7C00310A0008550A0008550A0008550A0008F2
:100A8C00550A0008550A0008550A0008550A0008BE
:100A9C00550A0008550A00083D0B0008550A0008C5
:100AAC00550A0008550A0008550A0008550A00089E
:100ABC00550A0008550A0008550A0008550A00088E
:100ACC00A50B0008550A0008550A0008550A00082D
:100ADC00550A0008550A0008550A0008550A00086E
:100AEC00550A0008550A00080F0C00080022FFF7F1
:100AFC00E3FD704D28786E4C21780131C9B221701C
:100B0C00FFF71EFE2278C2F113022B78C3F10F03FC
:100B1C00694901EB0211C95C002993D1664901EBCB
:100B2C0002120521D154654A13780133137089E7F9
:100B3C005F4B1978C1F114045E4B1878C0F10F02A9
:100B4C005D4B03EB04139B5C012B00D011B9FFF739
:100B5C0029FF79E70022FFF7AFFD564D2878544C5A
:100B6C0021780139C9B22170FFF7EAFD2278C2F170
:100B7C0013022B78C3F10F034F4901EB0211C95C2F
:100B8C000029E4D14C4901EB02120521D1544B4A06
:100B9C00137801331370DAE7454B1978C1F113045C
:100BAC00444B1878C0F10E02434B03EB04139B5CCF
:100BBC00012B01D00E2802D9FFF7F4FE44E70022E6
:100BCC00FFF77AFD3B4C20780130C0B22070384DD5
:100BDC002978FFF7B5FD2A78C2F113022378C3F107
:100BEC000F03354901EB0211C95C0029E4D13249EC
:100BFC0001EB02120521D154304A137801331370E2
:100C0C00DAE72B4B1978C1F113042A4B1878C0F191
:100C1C001002294B03EB04139B5C012B00D010B981
:100C2C00FFF7C0FE10E70022FFF746FD214C2078AD
:100C3C000138C0B220701E4D2978FFF781FD2A784B
:100C4C00C2F113022378C3F10F031B4901EB02110C
:100C5C00C95C0029E4D1184901EB02120521D154D9
:100C6C00164A137801331370DAE79E2B0FD000204D
:100C7C000090642346227F2100F04FF94FF4784313
:100C8C0050226421104800F0E9F903B030BD4FF652
:100C9C00FF730093642346227F21002000F03DF96E
:100CAC004FF6E07350226421084800F0D7F9ECE7C6
:100CBC006701002063010020200000207701002044
:100CCC00400D030071010020C8110008BC11000880
:100CDC00034B4FF480321A60043301221A607047C0
:100CEC00001002401F291CD801280BD010B102287B
:100CFC0010D07047012303FA01F10A4A13680B4321
:100D0C0013607047012303FA01F1074A13680B4380
:100D1C0013607047012303FA01F1044A13680B4373
:100D2C0013607047141002401C100240181002404F
:100D3C00024B40F247321A60704700BF003001404E
:100D4C0038B505460C46002211461046FFF714FC38
:100D5C00074BDD60064B9B6813F0800FFAD1044BF8
:100D6C00DB682370012200210846FFF705FC38BD23
:100D7C0000300140014B00221A60704710E000E087
:100D8C000D4B18600D4A136843F0010313600B4BB5
:100D9C001B6813F4803FFAD0084B1A6822F001024A
:100DAC001A601A6822F002021A600023024A1360C9
:100DBC0004321360704700BF14E000E010E000E064
:100DCC0008B50B4B1B786BB90A4B1A6822F0020260
:100DDC001A601A6842F001021A600023064A136076
:100DEC0004321360054B1B689847024B1B6808BD07
:100DFC007801002010E000E014E000E07C0100200D
:100E0C0010B582B00446012202210020FFF7B4FB8A
:100E1C000DF107012046FFF793FF02B010BD10B58E
:100E2C0082B00446002202211046FFF7A5FB0DF10B
:100E3C0007012046FFF784FF02B010BD08B5012260
:100E4C0011460020FFF798FB6420FFF799FF002262
:100E5C0001211046FFF790FB0120FFF791FF0122C3
:100E6C0011460020FFF788FB6420FFF789FF002262
:100E7C0001211046FFF780FB6420FFF781FF012260
:100E8C0011460020FFF778FB0948FFF779FF112086
:100E9C00FFF7C5FF0748FFF773FF3A20FFF7BFFFC7
:100EAC000520FFF7ADFF2920FFF7B9FF08BD00BFF4
:100EBC00C0D40100F049020038B505462A20FFF7DE
:100ECC00AEFF0020FFF79CFF0020FFF799FF0020EA
:100EDC00FFF796FF7F20FFF793FF2B20FFF79FFF75
:100EEC000020FFF78DFF0020FFF78AFF0020FFF79F
:100EFC0087FF9F20FFF784FF2C20FFF790FF002433
:100F0C0007E0280AFFF77CFFE8B2FFF779FF01340E
:100F1C00A4B2B4F5A04FF4D338BD2DE9F843814603
:100F2C00884617461C46BDF820600B1AA51A0135D9
:100F3C0003FB0555ADB22A20FFF771FF0020FFF728
:100F4C005FFF4846FFF75CFF0020FFF759FF404664
:100F5C00FFF756FF2B20FFF762FF0020FFF750FF33
:100F6C003846FFF74DFF0020FFF74AFF2046FFF7FA
:100F7C0047FF2C20FFF753FF002407E0300AFFF750
:100F8C003FFFF0B2FFF73CFF0134A4B2AC42F5D303
:100F9C00BDE8F88310B582B04B1C441C0092DBB248
:100FAC000A46E1B2FFF7B9FF02B010BD2DE9F843D4
:100FBC00894690461F464138C0EB00104300104E46
:100FCC001E44002515E00134E4B2092C0FD836F884
:100FDC001530234113F0010FF5D005EB080104EB9C
:100FEC0009003A46C9B2C0B2FFF7D4FFEBE70135AE
:100FFC00EDB20E2D01D80024E7E7BDE8F88300BF61
:10100C00FC1100082DE9F843894690461F463038FC
:10101C00C0EB00104300104E1E44002515E00134B7
:10102C00E4B2092C0FD836F81530234113F0010F18
:10103C00F5D005EB080104EB09003A46C9B2C0B281
:10104C00FFF7A8FFEBE70135EDB20E2D01D8002418
:10105C00E7E7BDE8F88300BF081500082DE9F04765
:10106C0084B082460E4690461F464FF000092FE092
:10107C006C46224B0FCB07C424F8023B1B0C23708D
:10108C00002516E00134E4B2092C10D804AB2B4433
:10109C0013F8103C234113F0010FF3D005EB0801BA
:1010AC0030193A46C9B2C0B2FFF774FFEAE701350E
:1010BC00EDB20E2D06D80024E6E73B4642463146FB
:1010CC00FFF774FF0B3EF6B209F101095FFA89F9DB
:1010DC001AF8090070B12028F4D03A28C8D0A0F131
:1010EC003003DBB2092BE8D83B4642463146FFF7CA
:1010FC0089FFE7E704B0BDE8F08700BFEC110008FA
:10110C0008B5FFF7E5FD02210846FFF7EBFD0C21C2
:10111C000220FFF7E7FD082211460020FFF7BAF97D
:10112C00012208210020FFF727FA08220A210020BB
:10113C00FFF7B0F901220A210020FFF71DFA08225F
:10114C000B210020FFF7A6F901220B210020FFF74D
:10115C0013FA082209210020FFF79CF9012209212A
:10116C000020FFF709FA022201210020FFF792F973
:10117C00022211460020FFF78DF9092205210020DB
:10118C00FFF788F9092207210020FFF783F9FFF701
:10119C00F1FDFFF7CDFDFFF751FEFFF735FCFEE744
:1011AC0000183C7E7E3C1800004949497F3E3E00B9
:1011BC00594F5520444F20495400000047414D459C
:1011CC00204F564552000000F8002000200020005F
:1011DC002000FC01FA02F904F904FA0204010000EF
:1011EC000000303000000000000000303000000033
:1011FC00000002020202020202020202FE03FE03CD
:10120C0002020202060304018C01F8000000000037
:10121C00FC0306020202020202020602FC030602A0
:10122C000202020202020602FC0300000000FC00A3
:10123C00860102030002000200020002000200020A
:10124C00000202038601FC0000000000F0031802FB
:10125C000C02060202020202020202020202060250
:10126C000C021802F00300000000FE030002000252
:10127C00000200020002FE03000200020002000253
:10128C000002FE0300000000000200020002000247
:10129C0000020002FE030002000200020002000233
:1012AC00FE0300000000FC008601020302020202A1
:1012BC007E027E0200020002000202038601FC0094
:1012CC0000000000020202020202020202020202FA
:1012DC00FE03FE03020202020202020202020000EC
:1012EC000000FE03FE032000200020002000200050
:1012FC002000200020002000FE03FE030000000060
:10130C00F8010C03040204020400040004000400AD
:10131C00040004000400FE03FE03000000000202AF
:10132C000202020206020C023802E003300218022A
:10133C000C0206020202020200000000FE03FE0381
:10134C000003000300030003000300030003000379
:10135C00000300030003000000000202020202026C
:10136C000202020222027202520252025202520281
:10137C0052028C01000000000E020A020A021A023C
:10138C0032022202220262024202C2028202820261
:10139C0082030000000070008800040102020202B7
:1013AC000202020202020202020204018800700020
:1013BC000000000000020002000200020002000215
:1013CC00FC0306020202020202020602FC030000F7
:1013DC00010072008C000C011202220202020202B5
:1013EC0002020202020204018800700000000000E8
:1013FC0002020402080210022002C003FC030602CF
:10140C000202020202020602FC0300000000780045
:10141C0084000201020004000400F80080010001B5
:10142C000001020184007800000000002000200070
:10143C0020002000200020002000200020002000A0
:10144C002000FE03FE0300000000FC010601020365
:10145C000202020202020202020202020202020260
:10146C0002020202000000002000D8008C010401DE
:10147C00060302020202020202020202020202023B
:10148C000202000000008C0152025202520252026F
:10149C0052022202020202020202020202020202B0
:1014AC0000000000020204010401880088005000C2
:1014BC002000200050008800880004010202000077
:1014CC000000200020002000200020002000200030
:1014DC007000D80088008C01060302020000000096
:1014EC00FE030002000180004000400020002000AC
:1014FC001000080004000200FE0300000000700051
:10150C008800040104010401040104010401040124
:10151C00040104018800700000000000F8002000A5
:10152C0020002000200020002000200020002000AF
:10153C002000A000600000000000FC008000800083
:10154C00800040002000100008000400040004018A
:10155C008800700000000000700088000401040086
:10156C0004000800F00008000400040004018800D6
:10157C0070000000000004000400040004000400DB
:10158C00FE01040184004400240014000C0004003B
:10159C000000000070008800040104000400040036
:1015AC000800F0010001000100010001FC01000035
:1015BC00000070008800040104010401880170011E
:1015CC00000100010001040188007000000000000F
:1015DC00000180008000400040002000200010002E
:1015EC001000080008000400FC010000000070005E
:1015FC0088000401040104018800700088000401C3
:10160C0004010401880070000000000070008800D4
:10161C00040104000400040074008C0004010401A3
:08162C000401880070000000B9
:101634007856341270010020000000000000000001
:1016440000000000010203040607080900A24A047E
:101654000101010101010101010101010101010176
:101664000100000001000000000000010000000172
:101674000100010101010101000101010101000159
:101684000100000000000000000000000000000154
:10169400010101000100010101010001000101013A
:1016A4000100000001000000000000010000000132
:1016B400010001010101010000010101010100011A
:1016C4000100000001000000000000010000000112
:1016D40001000100010001010101000100010001FC
:1016E40001000100000000000000000000010001F2
:1016F40001000100000000000000000000010001E2
:1017040001000100010001010101000100010001CB
:1017140001000000010000000000000100000001C1
:1017240001000101010101000001010101010001A9
:1017340001000000010000000000000100000001A1
:101744000101010001000101010100010001010189
:101754000100000000000000000000000000000183
:101764000100010101010101000101010101000168
:101774000100000001000000000000010000000161
:101784000101010101010101010101010101010145
:0C179400010E01010E0E10013254769877
:040000050800010DE1
:00000001FF
