:020000040800F2
:100000000050002021020008270200082B020008EF
:1000100043020008470200085F02000800000000D9
:10002000000000000000000000000000770200084F
:100030007B020008000000007F020008490700085A
:100040009102000891020008910200089102000844
:100050009102000891020008910200089102000834
:100060009102000891020008910200089102000824
:100070009102000891020008910200089102000814
:100080009102000891020008910200089102000804
:1000900091020008910200089102000891020008F4
:1000A00091020008910200089102000891020008E4
:1000B00091020008910200089102000891020008D4
:1000C00091020008910200089102000891020008C4
:1000D00091020008910200089102000891020008B4
:1000E000910200089102000891020008000000003F
:1000F0000000000000000000000000000000000000
:1001000000000000000000005FF808F100B583B0B7
:1001100000F0DEF8304B314A1360314A1360314B46
:10012000314A32498B4204D21168196004330432D7
:10013000F7E72A4B1A682E4B9A4200D0FEE7284B6D
:100140001A682C4B9A42F9D1234B2B4A13602B4A45
:1001500013602B4B02E000221A600433294A9342B9
:10016000F9D3254B1B6813B9244B1B6803B1FEE779
:1001700000F0BAF8694601A800F0A2F8224C234B1F
:10018000E41AA4100025AC4214DC214C214BE41AE3
:10019000A4100025AC4213DC0099019801F09CF8F2
:1001A00005461D4C1D4BE41AA410002C0EDC2846FD
:1001B00000F084F8154B53F8253098470135E2E7F5
:1001C000144B53F8253098470135E3E7013C134BB6
:1001D00053F824309847E8E7BABADECA0000002096
:1001E00024000020000000201C1900082800002026
:1001F00078563412325476982800002048000020A7
:10020000280000204C000020BC020008BC020008AE
:10021000BC020008BC020008BC020008BC020008C6
:1002200008B5FFF773FF00BEFEE71EF0040F0CBF1A
:10023000EFF30880EFF309807146124A104700BEC1
:10024000FEE700BEFEE71EF0040F0CBFEFF30880D0
:10025000EFF3098071460C4A104700BEFEE71EF01E
:10026000040F0CBFEFF30880EFF309807146074AD3
:10027000104700BEFEE700BEFEE700BEFEE700BE80
:10028000FEE770473F0200085B02000873020008A7
:0402900000BEFEE7C7
:100294001C19000800000020280000201C19000878
:1002A4000000000000000000280000204C00002096
:0802B400000000000000000042
:1002BC00FEE7000001230360014B0B60704700BF99
:1002CC000400002008B500F073F8024A024B9A6053
:1002DC0008BD00BF0000000800ED00E008B500F00C
:1002EC008FF808BD82B00023019300932C4A136849
:1002FC0043F4803313602A4B1B6803F400330093E0
:10030C00019B01330193009B1BB9019BB3F5A06FBB
:10031C00F1D1234B1B6813F4003F06D0012300934B
:10032C00009B012B04D002B0704700230093F7E729
:10033C001C4B1A6842F010021A601A6822F0030271
:10034C001A601A6842F002021A60A3F580535A68C8
:10035C005A605A685A605A6842F480625A605A6805
:10036C0022F47C125A605A6842F4E8125A601A68F5
:10037C0042F080721A600A4B1B6813F0007FFAD0AF
:10038C00074B5A6822F003025A605A6842F0020284
:10039C005A60034B5B6803F00C03082BF9D1C2E7DE
:1003AC00001002400020024008B5FFF79BFF08BD7B
:1003BC0008B5104B1A6842F001021A6059680E4ACF
:1003CC000A405A601A6822F0847222F480321A6051
:1003DC001A6822F480221A605A6822F4FE025A60CB
:1003EC004FF41F029A60FFF7DFFF044B4FF00062DF
:1003FC009A6008BD001002400000FFF800ED00E01C
:10040C001F4B5B6803F00C03042B15D0082B17D083
:10041C001BB11C4B1C4A1A6002E01A4B1A4A1A6098
:10042C00174B5B68C3F30313184AD35CDAB2154954
:10043C000B68D3400B607047124B134A1A60EFE7FE
:10044C000F4A53685268C3F38343023312F4803F5C
:10045C000AD00B4A526812F4003F0BD00C4A02FB34
:10046C0003F3084A1360DBE7094A02FB03F3054A6E
:10047C001360D5E7044A02FB03F3024A1360CFE78B
:10048C00001002401C00002000127A000C0000201A
:10049C0000093D0010B4012823D018B102283FD028
:1004AC0010BC704707290FD90F29F9D8A1F10804FE
:1004BC00A4000F23A3402A48016821EA030302FA8F
:1004CC0004F119430160EBE789000F2303FA01F0F3
:1004DC00244C236823EA000302FA01F1194321603A
:1004EC00DEE707290FD90F29DAD8A1F1080080001F
:1004FC000F2383401C4C216821EA030302FA00F10C
:10050C0019432160CCE789000F2303FA01F0174C43
:10051C00236823EA000302FA01F119432160BFE7C3
:10052C0007290FD90F29BBD8A1F108039B000F2075
:10053C0098400F4C216821EA000002FA03F10143B4
:10054C002160ADE789000F2303FA01F0094C236801
:10055C0023EA000302FA01F119432160A0E700BF6E
:10056C000408014000080140040C0140000C01404B
:10057C000410014000100140012818D010B10228CD
:10058C0029D07047012A0AD0002A2FD1012303FA5F
:10059C0001F11B4A136823EA01031360704701231E
:1005AC0003FA01F1164A13680B4313607047012AD2
:1005BC0009D0DAB9012303FA01F1124A136823EACC
:1005CC00010313607047012303FA01F10D4A13680C
:1005DC000B4313607047012A09D03AB9012303FA7F
:1005EC0001F1094A136823EA0103136070470123E0
:1005FC0003FA01F1044A13680B431360704700BF00
:10060C000C0801400C0C01400C10014001280AD0D0
:10061C0018B102280DD000207047094B1868C8404B
:10062C0000F001007047074B1868C84000F001004B
:10063C007047054B1868C84000F00100704700BFB8
:10064C0008080140080C014008100140034B4FF40E
:10065C0080321A60043301221A6070470010024085
:10066C001F291CD801280BD010B1022810D07047BC
:10067C00012303FA01F10A4A13680B431360704714
:10068C00012303FA01F1074A13680B431360704707
:10069C00012303FA01F1044A13680B4313607047FA
:1006AC00141002401C10024018100240024B40F281
:1006BC0047321A60704700BF0030014038B505461C
:1006CC000C46002211461046FFF756FF074BDD6023
:1006DC00064B9B6813F0800FFAD1044BDB68237038
:1006EC00012200210846FFF747FF38BD00300140CA
:1006FC00014B00221A60704710E000E00D4B1860AF
:10070C000D4A136843F0010313600B4B1B6813F481
:10071C00803FFAD0084B1A6822F001021A601A685E
:10072C0022F002021A600023024A136004321360A2
:10073C00704700BF14E000E010E000E008B50B4B80
:10074C001B786BB90A4B1A6822F002021A601A68FD
:10075C0042F001021A600023064A1360043213604F
:10076C00054B1B689847024B1B6808BD2D000020E9
:10077C0010E000E014E000E04400002010B582B06E
:10078C000446012202210020FFF7F6FE0DF10701BD
:10079C002046FFF793FF02B010BD10B582B004469F
:1007AC00002202211046FFF7E7FE0DF1070120465B
:1007BC00FFF784FF02B010BD08B5012211460020DE
:1007CC00FFF7DAFE6420FFF799FF002201211046A3
:1007DC00FFF7D2FE0120FFF791FF01221146002006
:1007EC00FFF7CAFE6420FFF789FF002201211046A3
:1007FC00FFF7C2FE6420FFF781FF012211460020A3
:10080C00FFF7BAFE0948FFF779FF1120FFF7C5FF84
:10081C000748FFF773FF3A20FFF7BFFF0520FFF7EC
:10082C00ADFF2920FFF7B9FF08BD00BFC0D4010000
:10083C00F049020038B505462A20FFF7AEFF00202C
:10084C00FFF79CFF0020FFF799FF0020FFF796FFB2
:10085C007F20FFF793FF2B20FFF79FFF0020FFF770
:10086C008DFF0020FFF78AFF0020FFF787FF9F20F6
:10087C00FFF784FF2C20FFF790FF002407E0280AE5
:10088C00FFF77CFFE8B2FFF779FF0134A4B2B4F5AF
:10089C00A04FF4D338BD2DE9F8438146884617465E
:1008AC001C46BDF820600B1AA51A013503FB055533
:1008BC00ADB22A20FFF771FF0020FFF75FFF48461B
:1008CC00FFF75CFF0020FFF759FF4046FFF756FF8C
:1008DC002B20FFF762FF0020FFF750FF3846FFF791
:1008EC004DFF0020FFF74AFF2046FFF747FF2C2063
:1008FC00FFF753FF002407E0300AFFF73FFFF0B289
:10090C00FFF73CFF0134A4B2AC42F5D3BDE8F88349
:10091C0010B582B04B1C441C0092DBB20A46E1B20B
:10092C00FFF7B9FF02B010BD2DE9F8438946904698
:10093C001F464138C0EB00104300104E1E440025EA
:10094C0015E00134E4B2092C0FD836F815302341E8
:10095C0013F0010FF5D005EB080104EB09003A4642
:10096C00C9B2C0B2FFF7D4FFEBE70135EDB20E2DE3
:10097C0001D80024E7E7BDE8F88300BFCC130008DA
:10098C002DE9F843894690461F463038C0EB0010DD
:10099C004300104E1E44002515E00134E4B2092C2E
:1009AC000FD836F81530234113F0010FF5D005EBB5
:1009BC00080104EB09003A46C9B2C0B2FFF7A8FF20
:1009CC00EBE70135EDB20E2D01D80024E7E7BDE8C9
:1009DC00F88300BFD81600082DE9F84389469046E5
:1009EC001F46C0EB001043000F4E1E44002515E0BF
:1009FC000134E4B2092C0FD836F81530234113F02A
:100A0C00010FF5D005EB080104EB09003A46C9B219
:100A1C00C0B2FFF77DFFEBE70135EDB20E2D01D82B
:100A2C000024E7E7BDE8F883D816000810B582B0BB
:100A3C0001F10F0300F10A040092DBB20A46E1B2A5
:100A4C00FFF729FF02B010BD2DE9F04784B08246B4
:100A5C000E4690461F464FF000092FE06C46224B85
:100A6C000FCB07C424F8023B1B0C2370002516E0A7
:100A7C000134E4B2092C10D804AB2B4413F8103C0D
:100A8C00234113F0010FF3D005EB080130193A465E
:100A9C00C9B2C0B2FFF73CFFEAE70135EDB20E2D4B
:100AAC0006D80024E6E73B4642463146FFF73CFFBA
:100ABC000B3EF6B209F101095FFA89F91AF809003F
:100ACC0070B12028F4D03A28C8D0A0F13003DBB2A2
:100ADC00092BE8D83B4642463146FFF751FFE7E782
:100AEC0004B0BDE8F08700BFBC13000808B50821AE
:100AFC000020FFF78BFD20B9254B93F90030012B1B
:100B0C0010DD0A210020FFF781FD90B9204B93F9ED
:100B1C000030002B0DDD1F4B14221A701E4B0122CE
:100B2C001A7008BD1B4B0A221A701B4B01221A703B
:100B3C00F7E70B210020FFF769FD20B9174B93F95C
:100B4C000030012B10DD09210020FFF75FFD90B96B
:100B5C00124B93F90030002B0DDD0E4B28221A702E
:100B6C000D4B01221A70DCE70A4B1E221A700A4B3D
:100B7C0001221A70D5E70C210020FFF747FD002851
:100B8C00CFD1044B32221A70034B01221A70C8E7E2
:100B9C00230000202E0000203E0000202200002018
:100BAC0010B582B0012813D0B0B1022812D001299F
:100BBC0014D0B9B1022913D001F11C0300F11B04AC
:100BCC000092DBB20A46E1B2FFF765FE02B010BD3F
:100BDC003220ECE75220EAE71220E8E74121EBE76C
:100BEC006221E9E72021E7E710B582B00020FFF78A
:100BFC0021FE4FF6FF73502264216948FFF724FF52
:100C0C004FF4784332225A215820FFF78DFE4FF6CD
:100C1C00FF73322246216348FFF716FF1F2332224F
:100C2C0028214F20FFF780FE13E0FFF75FFF5E489F
:100C3C00FFF764FD5D4B1B78002BF6D05C4B1B78EB
:100C4C00282B37D0322B59D01E2B10D0574B0022CB
:100C5C001A70584B1B78002BECD0574B1B7803F0B9
:100C6C00FF02002B51D0012A74D002B010BD4FF6F8
:100C7C00FF7300934123322269215520FFF70BFEAD
:100C8C004FF4784332225A215820FFF74DFE0024AE
:100C9C0000944123322237212320FFF7FCFD1F2330
:100CAC00322228214F20FFF73FFE434B1C70404B54
:100CBC001C70CBE74FF6FF73009341233222372190
:100CCC002320FFF7E8FD1F23322228214F20FFF7B6
:100CDC002BFE002400944123322269215520FFF77A
:100CEC00DAFD4FF4784332225A215820FFF71CFECC
:100CFC00314B01221A702E4B1C70A7E72D4B012291
:100D0C001A702B4B00221A70A0E70020FFF792FDFF
:100D1C004FF6FF7350226E212848FFF795FE4FF4D3
:100D2C007843502214215820FFF7FEFD4FF6FF7335
:100D3C0032226E212248FFF787FE1F233222142114
:100D4C004F20FFF7F1FD1F4B0A221A701E4B142285
:100D5C001A708AE70020FFF76DFD4FF6FF735022E3
:100D6C006E211648FFF770FE1F23502214214F20CE
:100D7C00FFF7DAFD4FF6FF7332226E211048FFF7B2
:100D8C0063FE4FF47843322214215820FFF7CCFD38
:100D9C000C4B14221A700C4B0A221A7065E700BF18
:100DAC00DC180008E8180008400D03003E00002085
:100DBC002E0000202F00002021000020EC1800083D
:100DCC00F41800083F0000204000002010B582B04D
:100DDC000020FFF72FFD4FF6FF74009482231E2294
:100DEC0032212D20FFF757FD009482231E22522121
:100DFC004D20FFF750FD009441233C2271210E2021
:100E0C00FFF749FD009462235D2271210E20FFF74C
:100E1C0042FD02B010BD00002DE9F047B6B0074608
:100E2C0088461446294D4FF06C0A524629460DEB64
:100E3C000A0000F0A5FA5246A918684600F0A0FA7C
:100E4C00012F14D0BFB1022F13D0B8F1010F14D061
:100E5C00B8F1000F17D0B8F1020F11D00A2C15D031
:100E6C00142C02D14FF01F096E46002527E03227C3
:100E7C00EBE75227E9E71227E7E74FF04108EDE7E8
:100E8C004FF06208EAE74FF02008E7E74FF47849A3
:100E9C001BAEEAE70134E4B21A2C0ED856F8253012
:100EAC00E34013F0010FF5D008EB050138194A4661
:100EBC00C9B2C0B2FFF72CFDECE70135EDB21A2D2B
:100ECC0001D80024E8E736B0BDE8F0870418000824
:100EDC0038B504460D460022FFF762FEC5F1020349
:100EEC00C4F1020103EB4303094A13445B5C0A2B74
:100EFC0002D0142B06D038BD0A2229462046FFF713
:100F0C008BFFF8E7142229462046FFF785FFF2E70E
:100F1C003400002038B504460D4640F64102FFF778
:100F2C003FFEC5F10203C4F1020103EB43030A4A7D
:100F3C0013445B5C0A2B02D0142B06D038BD0A225A
:100F4C0029462046FFF768FFF8E714222946204679
:100F5C00FFF762FFF2E700BF340000202D4B1A7838
:100F6C0059788A421AD070B42A4BD8781B79984297
:100F7C001BD0284CA579E479A5421ED0824224D0FE
:100F8C00994228D0234988784979884229D09A42B5
:100F9C002FD0834235D0002070BC70479B7899428B
:100FAC00E1D1002BDFD0012070471A4C6479A342A9
:100FBC00DFD1002CDDD00120EEE7164E367AB4429C
:100FCC00DCD1002EDAD00120E6E7A842D8D1002DE2
:100FDC00D6D00120E0E7A342D4D1002CD2D00120FE
:100FEC00DAE70C4C247AA142D1D1002CCFD00120CD
:100FFC00D2E7084A127A9342CBD1002AC9D00120F9
:10100C00CAE7AB4201D00020C6E70DB90020C3E708
:10101C000120C1E73400002070B582B0404B1C7831
:10102C00012C0FD13F4B93F90010C1F102033E4A42
:10103C0092F90000C0F1020503EB43063B4A32442F
:10104C00525D5AB3374B93F90010C1F10203364A83
:10105C0092F90000C0F1020403EB4303334A13443A
:10106C00334A12781A55C9B2C0B2FFF753FFFFF7D3
:10107C0075FF0446002841D10125294B1D70002223
:10108C008C211E20FFF7D2FC4FF6FF738C221E2101
:10109C002846FFF7A1FC204602B070BD3346234A18
:1010AC001344244A12785A55C9B2C0B2FFF732FF22
:1010BC00FFF754FF054680B14FF6FF73009364238E
:1010CC0046227F210020FFF7E6FB4FF6E07350220B
:1010DC0064211948FFF7B8FCDDE70224104B1C70A3
:1010EC0000228C211E20FFF7A1FC4FF6FF738C22EF
:1010FC001E212046FFF770FC2C46CCE74FF6FF7301
:10110C000093642346227F210020FFF7C4FB4FF697
:10111C00E073502264210848FFF796FC0124BAE7DB
:10112C00200000202300002022000020340000209A
:10113C00400000203F0000201019000830B583B09B
:10114C00FFF752FD5848FFF7D9FAFFF73FFE40F67C
:10115C004102564B1978564B1878FFF721FD4FF684
:10116C00FF738C2264215348FFF76EFC4FF6FF731C
:10117C008C221E210120FFF72FFC37E0FFF7B6FC75
:10118C004948FFF7BBFA4C4B1B78002BF6D04B4B66
:10119C001B780A3B282B26D8DFE803F015252525DC
:1011AC002525252525252E252525252525252525DA
:1011BC003F2525252525252525255025252525258E
:1011CC00252525256100394C394D21782878FFF7E4
:1011DC007FFE287821780131C9B22170FFF79AFE81
:1011EC00364B00221A70344B00221A70344B1B7889
:1011FC00002BC8D003B030BD2C4C2D4D2178287855
:10120C00FFF766FE287821780139C9B22170FFF703
:10121C0081FE2A4B00221A70E5E7244D244C2978D4
:10122C002078FFF755FE20780130C0B22070297865
:10123C00FFF770FE214B00221A70D4E71B4D1C4C9B
:10124C0029782078FFF744FE20780138C0B220704E
:10125C002978FFF75FFE194B00221A70C3E7194A71
:10126C00137801331370FFF7D7FE30B1144B012202
:10127C001A70124B00221A70B5E7124B1B78092B0F
:10128C00F7D10F4B01221A704FF6FF7300936423B2
:10129C0046227F210020FFF7FEFA00235022642112
:1012AC000948FFF7D1FBE4E7400D030023000020C1
:1012BC0022000020FC1800083E0000202E00002018
:1012CC003D000020300000200419000808B5FFF78D
:1012DC00BDF902210846FFF7C3F90C210220FFF7E4
:1012EC00BFF9082211460020FFF7D4F8012208218B
:1012FC000020FFF741F908220A210020FFF7CAF865
:10130C0001220A210020FFF737F908220B210020C7
:10131C00FFF7C0F801220B210020FFF72DF908225E
:10132C0009210020FFF7B6F8012209210020FFF760
:10133C0023F908220C210020FFF7ACF801220C2124
:10134C000020FFF719F9022201210020FFF7A2F873
:10135C00022211460020FFF79DF8092205210020EA
:10136C00FFF798F8092207210020FFF793F8FFF701
:10137C00BFF9FFF79BF9FFF71FFAFFF7DFFEFEE758
:10138C0010B5431E0A44914200D110BD11F8014B17
:10139C0003F8014FF7E70000F800200020002000C0
:1013AC002000FC01FA02F904F904FA02040100001D
:1013BC000000303000000000000000303000000061
:1013CC00000002020202020202020202FE03FE03FB
:1013DC0002020202060304018C01F8000000000066
:1013EC00FC0306020202020202020602FC030602CF
:1013FC000202020202020602FC0300000000FC00D2
:10140C008601020300020002000200020002000238
:10141C00000202038601FC0000000000F003180229
:10142C000C0206020202020202020202020206027E
:10143C000C021802F00300000000FE030002000280
:10144C00000200020002FE03000200020002000281
:10145C000002FE0300000000000200020002000275
:10146C0000020002FE030002000200020002000261
:10147C00FE0300000000FC008601020302020202CF
:10148C007E027E0200020002000202038601FC00C2
:10149C000000000002020202020202020202020228
:1014AC00FE03FE030202020202020202020200001A
:1014BC000000FE03FE03200020002000200020007E
:1014CC002000200020002000FE03FE03000000008E
:1014DC00F8010C03040204020400040004000400DC
:1014EC00040004000400FE03FE03000000000202DE
:1014FC000202020206020C023802E0033002180259
:10150C000C0206020202020200000000FE03FE03AF
:10151C0000030003000300030003000300030003A7
:10152C00000300030003000000000202020202029A
:10153C0002020202220272025202520252025202AF
:10154C0052028C01000000000E020A020A021A026A
:10155C0032022202220262024202C202820282028F
:10156C0082030000000070008800040102020202E5
:10157C00020202020202020202020401880070004E
:10158C000000000000020002000200020002000243
:10159C00FC0306020202020202020602FC03000025
:1015AC00010072008C000C011202220202020202E3
:1015BC000202020202020401880070000000000016
:1015CC0002020402080210022002C003FC030602FD
:1015DC000202020202020602FC0300000000780074
:1015EC0084000201020004000400F80080010001E4
:1015FC00000102018400780000000000200020009F
:10160C0020002000200020002000200020002000CE
:10161C002000FE03FE0300000000FC010601020393
:10162C00020202020202020202020202020202028E
:10163C0002020202000000002000D8008C0104010C
:10164C000603020202020202020202020202020269
:10165C000202000000008C0152025202520252029D
:10166C0052022202020202020202020202020202DE
:10167C0000000000020204010401880088005000F0
:10168C0020002000500088008800040102020000A5
:10169C00000020002000200020002000200020005E
:1016AC007000D80088008C010603020200000000C4
:1016BC00FE030002000180004000400020002000DA
:1016CC001000080004000200FE030000000070007F
:1016DC008800040104010401040104010401040153
:1016EC00040104018800700000000000F8002000D4
:1016FC0020002000200020002000200020002000DE
:10170C002000A000600000000000FC0080008000B1
:10171C0080004000200010000800040004000401B8
:10172C0088007000000000007000880004010400B4
:10173C0004000800F0000800040004000401880004
:10174C007000000000000400040004000400040009
:10175C00FE01040184004400240014000C00040069
:10176C000000000070008800040104000400040064
:10177C000800F0010001000100010001FC01000063
:10178C00000070008800040104010401880170014C
:10179C00000100010001040188007000000000003D
:1017AC00000180008000400040002000200010005C
:1017BC001000080008000400FC010000000070008C
:1017CC0088000401040104018800700088000401F1
:1017DC000401040188007000000000007000880003
:1017EC00040104000400040074008C0004010401D2
:1017FC0004018800700000000000000000000000E0
:10180C00000000001800C0003800E00070007000FC
:10181C00E0003800C0011C0080030E000007070028
:10182C00008E030000DC010000F8000000700000D6
:10183C0000F8000000DC0100008E03000007070028
:10184C0080030E00C0011C00E00038007000700026
:10185C003800E0001800C00000000000000000008C
:10186C00000000000000000000000000000000006C
:10187C0000FE030000FF070080010C00C0001800F0
:10188C0060003000300060001800C0001800C0007C
:10189C001800C0001800C0001800C0001800C000DC
:1018AC001800C0001800C0001800C0003000600014
:1018BC0060003000C000180080010C0000FF070021
:1018CC0000FE03000000000000000000000000000B
:1018DC00504C415945522031000000004F5200003D
:1018EC00504C415945523100504C415945523200EF
:1018FC00504C4159455200004E4F2057494E4E45D1
:10190C0052000000594F5520444F2049540000000C
:10191C00785634122C00002000000000000000005B
:10192C0000000000010203040607080900A24A0493
:08193C0001010101325476980B
:040000050800010DE1
:00000001FF
