:020000040800F2
:100000000050002021020008270200082B020008EF
:1000100043020008470200085F02000800000000D9
:10002000000000000000000000000000770200084F
:100030007B020008000000007F0200086D1000082D
:100040009102000891020008910200089102000844
:100050009102000891020008910200089102000834
:100060009102000891020008910200089102000824
:100070009102000891020008910200089102000814
:100080009102000891020008910200089102000804
:1000900091020008910200089102000891020008F4
:1000A00091020008910200089102000891020008E4
:1000B00091020008910200089102000891020008D4
:1000C00091020008910200089102000891020008C4
:1000D00091020008910200089102000891020008B4
:1000E000910200089102000891020008000000003F
:1000F0000000000000000000000000000000000000
:1001000000000000000000005FF808F100B583B0B7
:1001100000F0DEF8304B314A1360314A1360314B46
:10012000314A32498B4204D21168196004330432D7
:10013000F7E72A4B1A682E4B9A4200D0FEE7284B6D
:100140001A682C4B9A42F9D1234B2B4A13602B4A45
:1001500013602B4B02E000221A600433294A9342B9
:10016000F9D3254B1B6813B9244B1B6803B1FEE779
:1001700000F0BAF8694601A800F0A2F8224C234B1F
:10018000E41AA4100025AC4214DC214C214BE41AE3
:10019000A4100025AC4213DC0099019801F03EF94F
:1001A00005461D4C1D4BE41AA410002C0EDC2846FD
:1001B00000F084F8154B53F8253098470135E2E7F5
:1001C000144B53F8253098470135E3E7013C134BB6
:1001D00053F824309847E8E7BABADECA0000002096
:1001E0003C00002000000020281D000840000020E6
:1001F0007856341232547698400000205400002083
:100200004000002058000020BC020008BC0200088A
:10021000BC020008BC020008BC020008BC020008C6
:1002200008B5FFF773FF00BEFEE71EF0040F0CBF1A
:10023000EFF30880EFF309807146124A104700BEC1
:10024000FEE700BEFEE71EF0040F0CBFEFF30880D0
:10025000EFF3098071460C4A104700BEFEE71EF01E
:10026000040F0CBFEFF30880EFF309807146074AD3
:10027000104700BEFEE700BEFEE700BEFEE700BE80
:10028000FEE770473F0200085B02000873020008A7
:0402900000BEFEE7C7
:10029400281D00080000002040000020281D000840
:1002A4000000000000000000400000205800002072
:0802B400000000000000000042
:1002BC00FEE7000001230360014B0B60704700BF99
:1002CC000400002008B500F073F8024A024B9A6053
:1002DC0008BD00BF0000000800ED00E008B500F00C
:1002EC008FF808BD82B00023019300932C4A136849
:1002FC0043F4803313602A4B1B6803F400330093E0
:10030C00019B01330193009B1BB9019BB3F5A06FBB
:10031C00F1D1234B1B6813F4003F06D0012300934B
:10032C00009B012B04D002B0704700230093F7E729
:10033C001C4B1A6842F010021A601A6822F0030271
:10034C001A601A6842F002021A60A3F580535A68C8
:10035C005A605A685A605A6842F480625A605A6805
:10036C0022F47C125A605A6842F4E8125A601A68F5
:10037C0042F080721A600A4B1B6813F0007FFAD0AF
:10038C00074B5A6822F003025A605A6842F0020284
:10039C005A60034B5B6803F00C03082BF9D1C2E7DE
:1003AC00001002400020024008B5FFF79BFF08BD7B
:1003BC0008B5104B1A6842F001021A6059680E4ACF
:1003CC000A405A601A6822F0847222F480321A6051
:1003DC001A6822F480221A605A6822F4FE025A60CB
:1003EC004FF41F029A60FFF7DFFF044B4FF00062DF
:1003FC009A6008BD001002400000FFF800ED00E01C
:10040C001F4B5B6803F00C03042B15D0082B17D083
:10041C001BB11C4B1C4A1A6002E01A4B1A4A1A6098
:10042C00174B5B68C3F30313184AD35CDAB2154954
:10043C000B68D3400B607047124B134A1A60EFE7FE
:10044C000F4A53685268C3F38343023312F4803F5C
:10045C000AD00B4A526812F4003F0BD00C4A02FB34
:10046C0003F3084A1360DBE7094A02FB03F3054A6E
:10047C001360D5E7044A02FB03F3024A1360CFE78B
:10048C00001002401C00002000127A000C0000201A
:10049C0000093D0010B4012823D018B102283FD028
:1004AC0010BC704707290FD90F29F9D8A1F10804FE
:1004BC00A4000F23A3402A48016821EA030302FA8F
:1004CC0004F119430160EBE789000F2303FA01F0F3
:1004DC00244C236823EA000302FA01F1194321603A
:1004EC00DEE707290FD90F29DAD8A1F1080080001F
:1004FC000F2383401C4C216821EA030302FA00F10C
:10050C0019432160CCE789000F2303FA01F0174C43
:10051C00236823EA000302FA01F119432160BFE7C3
:10052C0007290FD90F29BBD8A1F108039B000F2075
:10053C0098400F4C216821EA000002FA03F10143B4
:10054C002160ADE789000F2303FA01F0094C236801
:10055C0023EA000302FA01F119432160A0E700BF6E
:10056C000408014000080140040C0140000C01404B
:10057C000410014000100140012818D010B10228CD
:10058C0029D07047012A0AD0002A2FD1012303FA5F
:10059C0001F11B4A136823EA01031360704701231E
:1005AC0003FA01F1164A13680B4313607047012AD2
:1005BC0009D0DAB9012303FA01F1124A136823EACC
:1005CC00010313607047012303FA01F10D4A13680C
:1005DC000B4313607047012A09D03AB9012303FA7F
:1005EC0001F1094A136823EA0103136070470123E0
:1005FC0003FA01F1044A13680B431360704700BF00
:10060C000C0801400C0C01400C10014001280AD0D0
:10061C0018B102280DD000207047094B1868C8404B
:10062C0000F001007047074B1868C84000F001004B
:10063C007047054B1868C84000F00100704700BFB8
:10064C0008080140080C01400810014010B582B0A8
:10065C00002000F081FD4FF6FF74009482231E22CF
:10066C0032212D2000F0A9FD009482231E2252215C
:10067C004D2000F0A2FD009441233C2271210E205C
:10068C0000F09BFD009462235D2271210E2000F08E
:10069C0094FD02B010BD0378012B0CD043B1022B9A
:1006AC000CD00B78012B0FD05BB1022B0FD0704705
:1006BC0012230370F5E732230370F2E75223037021
:1006CC00EFE720230B70704741230B7070476223B8
:1006DC000B70704710B584B014468DF80F0004AB46
:1006EC0003F8021D19460DF10F00FFF7D4FF9DF81A
:1006FC000F009DF80E2002F11C0300F11B01009469
:10070C00DBB2C9B200F059FD04B010BD08B5012A26
:10071C0002D0022A05D008BD40F64102FFF7DAFFED
:10072C00F9E70022FFF7D6FFF5E7000070B59EB0A1
:10073C0014468DF807001EAB03F8721D19460DF117
:10074C000700FFF7A8FF6C22184903A800F0BAFEB7
:10075C0022469DF806109DF80700FFF7D7FF0026EC
:10076C0017E00134E4B21A2C11D825FA04F313F073
:10077C00010FF6D09DF8061031449DF80700204477
:10078C004FF47042C9B2C0B200F054FDE9E7013633
:10079C00F6B21A2E08D81EAB03EB860353F86C5C2A
:1007AC00002DF4D00024DEE71EB070BDE814000864
:1007BC0070B5EEB016468DF807008DF806100DF1E9
:1007CC0006010DF10700FFF766FF594C6C252A4610
:1007DC00611953A800F076FE2A4604F1D80138A816
:1007EC0000F070FE2A4604F5A2711DA800F06AFE06
:1007FC002A4604F5D87102A800F064FE32469DF832
:10080C0006109DF80700FFF781FF002617E0013462
:10081C00E4B21A2C11D825FA04F313F0010FF6D018
:10082C009DF8061031449DF8070020444EF2C25248
:10083C00C9B2C0B200F0FEFCE9E70136F6B21A2EDE
:10084C0008D86EAB03EB860353F86C5C002DF4D028
:10085C000024DEE7002617E00134E4B21A2C11D88C
:10086C0025FA04F313F0010FF6D09DF8061031446D
:10087C009DF8070020444AF20D52C9B2C0B200F0F4
:10088C00D9FCE9E70136F6B21A2E06D802AB53F8BA
:10089C002650002DF6D00024E0E7002617E00134A6
:1008AC00E4B21A2C11D825FA04F313F0010FF6D088
:1008BC009DF8061031449DF8070020444FF6FF7256
:1008CC00C9B2C0B200F0B6FCE9E70136F6B21A2E96
:1008DC0006D81DAB53F82650002DF6D00024E0E7C7
:1008EC00002617E00134E4B21A2C11D825FA04F3CF
:1008FC0013F0010FF6D09DF8061031449DF8070057
:10090C0020444FF62E02C9B2C0B200F093FCE9E7C6
:10091C000136F6B21A2E08D86EAB03EB860353F8E9
:10092C00D85C002DF4D00024DEE76EB070BD00BFA3
:10093C00E814000870B5B8B016468DF8070038AB4F
:10094C0003F8DA1D19460DF10700FFF7A4FE304C31
:10095C006C252A4604F507711DA800F0B3FD2A4644
:10096C0004F5227102A800F0ADFD32469DF8061088
:10097C009DF80700FFF7CAFE002617E00134E4B229
:10098C001A2C11D825FA04F313F0010FF6D09DF8A8
:10099C00061031449DF8070020444FF6FF72C9B28F
:1009AC00C0B200F047FCE9E70136F6B21A2E08D8BF
:1009BC0038AB03EB860353F86C5C002DF4D00024A9
:1009CC00DEE7002617E00134E4B21A2C11D825FA20
:1009DC0004F313F0010FF6D09DF8061031449DF886
:1009EC00070020444FF47042C9B2C0B200F022FCA0
:1009FC00E9E70136F6B21A2E08D838AB03EB8603BA
:100A0C0053F8D85C002DF4D00024DEE738B070BD6C
:100A1C00E814000870B59EB014468DF807001EABA4
:100A2C0003F8721D19460DF10700FFF734FE6C2216
:100A3C00184903A800F046FD22469DF806109DF8C3
:100A4C000700FFF763FE002617E00134E4B21A2C0E
:100A5C0011D825FA04F313F0010FF6D09DF8061007
:100A6C0031449DF8070020444FF4FC62C9B2C0B277
:100A7C0000F0E0FBE9E70136F6B21A2E08D81EABFF
:100A8C0003EB860353F86C5C002DF4D00024DEE7F6
:100A9C001EB070BDDC17000870B59EB014468DF802
:100AAC0007001EAB03F8721D19460DF10700FFF786
:100ABC00F2FD6C22184903A800F004FD22469DF8B3
:100ACC0006109DF80700FFF721FE002617E0013401
:100ADC00E4B21A2C11D825FA04F313F0010FF6D056
:100AEC009DF8061031449DF8070020444EF6C07264
:100AFC00C9B2C0B200F09EFBE9E70136F6B21A2E7D
:100B0C0008D81EAB03EB860353F86C5C002DF4D0B5
:100B1C000024DEE71EB070BD4818000870B5C1F1A6
:100B2C000203C0F1020503EB4306114C3444645D2F
:100B3C000A2C19D133460F4C23445B5D042B15D87A
:100B4C00DFE803F00306090C0F00FFF7DFFD0DE0F3
:100B5C00FFF72EFE0AE0FFF7EDFE07E0FFF75AFF66
:100B6C0004E0FFF799FF01E0FFF7E0FD70BD00BF67
:100B7C00300000202400002038B500250AE00222B5
:100B8C0029462046FFF7CAFF0134E4B2022CF6D9FD
:100B9C000135EDB2022D01D80024F7E738BD000075
:100BAC000A2812D0142823D0704701EB4100124AB6
:100BBC0002440A20D0540133DBB2022BF5D90131A7
:100BCC00C9B2022903D80023F7E70021F9E77047DF
:100BDC0001EB4100084A02441420D0540133DBB22B
:100BEC00022BF5D90131C9B2022903D80023F7E74A
:100BFC000021F9E7704700BF3000002008B508213C
:100C0C000020FFF703FD20B92E4B93F90030012B88
:100C1C0010DD0A210020FFF7F9FC90B9294B93F95C
:100C2C000030002B0DDD284B14221A70274B0122AB
:100C3C001A7008BD244B0A221A70244B01221A7018
:100C4C00F7E70B210020FFF7E1FC20B9204B93F9CB
:100C5C000030012B10DD09210020FFF7D7FC90B9E3
:100C6C001B4B93F90030002B0DDD174B28221A700B
:100C7C00164B01221A70DCE7134B1E221A70134B11
:100C8C0001221A70D5E70C210020FFF7BFFC0028C9
:100C9C00CFD10C4B93F90030C3F102030C4A92F9FB
:100CAC000020C2F1020203EB43030A490B449B5C94
:100CBC00142BBED1044B32221A70044B01221A7031
:100CCC00B7E700BF49000020450000204700002086
:100CDC00480000203000002010B5374B93F900106D
:100CEC00C1F10203354A92F90000C0F1020403EB92
:100CFC004303334A13440A221A550122C9B2C0B223
:100D0C00FFF70CFF2F4B1B78002B35D02E4B1B788D
:100D1C00C3F102032D4A1178C1F102012C4A03EBF5
:100D2C0043031344585C244B93F90030C3F1020382
:100D3C00224991F90010C1F1020103EB4303134462
:100D4C005B5C984224D0234800F06AF91A4B93F963
:100D5C000010C1F10203194A92F90000C0F102041B
:100D6C0003EB4303164A134414221A550122C9B249
:100D7C00C0B2FFF7D3FE0AE0104B1A78134B1A706F
:100D8C000D4B1A78104B1A700E4B01221A7010BDB5
:100D9C00114C2378013B237000228C211E2000F083
:100DAC00D7FA4FF478438C221E21207800F0A6FA53
:100DBC00044B00221A70EAE749000020480000208A
:100DCC0030000020460000204B0000204C0000208A
:100DDC002400002040420F002000002030B583B0DA
:100DEC00FFF734FC4FF6FF738C226421574800F058
:100DFC00BDFA4FF478438C221E215548007800F040
:100E0C007DFA0A20FFF7CCFEFFF7B6FE514800F042
:100E1C0007F91420FFF7C4FEFFF7AEFE01224E4B7C
:100E2C0019784E4B1878FFF779FE39E0FFF7E6FE9C
:100E3C004B4800F0F5F84B4B1B78002BF6D04A4B87
:100E4C001B780A3B282B28D8DFE803F01527272727
:100E5C0027272727272740272727272727272727FD
:100E6C00532727272727272727276627272727279B
:100E7C00272727277900384C384D022221782878EB
:100E8C00FFF74CFE287821780131C9B2217001227C
:100E9C00FFF744FE344B00221A70324B00221A70BA
:100EAC002B4B1B78002BC6D14FF6FF73009364239A
:100EBC0046227F21002000F080F94FF6E07350228B
:100ECC0064212A4800F052FA03B030BD224C234D65
:100EDC00022221782878FFF721FE28782178013921
:100EEC00C9B221700122FFF719FE1F4B00221A70A4
:100EFC00D3E7194D194C022229782078FFF70EFE02
:100F0C0020780130C0B2207001222978FFF706FE4C
:100F1C00154B00221A70C0E70F4D104C0222297895
:100F2C002078FFF7FBFD20780138C0B22070012239
:100F3C002978FFF7F3FD0C4B00221A70ADE7FFF791
:100F4C00CBFE094B00221A70A7E700BFB4180008AB
:100F5C002000002080841E00490000204800002052
:100F6C00400D03004700002045000020BC1800087D
:100F7C00034B4FF480321A60043301221A6070471D
:100F8C00001002401F291CD801280BD010B10228D8
:100F9C0010D07047012303FA01F10A4A13680B437E
:100FAC0013607047012303FA01F1074A13680B43DE
:100FBC0013607047012303FA01F1044A13680B43D1
:100FCC0013607047141002401C10024018100240AD
:100FDC00024B40F247321A60704700BF00300140AC
:100FEC0038B505460C46002211461046FFF7C4FAE8
:100FFC00074BDD60064B9B6813F0800FFAD1044B56
:10100C00DB682370012200210846FFF7B5FA38BDD2
:10101C0000300140014B00221A60704710E000E0E4
:10102C000D4B18600D4A136843F0010313600B4B12
:10103C001B6813F4803FFAD0084B1A6822F00102A7
:10104C001A601A6822F002021A600023024A136026
:10105C0004321360704700BF14E000E010E000E0C1
:10106C0008B50B4B1B786BB90A4B1A6822F00202BD
:10107C001A601A6842F001021A600023064A1360D3
:10108C0004321360054B1B689847024B1B6808BD64
:10109C004A00002010E000E014E000E050000020C6
:1010AC0010B582B00446012202210020FFF764FA39
:1010BC000DF107012046FFF793FF02B010BD10B5EC
:1010CC0082B00446002202211046FFF755FA0DF1BA
:1010DC0007012046FFF784FF02B010BD08B50122BE
:1010EC0011460020FFF748FA6420FFF799FF002211
:1010FC0001211046FFF740FA0120FFF791FF012272
:10110C0011460020FFF738FA6420FFF789FF002210
:10111C0001211046FFF730FA6420FFF781FF01220E
:10112C0011460020FFF728FA0948FFF779FF112034
:10113C00FFF7C5FF0748FFF773FF3A20FFF7BFFF24
:10114C000520FFF7ADFF2920FFF7B9FF08BD00BF51
:10115C00C0D40100F049020038B505462A20FFF73B
:10116C00AEFF0020FFF79CFF0020FFF799FF002047
:10117C00FFF796FF7F20FFF793FF2B20FFF79FFFD2
:10118C000020FFF78DFF0020FFF78AFF0020FFF7FC
:10119C0087FF9F20FFF784FF2C20FFF790FF002490
:1011AC0007E0280AFFF77CFFE8B2FFF779FF01346C
:1011BC00A4B2B4F5A04FF4D338BD2DE9F843814661
:1011CC00884617461C46BDF820600B1AA51A013537
:1011DC0003FB0555ADB22A20FFF771FF0020FFF786
:1011EC005FFF4846FFF75CFF0020FFF759FF4046C2
:1011FC00FFF756FF2B20FFF762FF0020FFF750FF91
:10120C003846FFF74DFF0020FFF74AFF2046FFF757
:10121C0047FF2C20FFF753FF002407E0300AFFF7AD
:10122C003FFFF0B2FFF73CFF0134A4B2AC42F5D360
:10123C00BDE8F88310B582B04B1C441C0092DBB2A5
:10124C000A46E1B2FFF7B9FF02B010BD2DE9F84331
:10125C00894690461F464138C0EB00104300104EA3
:10126C001E44002515E00134E4B2092C0FD836F8E1
:10127C001530234113F0010FF5D005EB080104EBF9
:10128C0009003A46C9B2C0B2FFF7D4FFEBE701350B
:10129C00EDB20E2D01D80024E7E7BDE8F88300BFBE
:1012AC00F01800082DE9F843894690461F4630385F
:1012BC00C0EB00104300104E1E44002515E0013415
:1012CC00E4B2092C0FD836F81530234113F0010F76
:1012DC00F5D005EB080104EB09003A46C9B2C0B2DF
:1012EC00FFF7A8FFEBE70135EDB20E2D01D8002476
:1012FC00E7E7BDE8F88300BFFC1B00082DE9F843C5
:10130C00894690461F46C0EB001043000F4E1E440A
:10131C00002515E00134E4B2092C0FD836F815304D
:10132C00234113F0010FF5D005EB080104EB090084
:10133C003A46C9B2C0B2FFF77DFFEBE70135EDB21B
:10134C000E2D01D80024E7E7BDE8F883FC1B00084C
:10135C0010B582B001F10F0300F10A040092DBB268
:10136C000A46E1B2FFF729FF02B010BD2DE9F047A4
:10137C0084B082460E4690461F464FF000092FE07F
:10138C006C46224B0FCB07C424F8023B1B0C23707A
:10139C00002516E00134E4B2092C10D804AB2B4420
:1013AC0013F8103C234113F0010FF3D005EB0801A7
:1013BC0030193A46C9B2C0B2FFF73CFFEAE7013533
:1013CC00EDB20E2D06D80024E6E73B4642463146E8
:1013DC00FFF73CFF0B3EF6B209F101095FFA89F900
:1013EC001AF8090070B12028F4D03A28C8D0A0F11E
:1013FC003003DBB2092BE8D83B4642463146FFF7B7
:10140C0051FFE7E704B0BDE8F08700BFE018000823
:10141C0008B5FFF7ADFD02210846FFF7B3FD0C211F
:10142C000220FFF7AFFD082211460020FFF732F82B
:10143C00012208210020FFF79FF808220A21002032
:10144C00FFF728F801220A210020FFF795F808225F
:10145C000B210020FFF71EF801220B210020FFF7C3
:10146C008BF8082209210020FFF714F8012209212A
:10147C000020FFF781F808220C210020FFF70AF862
:10148C0001220C210020FFF777F802220121002015
:10149C00FFF700F8022211460020FEF7FBFF09229D
:1014AC0005210020FEF7F6FF092207210020FEF798
:1014BC00F1FFFFF7AFFDFFF78BFDFFF70FFEFFF717
:1014CC008DFCFEE710B5431E0A44914200D110BDBD
:1014DC0011F8014B03F8014FF7E700000000000082
:1014EC000000000000300000003000000000000090
:1014FC000000000000000000003000000030000080
:10150C00003000000030000000380000001C00001B
:10151C00000E0000000700008001000080010000A8
:10152C0080010000800100008001000080010600A5
:10153C00800106000003030000FE010000FC000017
:10154C00000000000000000000000000000000008F
:10155C000040000000E0000000F0010000F8030073
:10156C0000F8030000FC070000FC070000FE0F0061
:10157C0000FE0F0000FE0F0000FE0F0000FF1F001A
:10158C0000FF1F0000FF1F0000FF1F0000FF1F00D7
:10159C0000FF1F0000000000000000000000000021
:1015AC00000000000000000000000000000000002F
:1015BC00000000000000000000000000000000001F
:1015CC00000000000000000000000000000000000F
:1015DC0000000000000000000000000000000000FF
:1015EC0000000000000000000000000000000000EF
:1015FC0000000000000000000000000000000000DF
:10160C0000380000007C000000FE000000FE00001E
:10161C00007C00000038000000000000000000000A
:10162C0000000000000000000000000000000000AE
:10163C00000000000000000000000000000000009E
:10164C00000000000000000000000000000000008E
:10165C00000000000000000000000000000000007E
:10166C0000000000000000000000000000000E0060
:10167C0000001F0000803F0000803F0000001F00A2
:10168C0000000E0000000000000000000000000040
:10169C00000000000000000000000000000000003E
:1016AC00000000000000000000000000000000002E
:1016BC00000000000000000000000000000000001E
:1016CC00000000000000000000000000000000000E
:1016DC0000000000000000000000000000E000001E
:1016EC0000F0010000F8030000F8030000F0010016
:1016FC0000E00000000000000000000000000000FE
:10170C00F0030000E0010000C0000000C000000079
:10171C00C0000000C0000000C0000000C0000000BD
:10172C00C0000000C0000000C0000000C0000000AD
:10173C00C0000000C0000000C0000000C00000009D
:10174C00C0000000C0000000C0000000C00000008D
:10175C00C0000000C0000000C0010000000000003C
:10176C00000000000000000000000000000000006D
:10177C00000000000000000000000000000000005D
:10178C00000000000000000000000000000000004D
:10179C0000030000000F0000003F000000FF0000ED
:1017AC0000FF030000FF0F0000FF3F0000FF1F00C1
:1017BC0000FF0F0000FF030000FF0000003F0000CF
:1017CC00000F0000000200000000000000000000FC
:1017DC0000000000000000000000000000000000FD
:1017EC00000000000000F80000008C01000006035F
:1017FC0000FC030200FE030000FF0700805F0700EF
:10180C00C0B70700E05B0700E0ED0700F0760700CB
:10181C00F0BB0700F0DD0700F0EE030070F70100ED
:10182C00B0FF0000F03F0000F00F000000000000CF
:10183C00000000000000000000000000000000009C
:10184C0000000000E0FF3F00E0FF3F00E0FF3F0032
:10185C00E0FF3F00E0FF3F00E0FF3F00E0DF3F0024
:10186C00E0FF3F00E0FF3F00E0FF3F00E0FB3E00F9
:10187C00E0FF3F00E0FF3F00E0FF3F00E0FF3F00E4
:10188C00E0FD3D00E0F838006070300020202000C2
:10189C00202020007070700050505000707070004C
:1018AC00202020000000000052454D41494E4400CC
:1018BC00594F5520444F204954000000F800200097
:1018CC00200020002000FC01FA02F904F904FA02BD
:1018DC000401000000003030000000000000003067
:1018EC0030000000000002020202020202020202A8
:1018FC00FE03FE0302020202060304018C01F8003F
:10190C0000000000FC0306020202020202020602B0
:10191C00FC0306020202020202020602FC030000A1
:10192C000000FC008601020300020002000200021B
:10193C0000020002000202038601FC00000000000D
:10194C00F00318020C020602020202020202020258
:10195C00020206020C021802F00300000000FE0353
:10196C0000020002000200020002FE03000200025C
:10197C00000200020002FE03000000000002000250
:10198C000002000200020002FE030002000200023C
:10199C0000020002FE0300000000FC0086010203AE
:1019AC00020202027E027E02000200020002020318
:1019BC008601FC0000000000020202020202020288
:1019CC0002020202FE03FE030202020202020202F1
:1019DC00020200000000FE03FE0320002000200095
:1019EC00200020002000200020002000FE03FE0329
:1019FC0000000000F8010C030402040204000400BF
:101A0C0004000400040004000400FE03FE030000B4
:101A1C00000002020202020206020C023802E0037B
:101A2C00300218020C020602020202020000000040
:101A3C00FE03FE0300030003000300030003000386
:101A4C000003000300030003000300000000020277
:101A5C00020202020202020222027202520252022A
:101A6C005202520252028C01000000000E020A02C5
:101A7C000A021A0232022202220262024202C2024A
:101A8C0082028202820300000000700088000401C0
:101A9C000202020202020202020202020202040119
:101AAC00880070000000000000020002000200022A
:101ABC0000020002FC0306020202020202020602FB
:101ACC00FC030000010072008C000C0112022202C7
:101ADC0002020202020202020202040188007000E9
:101AEC000000000002020402080210022002C003DF
:101AFC00FC0306020202020202020602FC030000C0
:101B0C000000780084000201020004000400F800C8
:101B1C008001000100010201840078000000000037
:101B2C0020002000200020002000200020002000A9
:101B3C00200020002000FE03FE0300000000FC013A
:101B4C000601020302020202020202020202020265
:101B5C000202020202020202000000002000D80071
:101B6C008C010401060302020202020202020202BA
:101B7C00020202020202000000008C015202520218
:101B8C005202520252022202020202020202020219
:101B9C00020202020000000002020401040188009B
:101BAC0088005000200020005000880088000401AC
:101BBC000202000000002000200020002000200075
:101BCC00200020007000D80088008C01060302025F
:101BDC0000000000FE0300020001800040004000F5
:101BEC00200020001000080004000200FE0300008A
:101BFC0000007000880004010401040104010401C8
:101C0C0004010401040104018800700000000000BC
:101C1C00F8002000200020002000200020002000E0
:101C2C00200020002000A000600000000000FC004C
:101C3C00800080008000400020001000080004009C
:101C4C00040004018800700000000000700088008F
:101C5C000401040004000800F00008000400040063
:101C6C00040188007000000000000400040004005F
:101C7C0004000400FE01040184004400240014004C
:101C8C000C00040000000000700088000401040037
:101C9C00040004000800F001000100010001000133
:101CAC00FC01000000007000880004010401040124
:101CBC00880170010001000100010401880070001E
:101CCC000000000000018000800040004000200067
:101CDC00200010001000080008000400FC010000A7
:101CEC0000007000880004010401040188007000E9
:101CFC008800040104010401880070000000000049
:101D0C0070008800040104000400040074008C00BE
:0C1D1C00040104010401880070000000B4
:101D28007856341244000020000000000000000033
:101D380000000000010203040607080900A24A0483
:101D480004FFFFFF010204030401000203FFFFFF79
:101D5800141414141414141414FFFFFF3254769836
:040000050800010DE1
:00000001FF
