:020000040800F2
:100000000050002021020008270200082B020008EF
:1000100043020008470200085F02000800000000D9
:10002000000000000000000000000000770200084F
:100030007B020008000000007F0200088302000825
:100040009102000891020008910200089102000844
:100050009102000891020008910200089102000834
:100060009102000891020008910200089102000824
:100070009102000891020008910200089102000814
:100080009102000891020008910200089102000804
:1000900091020008910200089102000891020008F4
:1000A00091020008910200089102000891020008E4
:1000B00091020008910200089102000891020008D4
:1000C00091020008910200089102000891020008C4
:1000D00091020008910200089102000891020008B4
:1000E000910200089102000891020008000000003F
:1000F0000000000000000000000000000000000000
:1001000000000000000000005FF808F100B583B0B7
:1001100000F0DEF8304B314A1360314A1360314B46
:10012000314A32498B4204D21168196004330432D7
:10013000F7E72A4B1A682E4B9A4200D0FEE7284B6D
:100140001A682C4B9A42F9D1234B2B4A13602B4A45
:1001500013602B4B02E000221A600433294A9342B9
:10016000F9D3254B1B6813B9244B1B6803B1FEE779
:1001700000F0BAF8694601A800F0A2F8224C234B1F
:10018000E41AA4100025AC4214DC214C214BE41AE3
:10019000A4100025AC4213DC0099019800F09AFDF0
:1001A00005461D4C1D4BE41AA410002C0EDC2846FD
:1001B00000F084F8154B53F8253098470135E2E7F5
:1001C000144B53F8253098470135E3E7013C134BB6
:1001D00053F824309847E8E7BABADECA0000002096
:1001E00020000020000000200C0D0008240000204A
:1001F0007856341232547698240000202C000020C7
:100200002400002030000020BC020008BC020008CE
:10021000BC020008BC020008BC020008BC020008C6
:1002200008B5FFF773FF00BEFEE71EF0040F0CBF1A
:10023000EFF30880EFF309807146124A104700BEC1
:10024000FEE700BEFEE71EF0040F0CBFEFF30880D0
:10025000EFF3098071460C4A104700BEFEE71EF01E
:10026000040F0CBFEFF30880EFF309807146074AD3
:10027000104700BEFEE700BEFEE700BEFEE700BE80
:10028000FEE770473F0200085B02000873020008A7
:0402900000BEFEE7C7
:100294000C0D000800000020240000200C0D0008B4
:1002A40000000000000000002400002030000020B6
:0802B400000000000000000042
:1002BC00FEE7000001230360014B0B60704700BF99
:1002CC000400002008B500F073F8024A024B9A6053
:1002DC0008BD00BF0000000800ED00E008B500F00C
:1002EC008FF808BD82B00023019300932C4A136849
:1002FC0043F4803313602A4B1B6803F400330093E0
:10030C00019B01330193009B1BB9019BB3F5A06FBB
:10031C00F1D1234B1B6813F4003F06D0012300934B
:10032C00009B012B04D002B0704700230093F7E729
:10033C001C4B1A6842F010021A601A6822F0030271
:10034C001A601A6842F002021A60A3F580535A68C8
:10035C005A605A685A605A6842F480625A605A6805
:10036C0022F47C125A605A6842F4E8125A601A68F5
:10037C0042F080721A600A4B1B6813F0007FFAD0AF
:10038C00074B5A6822F003025A605A6842F0020284
:10039C005A60034B5B6803F00C03082BF9D1C2E7DE
:1003AC00001002400020024008B5FFF79BFF08BD7B
:1003BC0008B5104B1A6842F001021A6059680E4ACF
:1003CC000A405A601A6822F0847222F480321A6051
:1003DC001A6822F480221A605A6822F4FE025A60CB
:1003EC004FF41F029A60FFF7DFFF044B4FF00062DF
:1003FC009A6008BD001002400000FFF800ED00E01C
:10040C001F4B5B6803F00C03042B15D0082B17D083
:10041C001BB11C4B1C4A1A6002E01A4B1A4A1A6098
:10042C00174B5B68C3F30313184AD35CDAB2154954
:10043C000B68D3400B607047124B134A1A60EFE7FE
:10044C000F4A53685268C3F38343023312F4803F5C
:10045C000AD00B4A526812F4003F0BD00C4A02FB34
:10046C0003F3084A1360DBE7094A02FB03F3054A6E
:10047C001360D5E7044A02FB03F3024A1360CFE78B
:10048C00001002401C00002000127A000C0000201A
:10049C0000093D0010B4012823D018B102283FD028
:1004AC0010BC704707290FD90F29F9D8A1F10804FE
:1004BC00A4000F23A3402A48016821EA030302FA8F
:1004CC0004F119430160EBE789000F2303FA01F0F3
:1004DC00244C236823EA000302FA01F1194321603A
:1004EC00DEE707290FD90F29DAD8A1F1080080001F
:1004FC000F2383401C4C216821EA030302FA00F10C
:10050C0019432160CCE789000F2303FA01F0174C43
:10051C00236823EA000302FA01F119432160BFE7C3
:10052C0007290FD90F29BBD8A1F108039B000F2075
:10053C0098400F4C216821EA000002FA03F10143B4
:10054C002160ADE789000F2303FA01F0094C236801
:10055C0023EA000302FA01F119432160A0E700BF6E
:10056C000408014000080140040C0140000C01404B
:10057C000410014000100140012818D010B10228CD
:10058C0029D07047012A0AD0002A2FD1012303FA5F
:10059C0001F11B4A136823EA01031360704701231E
:1005AC0003FA01F1164A13680B4313607047012AD2
:1005BC0009D0DAB9012303FA01F1124A136823EACC
:1005CC00010313607047012303FA01F10D4A13680C
:1005DC000B4313607047012A09D03AB9012303FA7F
:1005EC0001F1094A136823EA0103136070470123E0
:1005FC0003FA01F1044A13680B431360704700BF00
:10060C000C0801400C0C01400C100140034B4FF442
:10061C0080321A60043301221A60704700100240C5
:10062C001F291CD801280BD010B1022810D07047FC
:10063C00012303FA01F10A4A13680B431360704754
:10064C00012303FA01F1074A13680B431360704747
:10065C00012303FA01F1044A13680B43136070473A
:10066C00141002401C1002401810024008B5012260
:10067C0000210846FFF70EFF012211460020FFF76C
:10068C0009FF012202210020FFF704FF01220321B0
:10069C000020FFF7FFFE012204210020FFF7FAFEE5
:1006AC00012205210020FFF7F5FE01220621002082
:1006BC00FFF7F0FE08BD08B509282ED8DFE810F0CA
:1006CC000A002E00520076009A00BE00E2000601DD
:1006DC002A014E01012200210846FFF74DFF01229D
:1006EC0011460020FFF748FF012202210020FFF7EE
:1006FC0043FF012203210020FFF73EFF01220421CA
:10070C000020FFF739FF012205210020FFF734FFFD
:10071C00002206211046FFF72FFF08BD00221146CC
:10072C001046FFF729FF012211460020FFF724FF96
:10073C00012202210020FFF71FFF00220321104697
:10074C00FFF71AFF002204211046FFF715FF0022C5
:10075C0005211046FFF710FF002206211046FFF777
:10076C000BFFDAE7012200210846FFF705FF012203
:10077C0011460020FFF700FF002202211046FFF770
:10078C00FBFE012203210020FFF7F6FE01220421CB
:10079C000020FFF7F1FE002205211046FFF7ECFECA
:1007AC00012206210020FFF7E7FEB6E70122002117
:1007BC000846FFF7E1FE012211460020FFF7DCFEA0
:1007CC00012202210020FFF7D7FE01220321002085
:1007DC00FFF7D2FE002204211046FFF7CDFE0022C7
:1007EC0005211046FFF7C8FE012206210020FFF765
:1007FC00C3FE92E7002211461046FFF7BDFE012210
:10080C0011460020FFF7B8FE012202210020FFF75D
:10081C00B3FE002203211046FFF7AEFE0022042196
:10082C001046FFF7A9FE012205210020FFF7A4FEC8
:10083C00012206210020FFF79FFE6EE70122002116
:10084C000846FFF799FE002201211046FFF794FE9F
:10085C00012202210020FFF78FFE0122032100203C
:10086C00FFF78AFE002204211046FFF785FE0122C5
:10087C0005210020FFF780FE012206210020FFF752
:10088C007BFE4AE7012200210846FFF775FE002295
:10089C0001211046FFF770FE012202210020FFF714
:1008AC006BFE012203210020FFF766FE01220421CA
:1008BC000020FFF761FE012205210020FFF75CFEFE
:1008CC00012206210020FFF757FE26E70122002116
:1008DC000846FFF751FE012211460020FFF74CFE9F
:1008EC00012202210020FFF747FE002203211046BF
:1008FC00FFF742FE002204211046FFF73DFE0022C6
:10090C0005211046FFF738FE002206211046FFF79E
:10091C0033FE02E7012200210846FFF72DFE0122DB
:10092C0011460020FFF728FE012202210020FFF7CC
:10093C0023FE012203210020FFF71EFE01220421C9
:10094C000020FFF719FE012205210020FFF714FEFD
:10095C00012206210020FFF70FFEDEE60122002116
:10096C000846FFF709FE012211460020FFF704FE9E
:10097C00012202210020FFF7FFFD012203210020AC
:10098C00FFF7FAFD002204211046FFF7F5FD0122C6
:10099C0005210020FFF7F0FD012206210020FFF7C2
:1009AC00EBFDBAE608B509282ED8DFE810F00A00EE
:1009BC002E00520076009A00BE00E20006012A01C9
:1009CC004E01002211461046FFF7D6FD00220121F0
:1009DC001046FFF7D1FD002202211046FFF7CCFD97
:1009EC00002203211046FFF7C7FD00220421104608
:1009FC00FFF7C2FD002205211046FFF7BDFD0122C5
:100A0C0006210020FFF7B8FD08BD01220021084691
:100A1C00FFF7B2FD002201211046FFF7ADFD0022C9
:100A2C0002211046FFF7A8FD012203210020FFF749
:100A3C00A3FD012204210020FFF79EFD01220521C8
:100A4C000020FFF799FD012206210020FFF794FDFD
:100A5C00DAE7002211461046FFF78EFD0022012135
:100A6C001046FFF789FD012202210020FFF784FDCB
:100A7C00002203211046FFF77FFD002204211046BF
:100A8C00FFF77AFD012205210020FFF775FD0022FA
:100A9C0006211046FFF770FDB6E7002211461046FE
:100AAC00FFF76AFD002201211046FFF765FD0022C9
:100ABC0002211046FFF760FD002203211046FFF7CC
:100ACC005BFD012204210020FFF756FD01220521C8
:100ADC000020FFF751FD002206211046FFF74CFDC8
:100AEC0092E7012200210846FFF746FD0022012172
:100AFC001046FFF741FD002202211046FFF73CFD96
:100B0C00012203210020FFF737FD012204210020E0
:100B1C00FFF732FD002205211046FFF72DFD0022C4
:100B2C0006211046FFF728FD6EE7002211461046FD
:100B3C00FFF722FD012211460020FFF71DFD0022C8
:100B4C0002211046FFF718FD002203211046FFF783
:100B5C0013FD012204210020FFF70EFD00220521C8
:100B6C001046FFF709FD002206211046FFF704FD91
:100B7C004AE7002211461046FFF7FEFC01221146FF
:100B8C000020FFF7F9FC002202211046FFF7F4FCCD
:100B9C00002203211046FFF7EFFC0022042110462F
:100BAC00FFF7EAFC002205211046FFF7E5FC0022C6
:100BBC0006211046FFF7E0FC26E7002211461046FE
:100BCC00FFF7DAFC002201211046FFF7D5FC0022CA
:100BDC0002211046FFF7D0FC012203210020FFF771
:100BEC00CBFC012204210020FFF7C6FC01220521C9
:100BFC000020FFF7C1FC012206210020FFF7BCFCFE
:100C0C0002E7002211461046FFF7B6FC0022012134
:100C1C001046FFF7B1FC002202211046FFF7ACFC96
:100C2C00002203211046FFF7A7FC002204211046E6
:100C3C00FFF7A2FC002205211046FFF79DFC0022C5
:100C4C0006211046FFF798FCDEE6002211461046FE
:100C5C00FFF792FC002201211046FFF78DFC0022C9
:100C6C0002211046FFF788FC002203211046FFF7F3
:100C7C0083FC012204210020FFF77EFC00220521C9
:100C8C001046FFF779FC002206211046FFF774FC92
:100C9C00BAE608B510B1012804D008BD0846FFF724
:100CAC0081FEFAE70846FFF706FDF6E7002205E0AD
:100CBC0000BF0133B3F5FA7FFADB0132B2F5FA7FEC
:100CCC0001DA0023F6E7704710B5FFF79FFC02210D
:100CDC000846FFF7A5FCFFF7C9FC0EE0E1B20120C6
:100CEC00FFF7D7FFFFF7E2FFFFF7E0FFFFF7DEFFAD
:0E0CFC00FFF7DCFF0134092CF0DD0024FBE7DC
:100D0C00785634122800002000000000000000007B
:100D1C0000000000010203040607080900A24A04AF
:040D2C00325476982F
:040000050800010DE1
:00000001FF
