:020000040800F2
:100000000050002021020008270200082B020008EF
:1000100043020008470200085F02000800000000D9
:10002000000000000000000000000000770200084F
:100030007B020008000000007F020008010D00089C
:100040009102000891020008910200089102000844
:100050009102000891020008910200089102000834
:100060009102000891020008910200089102000824
:100070009102000891020008910200089102000814
:100080009102000891020008910200089102000804
:1000900091020008910200089102000891020008F4
:1000A00091020008910200089102000891020008E4
:1000B00091020008910200089102000891020008D4
:1000C00091020008910200089102000891020008C4
:1000D00091020008910200089102000891020008B4
:1000E000910200089102000891020008000000003F
:1000F0000000000000000000000000000000000000
:1001000000000000000000005FF808F100B583B0B7
:1001100000F0DEF8304B314A1360314A1360314B46
:10012000314A32498B4204D21168196004330432D7
:10013000F7E72A4B1A682E4B9A4200D0FEE7284B6D
:100140001A682C4B9A42F9D1234B2B4A13602B4A45
:1001500013602B4B02E000221A600433294A9342B9
:10016000F9D3254B1B6813B9244B1B6803B1FEE779
:1001700000F0BAF8694601A800F0A2F8224C234B1F
:10018000E41AA4100025AC4214DC214C214BE41AE3
:10019000A4100025AC4213DC0099019800F050FF38
:1001A00005461D4C1D4BE41AA410002C0EDC2846FD
:1001B00000F084F8154B53F8253098470135E2E7F5
:1001C000144B53F8253098470135E3E7013C134BB6
:1001D00053F824309847E8E7BABADECA0000002096
:1001E00054000020000000204C150008580000209A
:1001F000785634123254769858000020B800002007
:1002000058000020BC000020BC020008BC0200080E
:10021000BC020008BC020008BC020008BC020008C6
:1002200008B5FFF773FF00BEFEE71EF0040F0CBF1A
:10023000EFF30880EFF309807146124A104700BEC1
:10024000FEE700BEFEE71EF0040F0CBFEFF30880D0
:10025000EFF3098071460C4A104700BEFEE71EF01E
:10026000040F0CBFEFF30880EFF309807146074AD3
:10027000104700BEFEE700BEFEE700BEFEE700BE80
:10028000FEE770473F0200085B02000873020008A7
:0402900000BEFEE7C7
:100294004C15000800000020580000204C150008F0
:1002A400000000000000000058000020BC000020F6
:0802B400000000000000000042
:1002BC00FEE7000001230360014B0B60704700BF99
:1002CC000400002008B500F073F8024A024B9A6053
:1002DC0008BD00BF0000000800ED00E008B500F00C
:1002EC008FF808BD82B00023019300932C4A136849
:1002FC0043F4803313602A4B1B6803F400330093E0
:10030C00019B01330193009B1BB9019BB3F5A06FBB
:10031C00F1D1234B1B6813F4003F06D0012300934B
:10032C00009B012B04D002B0704700230093F7E729
:10033C001C4B1A6842F010021A601A6822F0030271
:10034C001A601A6842F002021A60A3F580535A68C8
:10035C005A605A685A605A6842F480625A605A6805
:10036C0022F47C125A605A6842F4E8125A601A68F5
:10037C0042F080721A600A4B1B6813F0007FFAD0AF
:10038C00074B5A6822F003025A605A6842F0020284
:10039C005A60034B5B6803F00C03082BF9D1C2E7DE
:1003AC00001002400020024008B5FFF79BFF08BD7B
:1003BC0008B5104B1A6842F001021A6059680E4ACF
:1003CC000A405A601A6822F0847222F480321A6051
:1003DC001A6822F480221A605A6822F4FE025A60CB
:1003EC004FF41F029A60FFF7DFFF044B4FF00062DF
:1003FC009A6008BD001002400000FFF800ED00E01C
:10040C001F4B5B6803F00C03042B15D0082B17D083
:10041C001BB11C4B1C4A1A6002E01A4B1A4A1A6098
:10042C00174B5B68C3F30313184AD35CDAB2154954
:10043C000B68D3400B607047124B134A1A60EFE7FE
:10044C000F4A53685268C3F38343023312F4803F5C
:10045C000AD00B4A526812F4003F0BD00C4A02FB34
:10046C0003F3084A1360DBE7094A02FB03F3054A6E
:10047C001360D5E7044A02FB03F3024A1360CFE78B
:10048C00001002401C00002000127A000C0000201A
:10049C0000093D0010B4012823D018B102283FD028
:1004AC0010BC704707290FD90F29F9D8A1F10804FE
:1004BC00A4000F23A3402A48016821EA030302FA8F
:1004CC0004F119430160EBE789000F2303FA01F0F3
:1004DC00244C236823EA000302FA01F1194321603A
:1004EC00DEE707290FD90F29DAD8A1F1080080001F
:1004FC000F2383401C4C216821EA030302FA00F10C
:10050C0019432160CCE789000F2303FA01F0174C43
:10051C00236823EA000302FA01F119432160BFE7C3
:10052C0007290FD90F29BBD8A1F108039B000F2075
:10053C0098400F4C216821EA000002FA03F10143B4
:10054C002160ADE789000F2303FA01F0094C236801
:10055C0023EA000302FA01F119432160A0E700BF6E
:10056C000408014000080140040C0140000C01404B
:10057C000410014000100140012818D010B10228CD
:10058C0029D07047012A0AD0002A2FD1012303FA5F
:10059C0001F11B4A136823EA01031360704701231E
:1005AC0003FA01F1164A13680B4313607047012AD2
:1005BC0009D0DAB9012303FA01F1124A136823EACC
:1005CC00010313607047012303FA01F10D4A13680C
:1005DC000B4313607047012A09D03AB9012303FA7F
:1005EC0001F1094A136823EA0103136070470123E0
:1005FC0003FA01F1044A13680B431360704700BF00
:10060C000C0801400C0C01400C10014001280AD0D0
:10061C0018B102280DD000207047094B1868C8404B
:10062C0000F001007047074B1868C84000F001004B
:10063C007047054B1868C84000F00100704700BFB8
:10064C0008080140080C01400810014008B50821B9
:10065C000020FFF7DBFF30B90F4B0A221A700F4B4B
:10066C0001221A7008BD0B210020FFF7CFFF30B913
:10067C00094B1E221A70094B01221A70F2E709214C
:10068C000020FFF7C3FF0028ECD1034B28221A707F
:10069C00024B01221A70E5E75D000020B00000203B
:1006AC00F0B583B000252E461EE00026062720015B
:1006BC000134E4B26B1C1B012A012101009703F0E9
:1006CC00F00302F0F00201F0F00100F0F00000F095
:1006DC00BEFB072C04D8002EE7D101261927E6E72C
:1006EC0086F001060135EDB2092D01D80024F0E7A2
:1006FC0003B0F0BD10B582B04B1C1B01023B0901CD
:10070C008C1C411C0901023900010230009203F0DB
:10071C00FE0304F0FE0201F0FE0100F0FE0000F00A
:10072C0096FB02B010BD00002DE9F04F83B00746D8
:10073C008B46924601934FF0000845464FF0FF3927
:10074C0020E00135EDB2013676B20134E4B2022C70
:10075C0010D807EBC702104B13445B5D012BF0D193
:10076C000AEB09010BEB0600019AC9B2C0B2FFF704
:10077C00C1FFE6E709F101094FFA89F908F101080F
:10078C005FFA88F8B8F1020F03D800244FF0FF3657
:10079C00DDE703B0BDE8F08F2C0000202DE9F84F09
:1007AC0080468B4692464FF000094D464FF0FF377E
:1007BC0038E03BB30BEB060313F0010F22D00AEB2E
:1007CC0007010BEB06001922C9B2C0B2FFF792FF6A
:1007DC000135EDB2013676B20134E4B2022C1BD8ED
:1007EC0008EBC802144B13445B5D012BF0D10AEBF0
:1007FC00070313F00103DCD10BEB060212F0010F1F
:10080C00DDD0D6E70AEB07010BEB06000622C9B2D6
:10081C00C0B2FFF76FFFDBE701377FB209F10109C7
:10082C005FFA89F9B9F1020F03D800244FF0FF36B3
:10083C00D4E7BDE8F88F00BF2C0000202DE9F84369
:10084C00074688464FF000094FF0FF362BE0DBB12E
:10085C003B1913F0010F17D008EB060138191922B8
:10086C00C9B2C0B2FFF746FF013464B20135EDB234
:10087C00022D12D808EB060313F00103E7D13A1945
:10088C0012F0010FE8D0E2E708EB06013819062256
:10089C00C9B2C0B2FFF72EFFE6E7013676B209F116
:1008AC0001095FFA89F9B9F1020F03D800254FF05D
:1008BC00FF34DDE7BDE8F883F8B504460D4616466F
:1008CC001F46104900EBC0028B18885C93F806C0D9
:1008DC0001F802C01A7A9A719A781A7298705A783A
:1008EC00D9785970D979D9705979D9715A713146E9
:1008FC002846FFF7A3FF3B46721E29462046FFF70A
:10090C0013FFF8BD2C000020F8B505460C46164622
:10091C001F46FFF743FF611E3B46324649B228464D
:10092C00FFF702FFF8BDF8B505460C4616461F4604
:10093C00FFF734FF611C3B46324649B22846FFF7AD
:10094C00F3FEF8BDF8B505460E4614461F46FFF7F4
:10095C0025FF621E3B4652B231462846FFF7E4FEA5
:10096C00F8BD00002DE9F0414FF0000E75464FF038
:10097C00FF3C2BE002EB0C080E19194F07EBC807D4
:10098C004FF0010807F806800135EDB2013464B26E
:10099C000133DBB2022B11D800EBC007114E3E44E1
:1009AC00765D012EE6D002EB0C080E190C4F07EB0E
:1009BC00C8074FF0000807F80680E5E70CF1010CBA
:1009CC004FFA8CFC0EF1010E5FFA8EFEBEF1020F97
:1009DC0003D800234FF0FF34DCE7BDE8F08100BF03
:1009EC00600000202C000020F0B400252A464FF0B7
:1009FC00FF3627E00132D2B2013040B20133DBB214
:100A0C00022B1BD814490978144C615C01EBC10111
:100A1C00134C2144895C0129ECD1124991F9001045
:100A2C0001393144104C94F9004004440F4F07EB4A
:100A3C00C101095D0129DDD100200AE0013676B241
:100A4C000135EDB2022D03D800234FF0FF30D7E76C
:100A5C000120F0BC704700BF5F0000205000002058
:100A6C002C0000202100002020000020600000202D
:100A7C0038B5434B1B781E2B41D0282B55D00A2B55
:100A8C002AD0404B93F90040631E002B03DDFFF787
:100A9C00ABFF002863D13C4D2B7822463B4991F9A2
:100AAC0000103B48C05CFFF75DFF2B78022B52D83F
:100ABC0001332B70354B04221A70324B0A221A70F8
:100ACC00344A137801331370324B1B78092B02D93B
:100ADC00314B01221A7038BD2B4B18782F4B33F841
:100AEC001030284A92F90020284991F90010284C1E
:100AFC00205CFFF7E1FE224B00221A70C1E7224B6B
:100B0C001878224C254B33F810301E4A92F90020ED
:100B1C0094F900101E4D285CFFF705FF184B0022BE
:100B2C001A70237801332370ABE7174B1878174CE6
:100B3C001A4B33F81030134A92F9002094F9001034
:100B4C00134D285CFFF7E0FE0D4B00221A70237842
:100B5C00013B237095E70C4B00221A70AAE70A4B55
:100B6C001B780B4AD05C094A92F90010651E054AA5
:100B7C0015700A4A32F813302246FFF7E3FEA3E75A
:100B8C005D000020210000205F00002020000020DC
:100B9C00500000205E000020B10000202400002046
:100BAC0008B5002000F022F94FF47843502264215C
:100BBC00014800F0EDF908BDE010000808B5FFF79A
:100BCC006FFD0FE0FFF742FD0A4B00221A700A4B33
:100BDC001B78002BF6D0FFF739FDFFF749FF0748CC
:100BEC0000F068F8064B1B78002BF0D0FFF7D8FF0D
:100BFC0008BD00BF5D000020B0000020400D0300C8
:100C0C00B1000020034B4FF480321A6004330122F0
:100C1C001A607047001002401F291CD801280BD005
:100C2C0010B1022810D07047012303FA01F10A4ACF
:100C3C0013680B4313607047012303FA01F1074A51
:100C4C0013680B4313607047012303FA01F1044A44
:100C5C0013680B4313607047141002401C100240C1
:100C6C0018100240024B40F247321A60704700BF26
:100C7C000030014038B505460C460022114610469E
:100C8C00FFF77AFC074BDD60064B9B6813F0800F77
:100C9C00FAD1044BDB682370012200210846FFF7D0
:100CAC006BFC38BD00300140014B00221A607047CC
:100CBC0010E000E00D4B18600D4A136843F001037F
:100CCC0013600B4B1B6813F4803FFAD0084B1A6867
:100CDC0022F001021A601A6822F002021A60002344
:100CEC00024A136004321360704700BF14E000E046
:100CFC0010E000E008B50B4B1B786BB90A4B1A6877
:100D0C0022F002021A601A6842F001021A600023F3
:100D1C00064A136004321360054B1B689847024B5C
:100D2C001B6808BDB200002010E000E014E000E0F9
:100D3C00B400002010B582B004460122022100202C
:100D4C00FFF71AFC0DF107012046FFF793FF02B0E5
:100D5C0010BD10B582B00446002202211046FFF7E8
:100D6C000BFC0DF107012046FFF784FF02B010BD0C
:100D7C0008B5012211460020FFF7FEFB6420FFF7A7
:100D8C0099FF002201211046FFF7F6FB0120FFF727
:100D9C0091FF012211460020FFF7EEFB6420FFF7C4
:100DAC0089FF002201211046FFF7E6FB6420FFF7C4
:100DBC0081FF012211460020FFF7DEFB0948FFF7F7
:100DCC0079FF1120FFF7C5FF0748FFF773FF3A20A3
:100DDC00FFF7BFFF0520FFF7ADFF2920FFF7B9FF95
:100DEC0008BD00BFC0D40100F049020038B505466B
:100DFC002A20FFF7AEFF0020FFF79CFF0020FFF733
:100E0C0099FF0020FFF796FF7F20FFF793FF2B2021
:100E1C00FFF79FFF0020FFF78DFF0020FFF78AFFF1
:100E2C000020FFF787FF9F20FFF784FF2C20FFF7A0
:100E3C0090FF002407E0280AFFF77CFFE8B2FFF7D9
:100E4C0079FF0134A4B2B4F5A04FF4D338BD2DE929
:100E5C00F8438146884617461C46BDF820600B1A9D
:100E6C00A51A013503FB0555ADB22A20FFF771FF1A
:100E7C000020FFF75FFF4846FFF75CFF0020FFF7FD
:100E8C0059FF4046FFF756FF2B20FFF762FF00206B
:100E9C00FFF750FF3846FFF74DFF0020FFF74AFFE2
:100EAC002046FFF747FF2C20FFF753FF002407E0F5
:100EBC00300AFFF73FFFF0B2FFF73CFF0134A4B25A
:100ECC00AC42F5D3BDE8F88310B582B04B1C441C82
:100EDC000092DBB20A46E1B2FFF7B9FF02B010BDD7
:100EEC002DE9F843894690461F464138C0EB001067
:100EFC004300104E1E44002515E00134E4B2092CC9
:100F0C000FD836F81530234113F0010FF5D005EB4F
:100F1C00080104EB09003A46C9B2C0B2FFF7D4FF8E
:100F2C00EBE70135EDB20E2D01D80024E7E7BDE863
:100F3C00F88300BF141100082DE9F8438946904648
:100F4C001F463038C0EB00104300104E1E440025E5
:100F5C0015E00134E4B2092C0FD836F815302341D2
:100F6C0013F0010FF5D005EB080104EB09003A462C
:100F7C00C9B2C0B2FFF7A8FFEBE70135EDB20E2DF9
:100F8C0001D80024E7E7BDE8F88300BF201400086F
:100F9C002DE9F04784B082460E4690461F464FF02E
:100FAC0000092FE06C46224B0FCB07C424F8023B00
:100FBC001B0C2370002516E00134E4B2092C10D868
:100FCC0004AB2B4413F8103C234113F0010FF3D066
:100FDC0005EB080130193A46C9B2C0B2FFF774FFED
:100FEC00EAE70135EDB20E2D06D80024E6E73B46C4
:100FFC0042463146FFF774FF0B3EF6B209F1010988
:10100C005FFA89F91AF8090070B12028F4D03A284F
:10101C00C8D0A0F13003DBB2092BE8D83B464246DE
:10102C003146FFF789FFE7E704B0BDE8F08700BF62
:10103C000411000808B5FFF7E5FD02210846FFF78B
:10104C00EBFD0C210220FFF7E7FD082211460020E2
:10105C00FFF720FA012208210020FFF78DFA082261
:10106C000A210020FFF716FA01220A210020FFF7BF
:10107C0083FA08220B210020FFF70CFA01220B2126
:10108C000020FFF779FA082209210020FFF702FA65
:10109C00012209210020FFF76FFA02220121002012
:1010AC00FFF7F8F9022211460020FFF7F3F90922A5
:1010BC0005210020FFF7EEF9092207210020FFF798
:1010CC00E9F9FFF7F1FDFFF7CDFDFFF751FEFFF753
:1010DC0075FDFEE747414D45204F56455200000037
:1010EC00F8002000200020002000FC01FA02F90486
:1010FC00F904FA0204010000000030300000000086
:10110C000000003030000000000002020202020267
:10111C0002020202FE03FE030202020206030401A3
:10112C008C01F80000000000FC030602020202021F
:10113C0002020602FC03060202020202020206027C
:10114C00FC0300000000FC00860102030002000208
:10115C000002000200020002000202038601FC00F1
:10116C0000000000F00318020C0206020202020248
:10117C0002020202020206020C021802F003000034
:10118C000000FE0300020002000200020002FE0347
:10119C0000020002000200020002FE030000000038
:1011AC00000200020002000200020002FE03000224
:1011BC000002000200020002FE0300000000FC001E
:1011CC0086010203020202027E027E02000200027B
:1011DC00000202038601FC00000000000202020271
:1011EC000202020202020202FE03FE0302020202D9
:1011FC0002020202020200000000FE03FE032000B5
:10120C0020002000200020002000200020002000D2
:10121C00FE03FE0300000000F8010C0304020402AC
:10122C000400040004000400040004000400FE0395
:10123C00FE030000000002020202020206020C027F
:10124C003802E003300218020C020602020202020B
:10125C0000000000FE03FE03000300030003000374
:10126C00000300030003000300030003000300005D
:10127C0000000202020202020202020222027202B6
:10128C00520252025202520252028C010000000021
:10129C000E020A020A021A0232022202220262021E
:1012AC004202C2028202820282030000000070002D
:1012BC00880004010202020202020202020202027D
:1012CC00020204018800700000000000000200020D
:1012DC000002000200020002FC03060202020202EB
:1012EC0002020602FC030000010072008C000C01DB
:1012FC001202220202020202020202020202040191
:10130C0088007000000000000202040208021002B3
:10131C002002C003FC0306020202020202020602C1
:10132C00FC030000000078008400020102000400AD
:10133C000400F80080010001000102018400780023
:10134C0000000000200020002000200020002000D1
:10135C0020002000200020002000FE03FE030000DF
:10136C000000FC0106010203020202020202020258
:10137C000202020202020202020202020000000049
:10138C002000D8008C0104010603020202020202B2
:10139C0002020202020202020202000000008C01A0
:1013AC005202520252025202520222020202020261
:1013BC000202020202020202000000000202040108
:1013CC000401880088005000200020005000880094
:1013DC008800040102020000000020002000200010
:1013EC0020002000200020007000D80088008C0114
:1013FC000603020200000000FE0300020001800050
:10140C0040004000200020001000080004000200F2
:10141C00FE030000000070008800040104010401B8
:10142C00040104010401040104010401880070009A
:10143C0000000000F8002000200020002000200008
:10144C0020002000200020002000A00060000000F0
:10145C000000FC0080008000800040002000100094
:10146C000800040004000401880070000000000063
:10147C00700088000401040004000800F00008005B
:10148C000400040004018800700000000000040047
:10149C000400040004000400FE0104018400440064
:1014AC00240014000C0004000000000070008800F0
:1014BC0004010400040004000800F0010001000114
:1014CC0000010001FC010000000070008800040114
:1014DC0004010401880170010001000100010401F4
:1014EC0088007000000000000001800080004000B7
:1014FC00400020002000100010000800080004002C
:10150C00FC010000000070008800040104010401CB
:10151C008800700088000401040104018800700038
:10152C0000000000700088000401040004000400A6
:10153C0074008C0004010401040188007000000098
:10154C00785634125C0000200000000000000000FF
:10155C0000000000010203040607080900A24A0467
:10156C00040AFFFFE00700F8FFFFE0FF01000001A5
:10157C000000010000010101000001000001000059
:10158C000101010101000000010000010001010145
:08159C000001020332547698AD
:040000050800010DE1
:00000001FF
